:020000041000EA
:1000000000B5324B212058609868022188439860DF
:10001000D860186158612E4B002199600221596106
:100020000121F02299502B49196001219960352056
:1000300000F044F80222904214D00621196600F024
:1000400034F8196E01211966002018661A6600F04E
:100050002CF8196E196E196E052000F02FF8012189
:100060000842F9D1002199601B49196000215960AB
:100070001A491B48016001219960EB211966A021F2
:10008000196600F012F800219960164914480160C1
:100090000121996001BC002800D000471248134993
:1000A000086003C880F30888084703B5996A0420EC
:1000B0000142FBD001200142F8D103BD02B5186610
:1000C0001866FFF7F2FF186E186E02BD00000240BE
:1000D000000000180000070000035F00212200005C
:1000E000F4000018222000A00001001008ED00E03C
:1000F00000000000000000000000000074B24E7A12
:1001000000200420F7010010C3010010C5010010F9
:10011000C1010010C1010010C1010010C101001097
:10012000C1010010C1010010C1010010C701001081
:10013000C1010010C1010010C9010010CB01001065
:10014000CD010010CD010010CD010010CD01001037
:10015000CD010010CD010010CD010010CD01001027
:10016000CD010010CD010010CD010010CD01001017
:10017000CD010010CD010010CD010010CD01001007
:10018000CD010010CD010010CD010010CD010010F7
:10019000CD010010CD010010CD010010CD010010E7
:1001A000CD010010CD010010CD010010CD010010D7
:1001B000CD010010CD010010CD010010CD010010C7
:1001C00000BE00BE00BE00BE00BE00BEEFF3058054
:1001D000103800BEF2EB8871C88D0310E88D031053
:1001E0003802001090A31AE71E481F49086006C88D
:1001F00081F3088810471D480068002801D019487D
:10020000F3E70DA40ECC002902D000F012F8F9E7B4
:100210001749184A002000E001C19142FCD116495B
:100220008847164988471649884700BEFDE701C937
:1002300001C29A42FBD37047E88D0310C000002032
:10024000442100206CAE03100000042000000420B4
:100250006CAE031000100420001004200000000009
:10026000704700000000000008ED00E0000000D032
:1002700044210020303E002039070110CD08001035
:10028000F9060110F8B5C04606480749091A8B104F
:10029000C90FC91810B5491003D0044B002B00D06A
:1002A000984710BD44210020442100200000000098
:1002B000054B10B5002B03D00449054800E000BFF2
:1002C000FFF7E2FF10BDC0460000000034330020FD
:1002D000FC5C0210F0B5DE4657464E464546E0B59A
:1002E000644C83B0A369DB061DD45C23624F1025E8
:1002F000FE5C624B02229B5E0093614B9B46A369AE
:100300001D42FCD12168CAB2BA55A3699B064AD5E1
:100310000136F6B20A2A54D00D2A0BD0A3691D4229
:10032000EDD05C23FE5403B0F0BCBB46B246A946F8
:10033000A046F0BD524B9846524B9A464346524611
:100340009B5899460B2B1DDC8C224346D2009B58B0
:1003500001930C2B75D05C2058435C22390040443B
:100360000EF076FD8A21019AC90013008C464344A1
:1003700063441E70531C4246103153504B46514645
:10038000013353500A200A22A3699B0601D5002697
:10039000C4E7009B93424CD02022A3691A42FCD1AF
:1003A00000262060BAE7FF20009B0840834213D05C
:1003B0002021A3691942FCD101362060F6B20A2A35
:1003C000AAD1304B9A465B4652469B5898460B2B17
:1003D0000EDD0D200D22D7E7202390469C462549AF
:1003E00062468B691A42FBD10D2342460B60DFE760
:1003F0008C225B46D2009B5899460C2B2ED04B4644
:100400005C2058435C22390058440EF021FD8A22BA
:100410005B46D20094464B4463441E704B465A469A
:1004200001338C21C9005350434651460133535088
:10043000CFE720210F4A93691942FCD10D231360A5
:10044000AAE75C22390040460EF002FD8A234246AC
:100450008C21DB00D654C90001238EE75C223900D1
:1004600058460EF0F5FC8A235A46DB00D654012389
:10047000D7E7C04600800340DC3B00200C3E002054
:100480006C3700206404000010B53C3015F0A8FA69
:1004900010BDC04630B505003C3583B004002800CF
:1004A00015F0B9FA6A460023911D2800D38015F093
:1004B0008FFB6B4606229B5E002B01D003B030BD44
:1004C0000021200015F010FC4007F7D50422002180
:1004D000200015F03CFDE36A002BEFD01B68002BD9
:1004E000ECD0002120009847E8E7C04670B5040032
:1004F00082B0002915D0002813D0050000263C3515
:100500000E80280015F0F1FA6B462800991DDE8058
:1005100015F05EFB6B4606229B5E002B04D001208B
:1005200000E0002002B070BD0021200015F0DCFBCF
:100530004007F4D504220021200015F008FDE36AED
:10054000002BECD01B68002BE9D00021200098473D
:100550000120E7E700B583B06A460023911D3C30D7
:10056000D38015F035FB6B460620185E03B000BD46
:10057000F0B5050083B06B463C35998004000E0051
:10058000280001A915F078FA071E00D17CE0B5B269
:100590002B00C7339BB2632B23D8202202212000DB
:1005A00015F0B2FC3E4BEB189BB2632B52D8802265
:1005B0000221200015F0A8FC04220021200015F0E3
:1005C000A3FCE36A002B05D01B68002B02D031008E
:1005D00020009847002F48D038230122E25403B06E
:1005E000F0BD2B002C33FF339BB2632B0FD81022AE
:1005F0000221200015F088FC2A4BEB189BB2632BDC
:1006000010D802220221200015F07EFCD4E72B0036
:100610009033FF339BB2632B10D8082202212000B5
:1006200015F072FC204B9C466544ADB2632DC3D8D7
:1006300001220221200015F067FCBDE72B00F433F6
:10064000FF339BB2632BADD804220221200015F0AA
:100650005BFCB1E7154BEB189BB2632BCCD8402267
:100660000221200015F050FCA6E704220021200002
:1006700015F04AFCE36A002BAED01B68002BABD010
:1006800020000B499847A7E701A9280015F064FA54
:100690006A46074B280001A9938015F0EDF976E72B
:1006A000570200001F03000083030000BB0200008C
:1006B000A2FEFFFF10B500230022FFF759FF10BD77
:1006C000C8239B009C46604480B2984203D8034BE9
:1006D0008000C05870470248FCE7C046A8FD0210E1
:1006E000005D021030B583B00721214801AA08F04F
:1006F00059F9002837D101991E4C20000CF09EFEBC
:10070000022108200BF09CFE022109200BF098FE2C
:10071000019920000CF034FFC022236B1202134019
:10072000154A0500136020000023012208210CF067
:1007300081FF200000210CF0B9FF15200F490CF0BB
:1007400007F8012115200BF0C7FF5023A363626B4C
:10075000183B13400A4A0021136028005C22094B11
:10076000995403B030BDE12149020191C4E7C0466C
:10077000F72E00200080034030900340D502001087
:1007800034900340DC3B002030B5D024474D83B08B
:10079000240628000BF0A2FE236A5D40444B1D4056
:1007A000E56213F043FB12F0EBFD0222414B1A20ED
:1007B0001A600BF073FE8023DB04A3620022002189
:1007C0001A200BF057FE1B200BF068FE80231B0540
:1007D000A362002200211B200BF04CFE1D200BF019
:1007E0005DFE80239B050021A36200221D200BF0EB
:1007F00041FE80231B03A36108F0E0FC040001001C
:1008000000200AF0CBF9002C36D1032007F0D4FCED
:100810002949041C0EF03EFA0021002809D181214B
:10082000201CC9050EF028FA01004B1E9941012336
:10083000594001200AF0B2F9042007F0BDFC1F491D
:100840000EF028FA0100D0244B1E99418025012387
:10085000022059402406ED020AF0A0F96561022148
:100860001748656201AA08F09DF8002802D1019B93
:10087000002B0AD003B030BD07F084FF434258413B
:10088000C1B204200AF08AF9BFE70E4B15221B689B
:1008900001219B68A5610C481DF0E8FA64200CF06A
:1008A000C7FC642065610CF0C3FCE3E703FC4F3E2A
:1008B00003FC4B3E00E004400000C04000007042DA
:1008C000FE2E0020E41F0020105D0210F0B5DE4671
:1008D0004E4645465746E0B5A3B010F0A1F80AF0E1
:1008E00013FB06F0D5F8FFF74FFFFFF7FBFE46249A
:1008F000002120220D266C4B089002255D5F6B487D
:100900006B4B002900D0A6E0A54200D1ABE099696D
:100910000A42FCD11C60017801300D394C42614122
:100920000478C9B2002CECD1624B01229B461B68B3
:100930006149986801231DF0EFF90DF0C7F8C8234D
:100940000293002800D0A7E0002501215B480DF0AC
:100950002BF85B4C5B4B3022E5500433E5505A4B8F
:1009600000212000E5500EF06DFA5C22574B002765
:100970009D5400230393564B2E000993554B079328
:10098000554B0693D0231B06994680239B049A4619
:100990000DF000F80A200CF04BFC0137029BBFB2AF
:1009A0000136BB4208D2039B002B61D14B46524615
:1009B0005A61012300270393484B9E4261D0424D68
:1009C0006359002BE4DD3F4B049798460596434658
:1009D0005C27E6585C227743E71939000BA80EF034
:1009E00037FA8A23DB009C46A61966445C22002164
:1009F000380036780EF026FA4346E0580C210130D4
:100A00000DF0AEF94346E1508A21C9008C46002121
:100A10006359E2186244013B117063510CF0BAFF54
:100A20004B4652460BA99A610798320015F02FFFEA
:100A30005B461B680BAA986806991DF06DF9322079
:100A40000CF0F6FB4B4652465A616359002BBEDC54
:100A5000049F059E9CE799690A4200D15AE799696B
:100A60000A42F8D156E799690A42FCD11E604EE766
:100A70004B4652469A6100230393184B00279E422F
:100A80009DD15B461B68089A9868012309990093D9
:100A90001DF042F9002692E7002103200AF07EF8BB
:100AA0003223029350E7C0460C3E0020285D02101E
:100AB00000800340E41F0020305D02108813000016
:100AC0006C3700205C04000064040000DC3B002064
:100AD000485D02103C3C0020785D0210DD050000FE
:100AE000F0B5DE464E4645465746E0B5AFB0399EB6
:100AF0009B4633680F00013333600023694C9046F6
:100B0000694A2370136081463A9D0CF043FF380018
:100B10001EF050F8654B02003900180015F0B7FEC2
:100B2000200063490FAA1DF0EBF9012800D09CE0DA
:100B3000604B380060499A460F9C1DF089FE0028E2
:100B400000D1A6E0211C201C0EF050F8041C0F90D0
:100B5000404638990EF04AF85946071C40460EF0B8
:100B600042F88046201C0EF0D3F8089009914046C8
:100B70000EF0CEF80A900B91381C0EF0C9F80C90CC
:100B80000D91211C381C0EF077F8002805D1404645
:100B9000211C0EF07FF800284ED00C9B0D9C069374
:100BA00007940A9B0B9C04930594444B7821444A78
:100BB000029310A8089B099C009301944B460FF0E8
:100BC000EDFC53461B683F4C3F49986810AA1DF046
:100BD000A3F82B5978221801C01AC00010A92818B0
:100BE0001DF028FC1F222B590133D917C90E5B18A1
:100BF00013405B1A35492B516958002911D1F02255
:100C00001201AA58934202D10122304BEA50B36834
:100C10000133B3602FB0F0BCBB46B246A946A04634
:100C2000F0BDF024240129590131C817C00E09185C
:100C30000A40121A2A51E5E753461B684A4698684B
:100C40000C9B0D9C069307940A9B0B9C04930594A4
:100C50001A4B1F490293089B099C009301941DF0B5
:100C60005BF8736801337360D4E7124B22009A4635
:100C70001B681849D8681DF04FF8F368164C01330B
:100C800038000D49F3600F941DF0E2FD002800D0FC
:100C900058E7380011491DF0DBFD002800D051E76E
:100CA00056E7C04654330020543700203C3C002017
:100CB0005C6E0210E41F0020A4750210C86E0210C2
:100CC000986E0210040F00002CF80210080F0000AC
:100CD000CC6E0210606E0210E1FAC7C2906E021074
:100CE000F8B54546DE4657464E463B4AF023904609
:100CF0003A4AE0B593463A4A050092461B01C45869
:100D0000384BC3589C4203D1374BEB58002B43D090
:100D10002201121BD2005B4691461B68A9449868C9
:100D20004A4641461CF0F8FF4B461E78002E4ED036
:100D30000D272B4B002002229A5E202194464A4622
:100D4000B9462A4B00282DD1B44532D098690142CA
:100D5000FCD11E60107801320D3846427041167881
:100D6000C0B2002EEED163460A2B28D020211F4AA4
:100D700093691942FCD10A2313601F220134E3173F
:100D8000DB0EE4181440E41A164BEB58A342B9D119
:100D9000154AAA58002AB5D1F0BCBB46B246A946AE
:100DA000A046F8BD98690142D3D098690142F9D1B3
:100DB000CFE798690142FCD148461860C6E7202178
:100DC0000A4A93691942FCD10D231360CEE75346BA
:100DD00002229A5E9446C6E72CF80210E41F002017
:100DE0000C3E0020040F0000080F000000800340AC
:100DF000F0B5DE4657464E464546E0B5AFB03A9EA2
:100E00009A4633680F00013333600023694C9046E3
:100E1000694A2370136081463B9D0CF0BBFD38008E
:100E20001DF0C8FE654B02003900180015F02FFDBB
:100E3000200063490FAA1DF063F8012800D09CE050
:100E4000604B380060499B460F9C1DF001FD002857
:100E500000D1A6E0211C201C0DF0C8FE041C0F9040
:100E6000404639990DF0C2FE3899071C40460DF0F6
:100E7000BAFE8046201C0DF04BFF089009914046B9
:100E80000DF046FF0A900B91381C0DF041FF0C90BD
:100E90000D91211C381C0DF0EFFE002805D14046B5
:100EA000211C0DF0F7FE00284ED00C9B0D9C0693E4
:100EB00007940A9B0B9C0493059453467821434A5C
:100EC000029310A8089B099C009301944B460FF0D5
:100ED00065FB5B461B683E4C3E49986810AA1CF0B7
:100EE0001BFF2B5978221801C01AC00010A928181E
:100EF0001DF0A0FA1F222B590133D917C90E5B1818
:100F000013405B1A34492B516958002911D1F02242
:100F10001201AA58934202D101222F4BEA50B36822
:100F20000133B3602FB0F0BCBB46B246A946A04621
:100F3000F0BDF024240129590131C817C00E091849
:100F40000A40121A2A51E5E75B461B684A46986830
:100F50000C9B0D9C069307940A9B0B9C0493059491
:100F600053461E490293089B099C009301941CF070
:100F7000D3FE736801337360D4E7124B22009B46A3
:100F80001B681749D8681CF0C7FEF368154C01337D
:100F900038000D49F3600F941DF05AFC002800D072
:100FA00058E7380010491DF053FC002800D051E7E5
:100FB00056E7C04654330020543700203C3C002004
:100FC0005C6E0210E41F0020A4750210986E0210DF
:100FD000040F00002CF80210080F0000CC6E021065
:100FE000606E0210E1FAC7C2906E0210F0B5D646EC
:100FF0004F461E0080B51B68A1B00133336000234B
:10100000424F9146424A8246080013600C003B70F2
:101010001DF0D0FD3F4B02002100180015F037FCF9
:1010200038001DF0C7FD00286DD0390000253818A4
:101030000C780D2C03D00A2C01D07C5501350131E0
:101040008842F5D17D1900232B700CF0A3FC3900E8
:1010500048461DF063FD00280FD12F4B52461B68F8
:101060002E4998683B001CF057FE7368013373608B
:1010700021B0C0BCBA46B146F0BD4B467821284AE3
:1010800000930197534602A80FF088FA224B254996
:101090001B6802AA98681CF03FFE234C289B78220C
:1010A0001B5902A91801C01A289BC0009C46604425
:1010B0001DF0C0F91F22289B28981B590133D9170E
:1010C000C90E5B1813405B1A28990B5117494158F8
:1010D00000290CD1F02212018258934203D101223F
:1010E000124B2899CA50B3680133B360C0E7F024AB
:1010F000240101590131C817C00E09180A40289966
:10110000121A0A51E9E73D009DE7C046543300201A
:10111000543700203C3C0020E41F0020FC6E0210ED
:10112000186F02102CF80210040F0000080F0000C6
:10113000F0B5D6464F461E0080B51B68A1B00133FE
:1011400033600023424F9146424A824608001360B2
:101150000C003B701DF02EFD3F4B020021001800DB
:1011600015F095FB38001DF025FD00286DD03900E5
:10117000002538180C780D2C03D00A2C01D07C5592
:10118000013501318842F5D17D1900232B700CF017
:1011900001FC494638001DF05BFB00280FD02F4BA7
:1011A00052461B682E4998683B001CF0B5FD7368D9
:1011B0000133736021B0C0BCBA46B146F0BD4B46A6
:1011C0007821284A00930197534602A80FF0E6F9C8
:1011D000224B25491B6802AA98681CF09DFD234CF0
:1011E000289B78221B5902A91801C01A289BC0000D
:1011F0009C4660441DF01EF91F22289B28981B590D
:101200000133D917C90E5B1813405B1A28990B518B
:101210001749415800290CD1F022120182589342FB
:1012200003D10122124B2899CA50B3680133B3602D
:10123000C0E7F024240101590131C817C00E091874
:101240000A402899121A0A51E9E73D009DE7C04675
:1012500054330020543700203C3C0020E41F002081
:10126000FC6E0210186F02102CF80210040F000020
:10127000080F000030B5224C1025A36983B0DB06AF
:1012800004D50CF087FBA3691D42FAD110221C493A
:1012900014008B691C401A42FAD10A22086801AB7B
:1012A000C0B218705A709C70002813D01C00050042
:1012B0000023002B10D02021114A93691942FCD140
:1012C0001560237801340D3B5A4253412578DBB237
:1012D000002DEED103B030BD0A4B02229B5EAB4223
:1012E00005D02021064A93691942FCD1E8E7202164
:1012F000034A93691942FCD10D231360F1E7C046FC
:10130000008003400C3E0020F0B54E46DE464546C8
:101310005746E0B5F94C1022A5441891050000216C
:1013200022A80DF08FFD0022F54B1CAC1A60FA23A9
:10133000A446002000211B01634418605960F14B52
:10134000A0302118CA50F04B012117931B681832A6
:101350009B6826ACED481CF089FD2200EC4B43CB8A
:1013600043C243CB43C21B8813802678002E1FD074
:10137000E84B0D210227DF5F002398468C462000B2
:1013800020224146E44B002901D001F09BFDB742E9
:1013900001D101F0A1FD99690A42FCD11E600178DA
:1013A00001300D394E4271410678C9B2002EEAD1A2
:1013B00000232093189B012B18D9012330220021F0
:1013C00020A813F0E5FE179BD4491B68209A986863
:1013D0001CF0A2FC290020981DF03AFA002801D147
:1013E00001F021FE0178CE480FF0F2FBCD4D0E2228
:1013F000CD49280015F04BFA64200BF019FF0D229F
:10140000CA49280015F043FAFA2040000BF010FFFB
:10141000C74B142219002800199315F038FAC54B50
:101420001522190028009B4615F031FAC24B1522EF
:10143000190028009A4615F02AFAC04B1522190007
:101440002800059315F023FABD4B16221900280039
:101450001E9315F01CFABB4B1622190028001F938F
:1014600015F015FA1622B849280015F010FA1622C0
:10147000B649280015F00BFA1622B549280015F0D8
:1014800006FA1722B349280015F001FAB24B1722C9
:10149000190028000E9315F0FAF91722AF49280019
:1014A00015F0F5F91722AE49280015F0F0F91722CA
:1014B000AC49280015F0EBF9AB4B182219002800B5
:1014C000069315F0E4F91822A849280015F0DFF971
:1014D000A74B132219002800079315F0D8F9A54B44
:1014E000132219002800089315F0D1F9A24A100020
:1014F000132201000990280015F0C9F99F4A28001D
:1015000016001B9231000E2215F0C1F99C4A2800EA
:1015100016001C923100122215F0B9F9994A2800E0
:1015200016001D923100132215F0B1F9964A2800D9
:10153000160015923100122215F0A9F915229349CF
:10154000280015F0A4F90D229149280015F09FF903
:10155000FA200BF06DFE8F4A8F4E914644AA0392FB
:1015600022AA02928D4A8E49330090468D480192FC
:1015700000924A460491FFF73BFC59461522280089
:1015800015F085F951461522280015F080F915222D
:101590008549280015F07BF9844F44AB3900844A13
:1015A0008448009322ABFFF721FD152282492800D1
:1015B00015F06DF944AB3900804A8148009322ABA5
:1015C000FFF714FD15227F49280015F060F9152258
:1015D0007D49280015F05BF915227C49280015F09B
:1015E00056F97B4F44AB39007A4A7B48009322ABD3
:1015F000FFF7FCFC15227949280015F048F944ABA7
:101600003900774A7748009322ABFFF7EFFC594641
:101610001522280015F03BF951461522280015F037
:1016200036F915220599280015F031F96E4B18226C
:10163000190028000B9315F02AF96C4F6C4A44AB43
:1016400039006C48009322AB1692FFF7CFFC1822AA
:101650000699280015F01BF9674A44AB3900674822
:10166000009322AB1A92FFF7C1FC162264492800AE
:1016700015F00DF915226349280015F008F9624BA1
:101680001422190028000D9315F001F95F4AFE2776
:10169000934644AA039222AA02925A4633005C4817
:1016A000049901920092FFF7A3FB132207992800E7
:1016B00015F0EDF844AA039222AA0292554ABF05FA
:1016C0009246330054480499019700924A46FFF726
:1016D0008FFB15225149280015F0D9F8504A100007
:1016E000142201000A90280015F0D1F844AA0392B0
:1016F00022AA02925A46330094E0C046DCEFFFFF74
:1017000054370020080F0000E41F0020406F021033
:101710005C6F02100C3E002000800340786F0210C6
:10172000906F02103C3C0020D86F0210E86F02104E
:10173000F86F021010700210287002104070021032
:10174000587002107070021088700210A0700210A1
:10175000B8700210D0700210E87002100071021010
:101760001871021030710210487102106471021079
:101770008071021094710210A8710210BC710210E5
:10178000CC710210E0710210F471021008720210A4
:10179000207202100000A040A4D002109A99993E35
:1017A00030720210447202106472021080720210D1
:1017B0007C72021090720210C0720210D872021075
:1017C000DC720210107302102873021040730210B2
:1017D0005C730210587302106C7302109C73021039
:1017E000B4730210B8730210EC7302100874021084
:1017F0005CB60210207402108CB6021050740210F5
:101800008074021098740210B0740210CDCC4C3E5B
:10181000C8740210CDCCCC3E047502104075021085
:1018200058750210FE48049901920092FFF7E0FA01
:1018300013220899280015F02AF844AA039222AA34
:10184000029252463300F7480499019700924A46A3
:10185000FFF7CEFA1522F449280015F018F8F34ADC
:10186000280017000C923900142215F010F844AA31
:10187000039222AA02925A46049F33003900EC4890
:1018800001920092FFF7B4FA13220999280014F08C
:10189000FEFF01200BF0CCFC44AA039222AA029284
:1018A0005246E44B3900E4480193009233004A4623
:1018B0000497FFF79DFA1722E049280014F0E7FF8C
:1018C00044AA039222AA0292424601925246DC4F57
:1018D00033003900DB4800924A46FFF789FA1522A7
:1018E000D949280014F0D3FF1122D849280014F058
:1018F000CEFF44AA039222AA02925A46019252466D
:1019000033003900D2480092D24AFFF771FA14220C
:10191000D149280014F0BBFF44AA039222AA0292E4
:10192000FA22CE4B39000193CD4BCE48009392055D
:101930003300FFF75DFA17220E99280014F0A7FF75
:1019400015220599280014F0A2FF0F200BF070FC5F
:1019500044AA039222AA02924246019252463300BE
:10196000C149C24800924A46FFF742FA18220B9931
:10197000280014F08CFF0F200BF05AFC44AA0392AD
:1019800022AABB4F0292BB4ABB4BBC49BC48019246
:1019900000923A1CFFF72CFABA4A3B1C904644AA24
:1019A000029222AA4146B84801920097B74AFFF72F
:1019B00097F821AAB649B7481CF0A2FA21980DF071
:1019C000A7F90B000200B44920000EF0D1FD200061
:1019D0001DF0F0F821000200280014F058FF44AA7E
:1019E000029222AA01924A464B464146AB480092D7
:1019F000A64AFFF775F818220699280014F047FF49
:101A00001822A749280014F042FF18220B99280039
:101A100014F03DFF1522A349280014F038FF1422CA
:101A20000A99280014F033FF44AA039222AA0292D2
:101A30005A460192524633009B48049900929B4AB1
:101A4000FFF7D6F913220899280014F020FF182276
:101A50000699280014F01BFF15220599280014F0A0
:101A600016FF14220D99280014F011FF904E152234
:101A70003100280014F00BFF8E4B162219002800AD
:101A8000049314F004FF0F200BF0D2FB44AB02933D
:101A900022AB0193884B41469A46884800933A1CF2
:101AA0004B46FFF71DF8864B1522190028000E93B0
:101AB00014F0EDFE834B1622190028000F9314F04A
:101AC000E6FE0F200BF0B4FB44AB029322AB019374
:101AD000534641467C4800933A1C4B46FFF700F8BA
:101AE00031001522280014F0D2FE0F200BF0A0FBCD
:101AF00044AB029322AB01935B4600220093414624
:101B00007248FEF7EDFF13220799280014F0BFFE7C
:101B10006F4B152219002800109314F0B8FE310005
:101B20001522280014F0B3FE16220499280014F0A0
:101B3000AEFE0F200BF07CFB44AB029322AB019373
:101B400053464146634800933A1C4B46FEF7C8FF94
:101B500015220E99280014F09AFE16220F992800DB
:101B600014F095FE0F200BF063FB44AB029322AB05
:101B7000019353464146584800933A1C4B46FEF7A2
:101B8000AFFF31001522280014F081FE0F200BF06A
:101B90004FFB44AB029322AB01935B4600220093C0
:101BA00041464E48FEF79CFF15220599280014F087
:101BB0006EFE18220B99280014F069FE1522484980
:101BC000280014F064FE16224649280014F05FFE37
:101BD0001E200BF02DFB44AB029322AB4146424842
:101BE000424A01930097424BFEF77AFF1522414982
:101BF000280014F04CFE1E200BF01AFB44AB02939D
:101C000022AB01935B460022009341463A48FEF71F
:101C100067FF15221099280014F039FE6EE0C046C7
:101C200070750210AC750210E87502100076021093
:101C300018760210CDCC4C3F5476021090760210EC
:101C4000A8760210BC760210DC760210F476021040
:101C50000877021000004040307702100AD7A33DF9
:101C60000AD7A33C487702107477021084770210D9
:101C7000000048420000E040C0770210C477021024
:101C8000D477021008780210187802100000FA4386
:101C90005C6E0210543300205878021074780210E1
:101CA000B4780210D0780210E878021000002040CA
:101CB0001C790210347902100000A0414C79021006
:101CC0007C79021094790210AC790210DC79021050
:101CD000107A0210287A0210587A0210887A0210BC
:101CE000BC7A0210D47A0210EC7A021000007A4317
:101CF00000007041207B0210387B021014220D99E5
:101D0000280014F0C4FD1622FD49280014F0BFFD80
:101D100044AB029322AB4146FA48FB4A0193009739
:101D2000FA4BFEF7DDFE1522F949280014F0AFFD4D
:101D300044AB029322AB01935B46002200934146E1
:101D4000F448FEF7CDFE13220799280014F09FFDFA
:101D500018222800069914F09AFD002300269946BF
:101D6000ED4B0493ED4B0593ED4B1093ED4B9B46E0
:101D7000ED4B1193ED4B0693ED4B1293ED4B079307
:101D8000ED4B1393ED4B0B93ED4B1493ED4B0D93E8
:101D9000ED4B0E93ED4B0F9315220499280014F090
:101DA00076FD33003200059920000EF0E1FB2000A3
:101DB0001CF000FF21000200280014F068FD4B46D3
:101DC0000A221099009620000EF0D2FB44AB029339
:101DD00022AB0193DE4B41469A462000DD4A009338
:101DE000DD4BFEF77DFE3200594620000EF0C0FBB1
:101DF00020001CF0DFFE21000200280014F047FD47
:101E00004B460A2211990133009620000EF0B0FBD8
:101E1000D24F44AB029322AB0022414620000193F3
:101E200000973B1CFEF75CFE3200069920000EF086
:101E30009FFB20001CF0BEFE21000200280014F0D1
:101E400026FD4B460A2212990233009620000EF01E
:101E50008FFB44AB029322AB0193534641462000D3
:101E6000BC4A0093BC4BFEF73BFE320007992000B2
:101E70000EF07EFB20001CF09DFE210002002800D9
:101E800014F005FD4B460A221399033300962000F7
:101E90000EF06EFB44AB029322AB002241462000C1
:101EA000019300973B1CFEF71BFE320059462000B1
:101EB0000EF05EFB20001CF07DFE210002002800D9
:101EC00014F0E5FC15220B99280014F0E0FC142214
:101ED0000C99280014F0DBFC330032000599200037
:101EE0000EF046FB20001CF065FE210002002800D9
:101EF00014F0CDFC4B460A221499043300962000BE
:101F00000EF036FB44AB029322AB0193534641469D
:101F10002000904A0093904BFEF7E2FD32005946B4
:101F200020000EF025FB20001CF044FE21000200E2
:101F3000280014F0ACFC4B460A220D99053300969C
:101F400020000EF015FB44AB029322AB0022414669
:101F50002000019300973B1CFEF7C2FD320006995A
:101F600020000EF005FB20001CF024FE21000200E2
:101F7000280014F08CFC4B460A220E99063300967A
:101F800020000EF0F5FA44AB029322AB01935346C6
:101F9000414620006F4A00936F4BFEF7A1FD3200CF
:101FA000079920000EF0E4FA20001CF003FE210047
:101FB0000200280014F06BFC08224B4694460F994F
:101FC0000733009602322000E1440EF0D1FA44AB10
:101FD000029322AB002241462000019300973B1C54
:101FE000FEF77EFD3200594620000EF0C1FA2000B7
:101FF0001CF0E0FD21000200280014F048FC01362E
:1020000013222800099914F042FC082E00D0C3E6E0
:1020100015220B99280014F03AFC514E172231007A
:10202000280014F034FC44AB029322AB01935346D6
:1020300041464C48474A0093474BFEF751FD4A4BF7
:102040001222190028009B4614F021FC44AB029395
:1020500022AB002241464548019300973B1CFEF706
:102060003FFD17223100280014F011FC44AB02930D
:1020700022AB0193534641463D48364A0093364BC6
:10208000FEF72EFD3B4B122219002800994614F052
:10209000FEFB44AB029322AB00224146364801933B
:1020A00000973B1CFEF71CFD15220499280014F034
:1020B000EEFB14220C99280014F0E9FB17223100E2
:1020C000280014F0E4FB44AB029322AB0193534687
:1020D00041462A481F4A00931F4BFEF701FD59460F
:1020E0001222280014F0D3FB44AB029322AB00224F
:1020F00041462348019300973B1CFEF7F1FC41E069
:102100006C7B0210847B021000007A430000704157
:10211000B87B0210D07B0210047C02101C7C0210E1
:10212000387C0210707C0210847C0210C07C02108B
:10213000D87C0210147D0210287D0210647D0210EC
:102140007C7D0210B47D0210F07D02102C7E021006
:102150000000A041000048420000A040CDCC4C3E11
:10216000687E0210807E0210B87E0210CC7E0210C3
:10217000087F0210407F0210547F0210907F0210EF
:10218000C87F021017223100280014F080FB44ABF6
:10219000029322AB019353464146FC48FC4A00930C
:1021A000FC4BFEF79DFC49461222280014F06FFB01
:1021B00044AB029322AB00224146F74801930097BB
:1021C0003B1CFEF78DFC13222800099914F05FFBDD
:1021D000002300279946F14B0593F14B0D93F14BEA
:1021E0009B46F14B0E93F14B0693F14B0F93F14B42
:1021F0000793F14B1093F14B0993F14B0B93F14B78
:102200001193F14B1293F14B1393F14B1493F14B48
:102210000C9315220499280014F039FB14220A9912
:10222000280014F034FB3B003A00059920000EF022
:102230009FF920001CF0BEFC21000200280014F0D1
:1022400026FB1E200AF0F4FF4B460C220D99009746
:1022500020000EF08DF944AB029322AB0193DE4BCC
:1022600041469A462000CA4A0093CA4BFEF738FC02
:102270003A00594620000EF07BF920001CF09AFC31
:1022800021000200280014F002FB4B460C220E999C
:102290000133009720000EF06BF9D04E44AB02934F
:1022A00022AB00224146200001930096331CFEF72A
:1022B00017FC3A00069920000EF05AF920001CF095
:1022C00079FC21000200280014F0E1FA4B460C22B0
:1022D0000F990233009720000EF04AF944AB0293A5
:1022E00022AB0193534641462000A94A0093A94BD3
:1022F000FEF7F6FB3A00079920000EF039F92000AE
:102300001CF058FC21000200280014F0C0FA4B46D3
:102310000C2210990333009720000EF029F944ABEA
:10232000029322AB00224146200001930096331C09
:10233000FEF7D6FB3A00594620000EF019F92000AE
:102340001CF038FC21000200280014F0A0FA13222F
:102350000899280014F09BFA15220999280014F016
:1023600096FA18220B99280014F091FA1E200AF010
:102370005FFF3B003A00059920000EF0F9F82000BD
:102380001CF018FC21000200280014F080FA4B46D3
:102390000C2211990433009720000EF0E9F844ABA9
:1023A000029322AB0193534641462000784A0093A2
:1023B000784BFEF795FB3A00594620000EF0D8F80E
:1023C00020001CF0F7FB21000200280014F05FFA47
:1023D0004B460C2212990533009720000EF0C8F8E6
:1023E00044AB029322AB00224146200001930096A9
:1023F000331CFEF775FB3A00069920000EF0B8F882
:1024000020001CF0D7FB21000200280014F03FFA46
:102410004B460C2213990633009720000EF0A8F8C3
:1024200044AB029322AB0193534641462000584AE5
:102430000093584BFEF754FB3A00079920000EF02A
:1024400097F820001CF0B6FB21000200280014F0D1
:102450001EFA08224B46944614990733009704321B
:102460002000E1440EF084F844AB029322AB00223A
:102470004146200001930096331CFEF731FB3A00E1
:10248000594620000EF074F820001CF093FB210048
:102490000200280014F0FBF90137172228000C99DC
:1024A00014F0F5F9082F00D0B3E615220999280099
:1024B00014F0EDF914220A99280014F0E8F9484BB9
:1024C0001722190028009B4614F0E1F91E200AF09B
:1024D000AFFE44AB029322AB0193534641464148C1
:1024E0002B4A00932B4BFEF7FBFA3F4B12221900AD
:1024F00028001F0014F0CBF944AB029322AB4146F5
:1025000000223A4801930096331CFEF7E9FA594637
:102510001722280014F0BBF944AB029322AB0193BD
:102520005346414632481A4A00931A4BFEF7D8FAEE
:10253000304B122219002800994614F0A8F944AB38
:10254000029322AB414600222B4801930096331C94
:10255000FEF7C6FA15220499280014F098F91822FB
:102560000B99280014F093F959461722280014F00B
:102570008EF91E200AF05CFE44AB029322AB01935D
:10258000534641461D48024A009339E00480021038
:10259000000048420000A0403C80021078800210F9
:1025A00094800210CC800210E08002101C81021086
:1025B000348102107081021084810210C0810210E7
:1025C000D8810210F48102102C820210688202105D
:1025D000A4820210E08202100000A041CDCC4C3E4B
:1025E000F882021010830210488302105C830210EC
:1025F00098830210D0830210E4830210208402101A
:10260000FE4BFEF76DFA39001222280014F03FF954
:1026100044AB029322AB41460022F9480193009655
:10262000331CFEF75DFA59461722280014F02FF9E3
:1026300044AB029322AB019353464146F148F24A20
:102640000093EE4BFEF74CFA49461222280014F094
:102650001EF944AB029322AB41460022EB480193A2
:102660000096331CFEF73CFA17220C99280014F050
:102670000EF91222E649280014F009F9169F44AB1E
:102680003A00E449E448009322ABFEF7AFFC44ABC8
:102690003A00E249E248009322ABFEF7A7FC0E2283
:1026A0001B99280014F0F3F812221C99280014F04A
:1026B000EEF813221D99280014F0E9F8159B122258
:1026C000190028009A4614F0E2F81A9A44AB93468F
:1026D000D449D548009322ABFEF788FC44AB3A00BE
:1026E000D249D348009322ABFEF780FCD14E44ABD5
:1026F0003200D149D148009322ABFEF777FC44ABBE
:102700003200CF49CF48009322ABFEF76FFC0E2278
:10271000CD49280014F0BBF8CC4B13221900280037
:10272000994614F0B4F8CA4B1322190028009846B1
:1027300014F0ADF81222C749280014F0A8F8C64ECC
:1027400044AB5A463100C548009322ABFEF74EFC1D
:102750001222C349280014F09AF844AB3A00310021
:10276000C048009322ABFEF741FC1222BE4928006C
:1027700014F08DF8BD4E44AB5A463100BC4800936E
:1027800022ABFEF733FC1222BA49280014F07FF87E
:1027900044AB3A003100B848009322ABFEF726FC68
:1027A0001222B649280014F072F8B54E44AB5A46CE
:1027B0003100B448009322ABFEF718FC1222B24954
:1027C000280014F064F844AB3A003100AF4800939D
:1027D00022ABFEF70BFC1222AD49280014F057F88B
:1027E000AC4E44AB5A463100AB48009322ABFEF7E7
:1027F000FDFB1222A949280014F049F844AB3A0025
:102800003100A748009322AB1697FEF7EFFB0F228B
:10281000A449280014F03BF80D22A349280014F025
:1028200036F81222A149280014F031F81222A049EA
:10283000280014F02CF816229E49280014F027F8DE
:102840009D4E14223100280014F021F8FA200AF0DD
:10285000EFFC1B229949280014F019F844AB984A60
:1028600098499948009322ABFEF7C0FB162297497E
:10287000280014F00CF80E229549280014F007F8EF
:1028800031001422280014F002F81922914928007E
:1028900013F0FDFF904F44AB3900904A90480093ED
:1028A00022ABFEF7A3FB0D228E49280013F0EFFFA9
:1028B00016228D49280013F0EAFF31001422280067
:1028C00013F0E5FF19228949280013F0E0FF44AB1B
:1028D0003900874A8748009322ABFEF787FB0D2219
:1028E0008549280013F0D3FF16228449280013F0ED
:1028F000CEFF31001422280013F0C9FF19228049AD
:10290000280013F0C4FF44AB39007E4A7E48009390
:1029100022ABFEF76BFB0D227C49280013F0B7FFBA
:1029200016227B49280013F0B2FF31001422280040
:1029300013F0ADFF19227749280013F0A8FF44AB2C
:102940003900754A7548009322ABFEF74FFB4946A4
:102950001322280013F09BFF41461322280013F096
:1029600096FF5346514612222800159313F08FFF0D
:1029700016226B49280013F08AFF132269492800A8
:1029800013F085FF13226849280013F080FF674B7E
:10299000674E9A4644AB5A4631006648009322ABD4
:1029A000FEF724FBD94613226349280013F06FFF7A
:1029B000169A624B90469B4644AB310060480093A8
:1029C00022ABFEF713FB13225E49280013F05FFFD2
:1029D0005D4E44AB31004A465C48009322ABFEF7A3
:1029E00005FB13225A49280013F051FF44AB310074
:1029F00042465848009322ABAEE0C0460000A040DB
:102A0000588402109484021000004842CC840210C2
:102A1000088502101C8502103485021058850210AA
:102A20007085021094850210B0850210D8850210BE
:102A3000F485021018EF02101C860210388602106E
:102A40006886021084860210B4860210C4860210C2
:102A5000D8860210EC860210008702101887021038
:102A6000488702105C8702108C870210A087021032
:102A7000B8870210E8870210FC8702102C88021029
:102A80004088021058880210888802109C88021022
:102A9000CC880210E0880210F88802102889021001
:102AA0003C8902106C8902107C8902108C8902100A
:102AB000A0890210B4890210CC890210E4890210A6
:102AC000008A0210088A0210248A0210548A021016
:102AD0006C8A02107C8A02109C8A0210988A02106A
:102AE000B88A0210EC8A0210FC8A0210148B0210C1
:102AF000308B0210348B02106C8B02107C8B021016
:102B0000948B0210B08B0210B48B0210EC8B02106D
:102B1000FC8B0210148C0210308C0210348C0210CA
:102B20006C8C0210848C0210988C02108CB60210EF
:102B3000AC8C0210C48C0210FC8C02105CB602102B
:102B4000108D0210488D02105C8D0210748D0210E1
:102B5000AC8D0210C08D0210FEF748FA1322E54931
:102B6000280013F094FEE44E44AB31004A46E3489B
:102B7000009322ABFEF73AFA1322E149280013F042
:102B800086FE44AB31004246DE48009322ABFEF79E
:102B90002DFA1322DC49280013F079FEDB4E44ABFA
:102BA00031004A46DA48009322ABFEF71FFA13229F
:102BB000D849280013F06BFE44AB31004246D6489A
:102BC000009322ABFEF712FA1522D449280013F025
:102BD0005EFE44AB4246D249D248009322ABFEF798
:102BE00005FA1922D049280013F051FECF4F1A22BE
:102BF0003900280013F04BFE12221599280013F01B
:102C000046FE1C22CA49280013F041FE1922C94978
:102C1000280013F03CFE1622C749280013F037FEA7
:102C2000C64E15223100280013F031FE1E200AF096
:102C3000FFFA44ABC24AC349C348009322ABFEF734
:102C4000D5F91B22C149280013F021FE1922C049E1
:102C5000280013F01CFE1622BE49280013F017FEB0
:102C600031001522280013F012FE1E200AF0E0FAAF
:102C700044ABB94AB949BA48009322ABFEF7B6F95A
:102C80001A223900280013F002FE1B22B549280041
:102C900013F0FDFD1922B449280013F0F8FD1622A7
:102CA000B249280013F0F3FD31001522280013F07B
:102CB000EEFD1E200AF0BCFA44ABAD4AAD49AE4869
:102CC000009322ABFEF792F91922AC49280013F0C9
:102CD000DEFD1B22AA49280013F0D9FD1922A949BB
:102CE000280013F0D4FD1622A749280013F0CFFDC9
:102CF0001522A649280013F0CAFD1E200AF098FAF2
:102D000044ABA34AA349A448009322ABFEF76EF953
:102D10001522A249280013F0BAFD1522A049280067
:102D200013F0B5FD44AB9F4A9F49A048009322ABE6
:102D3000FEF7FEF944AB9E4A9E499F48009322ABA2
:102D4000FEF7F6F912221599280013F0A0FD1322C0
:102D50009A49280013F09BFD13229949280013F08B
:102D600096FD984E44AB4A4631009748009322ABFB
:102D7000FEF73CF914221999280013F088FD44ABA2
:102D80000093424622AB31009048FEF72FF9189B82
:102D9000032B00D14CE1179E2022336801219B6850
:102DA0008B481BF063F8229F33683A008949986882
:102DB0001AF0B2FF239B88499846336842469868C8
:102DC0001AF0AAFF249B85499A46336852469868B0
:102DD0001AF0A2FF259A33689146814998681AF043
:102DE0009BFF4B46019353463A0000932000434615
:102DF0007C490DF0BDFB2778002F20D00D267A4BA3
:102E0000B04602229B5E2E009C463D002000674695
:102E100000212022B446754B002964D1AF4200D175
:102E2000EEE099690A42FCD11D60017801300D394C
:102E30004D4269410578C9B2002DEDD16546534632
:102E4000002B02DC4B46002B0FDD142268492800C2
:102E500013F01DFD179B16221B6801219B68654816
:102E60001BF004F844A8FDF73BFF2200624B23CB84
:102E700023C203CB03C21B7813702078002819D01B
:102E8000002120220D26584B02255D5F574B00295B
:102E900000D0BBE0854200D1C0E099690A42FCD174
:102EA0001860217801340D39484241412078C9B277
:102EB0000028ECD1514B9D44F0BCBB46B246A9461C
:102EC000A046F0BD99690A4201D1FEF767FA9969F7
:102ED0000A42F7D1FEF762FA99690A42FCD16146CB
:102EE0001960FEF758FA99690A429DD099690A4219
:102EF000F9D199E7F88D02100C8E0210248E021081
:102F00005C8E0210708E0210A88E0210BC8E021011
:102F1000D48E02100C8F0210208F0210588F0210D6
:102F2000708F0210888F0210A88F0210C48F0210B9
:102F3000E08F0210009002101C90021034900210DA
:102F40004C9002106090021088900210B490021011
:102F5000D0900210EC90021004910210189102100F
:102F6000409102106C91021088910210A4910210FD
:102F7000BC910210D0910210F8910210249202101C
:102F8000409202105C92021078920210909202100D
:102F9000A8920210C0920210EC9202101C93021030
:102FA000349302104C9302105C9302107093021041
:102FB00098930210A4930210B8930210E0930210A9
:102FC000F4930210089402102494021064940210E6
:102FD0007C9B0210A09B0210C49B0210E49B021079
:102FE000049C0210249C02100C3E00200080034030
:102FF0006C9C0210849C02109C9C02102410000007
:1030000099690A42FCD1414619600AE799690A4266
:1030100000D145E799690A42F8D141E799690A4226
:10302000FCD11E6039E795480DF04AFD012041E7CB
:1030300016222800924913F02AFC1F991622280014
:1030400013F025FC8F4B172219002800994613F026
:103050001EFC8D4E44AB5246310000938B4822AB90
:10306000FDF7C4FF8A4F44AB5246390000938948AC
:1030700022ABFDF7BBFF884B1722984619002800AA
:1030800013F005FC44AB5A4631000093834822AB51
:10309000FDF7ACFF44AB5A4639000093804822ABA1
:1030A000FDF7A4FF49461722280013F0F0FB44ABBC
:1030B0005246390000937B4822ABFDF797FF41460B
:1030C0001722280013F0E3FB1E991622280013F0A4
:1030D000DEFB16222800744913F0D9FB734B17222C
:1030E00019002800994613F0D2FB44AB5246390030
:1030F00000936F4822ABFDF779FF44AB5246310095
:1031000000936C4822ABFDF771FF6B4B172298467A
:103110001900280013F0BBFB44AB5A46390000935A
:10312000664822ABFDF762FF44AB5A46310000937C
:10313000634822ABFDF75AFF49461722280013F0D7
:10314000A6FB44AB5246310000935E4822ABFDF72C
:103150004DFF41461722280013F099FB1322280047
:10316000594913F094FB13222800584913F08FFBA0
:10317000574E13223100280013F089FB554944AB08
:10318000884652460093544822ABFDF72FFF534F19
:1031900044AB524639000093514822ABFDF726FF5D
:1031A000132228004F4913F072FB44AB5A464146A4
:1031B00000934D4822ABFDF719FF44AB5A46390046
:1031C00000934A4822ABFDF711FF3100132228007B
:1031D00013F05DFB13222800454913F058FB13221E
:1031E0002800444913F053FB13222800424913F0EE
:1031F0004EFB424E13223100280013F048FB404999
:1032000044AB524600933F4822AB8946FDF7EEFEA1
:103210003D4944AB8846524600933C4822ABFDF7FB
:10322000E5FE3B4F44AB524639000093394822AB90
:10323000FDF7DCFE13222800374913F028FB44ABCE
:103240005A4649460093354822ABFDF7CFFE44ABC2
:103250005A4641460093324822ABFDF7C7FE44ABC5
:103260005A46390000932F4822ABFDF7BFFE1322C8
:103270003100280013F00BFB8DE5C046BC6F021037
:10328000A4940210BC940210D4940210EC94021086
:10329000249502103C950210749502108C95021032
:1032A000C4950210FC950210349602104C96021040
:1032B000649602109C960210D4960210EC960210AE
:1032C000249702105C97021094970210A89702109E
:1032D000BC970210D0970210EC97021030980210A1
:1032E0004C98021090980210A4980210E8980210CE
:1032F0002C990210409902105499021068990210FA
:103300007C99021098990210DC990210F899021029
:103310003C9A0210589A02109C9A0210B09A02101D
:10332000F49A0210389B0210F0B5DE464E4657461E
:103330004546E0B5EA4DA3B00E22EA49280013F055
:10334000A6FA642009F074FF0D22E749280013F063
:103350009EFAFA20400009F06BFF1422E34928008E
:1033600013F095FA1522E249280013F090FA15227D
:10337000E049280013F08BFADF4B152219002800D2
:10338000029313F084FA1622DC49280013F07FFA26
:103390001622DB49280013F07AFA1622D9492800B0
:1033A00013F075FA1622D849280013F070FAD74B9B
:1033B000162219002800994613F069FA1722D449F9
:1033C000280013F064FA1722D249280013F05FFA9C
:1033D0001722D149280013F05AFA1722CF492800A2
:1033E00013F055FA1722CE49280013F050FACD4BAE
:1033F000182219002800009313F049FA1822CA492C
:10340000280013F044FAC94B132219002800039333
:1034100013F03DFA1322C649280013F038FA13229C
:10342000C449280013F033FA0E22C349280013F0D0
:103430002EFA1222C149280013F029FA1322C0499A
:10344000280013F024FA1222BE49280013F01FFAB4
:103450001522BD49280013F01AFA0D22BB49280095
:1034600013F015FAFA2009F0E3FE002204AC210063
:10347000B74B9A63B74AC1CAC1C1C1CAC1C11268B8
:103480000A602678002E1ED0B34A0D210227D75F8E
:10349000002290468C46200041462032002901D06F
:1034A00001F0A5F9B74201D101F0ABF999690A42DF
:1034B000FCD11E60017801300D394E427141067811
:1034C000C9B2002EEAD12200A44B43CB43C243CB66
:1034D00043C243CB43C203CB03C2198811809B78FC
:1034E00093702678002E1FD09B4B0D210227DF5FA3
:1034F000002398468C46200020224146944B002908
:1035000001D001F085F9B74201D101F08BF9996939
:103510000A42FCD11E60017801300D394E427141E2
:103520000678C9B2002EEAD122008D4B43CB43C2AC
:1035300043CB43C243CB43C203CB03C21B8813809C
:103540002678002E1FD0844B0D210227DF5F002339
:1035500098468C462000202241467D4B002901D010
:1035600001F067F9B74201D101F06DF999690A429A
:10357000FCD11E60017801300D394E427141067850
:10358000C9B2002EEAD14A22200076490BF060FC35
:103590002678002E1FD0704B0D210227DF5F0023FD
:1035A00098468C46200020224146694B002901D0D4
:1035B00001F050F9B74201D101F056F999690A4278
:1035C000FCD11E60017801300D394E427141067800
:1035D000C9B2002EEAD1FDF74DFEFA20400009F0F5
:1035E00027FE61491622280013F051F95F4B9846D7
:1035F0002300424643CA43C343CA43C343CA43C3E7
:1036000043CA43C32678002E1FD0534B0D210227F7
:10361000DF5F00239A468C462000202251464C4B07
:10362000002901D001F027F9B74201D101F02DF9AD
:1036300099690A42FCD11E60017801300D394E4271
:1036400071410678C9B2002EEAD13B2220004849D8
:103650000BF0FEFB2678002E1FD03F4B0D210227DA
:10366000DF5F00239A468C46200020225146384BCB
:10367000002901D001F010F9B74201D101F016F98B
:1036800099690A42FCD11E60017801300D394E4221
:1036900071410678C9B2002EEAD1FDF7EBFDFA20A0
:1036A000400009F0C5FD4E22200032490BF0D0FB4E
:1036B0002678002E6DD0284B0D210227DF5F0023D6
:1036C0009A468C46200020225146214B002901D0E9
:1036D00001F0F3F8B74201D101F0F9F84CE0C0462F
:1036E0003C3C0020D86F0210E86F0210F86F021007
:1036F00010700210287002104070021058700210F2
:103700007070021088700210A0700210B870021061
:10371000D0700210E87002100071021018710210CF
:103720003071021048710210647102108071021031
:1037300094710210A8710210BC710210CC710210B9
:10374000E0710210F471021008720210207202106F
:1037500000800340B49C02100C3E0020D09C02105C
:10376000009D0210309D02107C9D0210949D02105D
:10377000C49D0210009E021099690A42FCD11E608D
:10378000017801300D394E4271410678C9B2002EE0
:103790009CD1FDF76FFDFA20400009F049FD494634
:1037A0001622280013F073F8E34B152219002800A5
:1037B000994613F06CF8E14B182219002800019388
:1037C00013F065F8DE4B1422190028009B4613F015
:1037D0005EF84C222000DB490BF03AFB2678002EE5
:1037E0001FD0D94B0D210227DF5F00239A468C465C
:1037F000200020225146D54B002901D001F06EF85F
:10380000B74201D101F074F899690A42FCD11E60F7
:10381000017801300D394E4271410678C9B2002E4F
:10382000EAD1FDF727FDFA20400009F001FD18223A
:103830000099280013F02BF849461522280013F0B0
:1038400026F82200C24B43CB43C243CB43C203CB37
:1038500003C2198811809B7893702678002E1FD0A0
:10386000B94B0D210227DF5F002399468C462000CB
:1038700020224946B54B002901D001F040F8B7425B
:1038800001D101F046F899690A42FCD11E60017825
:1038900001300D394E4271410678C9B2002EEAD18D
:1038A000FDF7E8FCFA20400009F0C2FC132203995E
:1038B000280012F0ECFF51222000A6490BF0C8FAB4
:1038C0002678002E1FD0A04B0D210227DF5F00239A
:1038D00099468C462000202249469C4B002901D065
:1038E00001F01EF8B74201D101F024F899690A42AB
:1038F000FCD11E60017801300D394E4271410678CD
:10390000C9B2002EEAD1FDF7B5FCFA20400009F05B
:103910008FFC5822200090490BF09AFA2678002E4E
:103920001FD0894B0D210227DF5F002399468C466B
:10393000200020224946854B002901D001F001F8E2
:10394000B74201D101F007F899690A42FCD11E6023
:10395000017801300D394E4271410678C9B2002E0E
:10396000EAD1FDF787FCFA20400009F061FC16223D
:103970007A49280012F08BFF4D22200078490BF085
:1039800067FA2678002E1FD06F4B0D210227DF5FCC
:10399000002399468C462000202249466B4B002983
:1039A00001D000F0DFFFB74201D100F0E5FF9969D7
:1039B0000A42FCD11E60017801300D394E4271413E
:1039C0000678C9B2002EEAD1FDF754FCFA20400077
:1039D00009F02EFC16226349280012F058FF182225
:1039E0000199280012F053FF4F2220005E490BF08E
:1039F0002FFA2678002E1FD0534B0D210227DF5FB0
:103A0000002399468C462000202249464F4B00292E
:103A100001D000F0B8FFB74201D100F0BEFF9969B4
:103A20000A42FCD11E60017801300D394E427141CD
:103A30000678C9B2002EEAD1FDF71CFCFA2040003E
:103A400009F0F6FB18220099280012F020FF162238
:103A50004649280012F01BFF16224549280012F0A3
:103A600016FF3E22200043490BF0F2F92678002E83
:103A70001FD0354B0D210227DF5F002399468C466E
:103A8000200020224946314B002901D000F08CFF54
:103A9000B74201D100F092FF99690A42FCD11E6041
:103AA000017801300D394E4271410678C9B2002EBD
:103AB000EAD13322200030490BF0CAF92678002ED3
:103AC0001FD0214B0D210227DF5F002399468C4632
:103AD0002000202249461D4B002901D000F075FF2F
:103AE000B74201D100F07BFF99690A42FCD11E6008
:103AF000017801300D394E4271410678C9B2002E6D
:103B0000EAD1FDF7B7FBFA20400009F091FB4E2205
:103B100020001A490BF09CF92678002E45D00A4B5C
:103B20000D210227DF5F002399468C4620002022CA
:103B30004946064B24E0C046509E0210EC7302102A
:103B4000B0740210689E02100C3E002000800340FA
:103B5000B49E0210D89E02102C9F0210849F021067
:103B60009C9F0210EC9F021004A0021054A00210AF
:103B70006CA0021084A00210C4A00210F8A00210D1
:103B8000002901D000F032FFB74201D100F038FF28
:103B900099690A42FCD11E60017801300D394E420C
:103BA00071410678C9B2002EEAD1FDF763FBFA2015
:103BB000400009F03DFB18220199280012F067FE31
:103BC0004E222000DF490BF043F92678002E1FD04B
:103BD000DD4B0D210227DF5F002399468C46200034
:103BE00020224946D94B002901D000F010FFB742EE
:103BF00001D100F016FF99690A42FCD11E600178DC
:103C000001300D394E4271410678C9B2002EEAD119
:103C1000FDF730FBFA20400009F00AFB009918225A
:103C2000280012F034FE2300424643CA43C343CA6D
:103C300043C343CA43C343CA43C32678002E1FD09D
:103C4000C14B0D210227DF5F002398468C462000E0
:103C500020224146BD4B002901D000F0E9FEB742C9
:103C600001D100F0EFFE99690A42FCD11E60017893
:103C700001300D394E4271410678C9B2002EEAD1A9
:103C80002200B34B43CB43C243CB43C203CB03C25B
:103C90002778002F1FD0AC4B0D2102269E5F0023FA
:103CA00098468C46200020224146A84B002901D08E
:103CB00000F0DAFEBE4201D100F0E0FE99690A424E
:103CC000FCD11F60017801300D394F4279410778EE
:103CD000C9B2002FEAD1442220009E490BF0B8F867
:103CE0002678002E1FD0984B0D2702229B5EBA46E5
:103CF00099462000002120224F46944B002901D0F4
:103D000000F0C3FEB74201D100F0C9FE99690A4232
:103D1000FCD11E60017801300D394E4271410678A8
:103D2000C9B2002EEAD1FDF7A5FAFA20400009F049
:103D30007FFA18220199280012F0A9FD1522864960
:103D4000280012F0A4FD14225946280012F09FFD0D
:103D50004E22200081490BF07BF82678002E1FD0E0
:103D6000794B0D210227DF5F002398468C46200007
:103D700020224146754B002901D000F097FEB74242
:103D800001D100F09DFE99690A42FCD11E600178C4
:103D900001300D394E4271410678C9B2002EEAD188
:103DA000FDF768FAFA20400009F042FA6C4B16223F
:103DB00019002800994612F06AFD4722200069493F
:103DC0000BF046F82678002E1FD05F4B0D210227FE
:103DD000DF5F002398468C462000202241465B4B43
:103DE000002901D000F073FEB74201D100F079FE46
:103DF00099690A42FCD11E60017801300D394E42AA
:103E000071410678C9B2002EEAD1FDF733FAFA20E3
:103E1000400009F00DFA544B15221900280098466D
:103E200012F035FD4522200050490BF011F826789C
:103E3000002E1FD0444B0D210227DF5F00239A463E
:103E40008C46200020225146404B002901D000F032
:103E50004FFEB74201D100F055FE99690A42FCD1EC
:103E60001E60017801300D394E4271410678C9B2A9
:103E7000002EEAD1FDF7FEF9FA20400009F0D8F94A
:103E800016223B49280012F002FD4E22200039493B
:103E90000AF0DEFF2778002F1FD02B4B0D260222C1
:103EA0009B5EB3469A462000002120225646274BAF
:103EB000002901D000F02DFEBE4201D100F033FEFA
:103EC00099690A42FCD11F60017801300D394F42D7
:103ED00079410778C9B2002FEAD1FDF7CBF9FA2072
:103EE000400009F0A5F916224946280012F0CFFC3F
:103EF0004722200020490AF0ABFF2778002F3DD051
:103F0000114B0D2602229B5EB246994620000021ED
:103F100020224E460D4B002901D000F00BFEBE4280
:103F200001D100F011FE99690A42FCD11F600178AD
:103F300001300D394F4279410778C9B2002FEAD1DB
:103F40001CE0C04648A102100C3E00200080034047
:103F500098A10210B8A10210FCA1021014A2021034
:103F60006C7B021064A20210B87B0210ACA202109B
:103F7000F4A202100CA302105CA30210FDF77AF960
:103F8000FA20400009F054F915224146280012F0A9
:103F90007EFC18220099280012F079FC1522029963
:103FA000280012F074FC13220399280012F06FFC11
:103FB000E1491622280012F06AFC2200DF4B43CBB5
:103FC00043C243CB43C243CB43C22778002F1FD009
:103FD000DB4B0D2102269E5F002398468C46200075
:103FE00020224146D74B002901D000F0B4FDBE424B
:103FF00001D100F0BAFD99690A42FCD11F60017835
:1040000001300D394F4279410778C9B2002FEAD10A
:104010003F222000CC490AF01BFF2778002F1FD039
:10402000C74B0D2102269E5F002398468C46200038
:1040300020224146C34B002901D000F09DFDBE4225
:1040400001D100F0A3FD99690A42FCD11F600178FB
:1040500001300D394F4279410778C9B2002FEAD1BA
:10406000FDF708F9FA20400009F0E2F81522B749F7
:10407000280012F00CFCB64B1222190028009846BA
:1040800012F005FC1222B349280012F000FC502265
:104090002000B1490AF0DCFE2678002E1FD0A84B84
:1040A0000D210227DF5F002399468C462000202245
:1040B0004946A44B002901D000F06FFDB74201D161
:1040C00000F075FD99690A42FCD11E60017801304B
:1040D0000D394E4271410678C9B2002EEAD1FDF782
:1040E000C9F8FA20400009F0A3F822009B4B83CBCB
:1040F00083C283CB83C283CB83C22678002E1FD09A
:104100008F4B0D210227DF5F002399468C4620004C
:10411000202249468B4B002901D000F04FFDB742C9
:1041200001D100F055FD99690A42FCD11E60017869
:1041300001300D394E4271410678C9B2002EEAD1E4
:104140003D22200086490AF083FE2678002E1FD0EB
:104150007B4B0D210227DF5F002399468C46200010
:1041600020224946774B002901D000F038FDB742A4
:1041700001D100F03EFD99690A42FCD11E60017830
:1041800001300D394E4271410678C9B2002EEAD194
:10419000FDF770F8FA20400009F04AF8152271493D
:1041A000280012F074FB12224146280012F06FFB27
:1041B00014226D49280012F06AFB522220006B493C
:1041C0000AF046FE2778002F1FD05D4B0D210226F6
:1041D0009E5F002398468C46200020224146594B82
:1041E000002901D000F00CFDBE4201D100F012FD0B
:1041F00099690A42FCD11F60017801300D394F42A4
:1042000079410778C9B2002FEAD1FDF733F8FA20D7
:10421000400009F00DF812225549280012F037FB32
:1042200015220299280012F032FB51222000514938
:104230000AF00EFE2778002F1FD0414B0D210226D9
:104240009E5F002398468C462000202241463D4B2D
:10425000002901D000F0E5FCBE4201D100F0EBFCEA
:1042600099690A42FCD11F60017801300D394F4233
:1042700079410778C9B2002FEAD13F4B31221900AA
:10428000200098460AF0E4FD2678002E1FD02C4B23
:104290000D210227DF5F002399468C462000202253
:1042A0004946284B002901D000F0CCFCB74201D18F
:1042B00000F0D2FC99690A42FCD11E6001780130FD
:1042C0000D394E4271410678C9B2002EEAD13A2228
:1042D00020002A490AF0BCFD2678002E1FD0184B7A
:1042E0000D210227DF5F002399468C462000202203
:1042F0004946144B002901D000F0B5FCB74201D16A
:1043000000F0BBFC99690A42FCD11E6001780130C3
:104310000D394E4271410678C9B2002EEAD1FCF740
:10432000A9FFFA20400008F083FF4C222000144926
:104330000AF08EFD267825E0A4A30210BCA302108B
:104340000C3E002000800340E0A30210BC7A021063
:1043500020A4021034A4021048A4021098A4021051
:10436000BCA40210FCA4021014A502102CA502107B
:1043700080A5021094A50210E8A502101CA6021048
:1043800058A60210002E1FD0DB4B0D210227DF5F45
:10439000002399468C46200020224946D74B00290D
:1043A00001D000F071FCB74201D100F077FC9969AF
:1043B0000A42FCD11E60017801300D394E42714134
:1043C0000678C9B2002EEAD1FCF754FFFA2040006B
:1043D00008F02EFF53222000C9490AF039FD267843
:1043E000002E1FD0C44B0D210227DF5F002399460A
:1043F0008C46200020224946C04B002901D000F005
:1044000054FCB74201D100F05AFC99690A42FCD130
:104410001E60017801300D394E4271410678C9B2F3
:10442000002EEAD13122414620000AF011FD277802
:10443000002F1FD0B04B0D2102269E5F002398460F
:104440008C46200020224146AC4B002901D000F0D0
:104450003DFCBE4201D100F043FC99690A42FCD107
:104460001F60017801300D394F4279410778C9B298
:10447000002FEAD13D222000A2490AF0E9FC27786A
:10448000002F1FD09C4B0D2102269E5F00239846D3
:104490008C46200020224146984B002901D000F094
:1044A00026FCBE4201D100F02CFC99690A42FCD1E5
:1044B0001F60017801300D394F4279410778C9B248
:1044C000002FEAD1FCF7D6FEFA20400008F0B0FE3B
:1044D0008D4B152219002800984612F0D8F94F226A
:1044E00020008A490AF0B4FC2678002E1FD0824BA7
:1044F0000D210227DF5F002399468C4620002022F1
:1045000049467E4B002901D000F002FCB74201D1A0
:1045100000F008FC99690A42FCD11E600178013064
:104520000D394E4271410678C9B2002EEAD1FCF72E
:10453000A1FEFA20400008F07BFE1522414628002B
:1045400012F0A5F95722200071490AF081FC277862
:10455000002F1DD0684B0D2102269E5F0023984638
:104560008C46200020224146644B002900D0E0E325
:10457000BE4200D1E5E399690A42FCD11F6001788F
:1045800001300D394F4279410778C9B2002FECD183
:10459000552220005F490AF05BFC2778002F1DD0D0
:1045A000554B0D2102269E5F002398468C46200025
:1045B00020224146514B002900D0C9E3BE4200D120
:1045C000CEE399690A42FCD11F60017801300D39B0
:1045D0004F4279410778C9B2002FECD1FCF74AFE6F
:1045E000FA20400008F024FE5A2220004A490AF02E
:1045F0002FFC2778002F1DD03F4B0D2102269E5FF8
:10460000002398468C462000202241463B4B00293F
:1046100000D0ABE3BE4200D1B0E399690A42FCD1BD
:104620001F60017801300D394F4279410778C9B2D6
:10463000002FECD1FCF71EFEFA20400008F0F8FD38
:104640005C22200035490AF003FC2778002F1DD09A
:10465000294B0D2102269E5F002398468C462000A0
:1046600020224146254B002900D08DE3BE4200D1D7
:1046700092E399690A42FCD11F60017801300D393B
:104680004F4279410778C9B2002FECD15D2220005A
:1046900023490AF0DDFB2778002F1DD0164B0D2192
:1046A00002269E5F002398468C4620002022414629
:1046B000124B002900D075E3BE4200D17AE399691C
:1046C0000A42FCD11F60017801300D394F42794117
:1046D0000778C9B2002FECD1FCF7CCFDFA204000DE
:1046E00008F0A6FD4B2220000E490AF0B1FB277806
:1046F000002F37D018E0C0460C3E00200080034059
:10470000A4A60210F8A60210DC76021038A7021048
:1047100088A70210E0A7021038A8021094A802107F
:10472000F0A8021050A90210CA4B0D2102269E5F6C
:10473000002398468C46200020224146C64B002983
:1047400000D03DE3BE4200D142E399690A42FCD168
:104750001F60017801300D394F4279410778C9B2A5
:10476000002FECD1FCF786FDFA20400008F060FD38
:1047700028000E22B94912F08AF8FA2008F058FDF4
:104780005022B54B9A63596B183A0A40B4490A60F3
:104790002100B44A61CA61C161CA61C121CA21C193
:1047A0001088088092788A702078002818D0A94A4A
:1047B00000210225555F0D262022002900D00DE39F
:1047C000854200D112E399690A42FCD11860217830
:1047D00001340D39484241412078C9B20028ECD15A
:1047E00023B0F0BCBB46B246A946A046F0BD9969CD
:1047F0000A4201D1FEF75DFE99690A42F7D1FEF740
:1048000058FE99690A42FCD161461960FEF74EFED6
:1048100099690A4201D1FEF77DFE99690A42F7D1F2
:10482000FEF778FE99690A42FCD161461960FEF7ED
:104830006EFE99690A4201D1FEF79BFE99690A4210
:10484000F7D1FEF796FE99690A42FCD161461960DC
:10485000FEF78CFE99690A4201D1FEF7B2FE996912
:104860000A42F7D1FEF7ADFE99690A42FCD16146D2
:104870001960FEF7A3FE99690A4201D1FEF7DBFE3B
:1048800099690A42F7D1FEF7D6FE99690A42FCD12E
:1048900061461960FEF7CCFE99690A4201D1FEF724
:1048A000F2FE99690A42F7D1FEF7EDFE99690A42D4
:1048B000FCD161461960FEF7E3FE99690A4201D115
:1048C000FEF75DFF99690A42F7D1FEF758FF996933
:1048D0000A42FCD161461960FEF74EFF99690A420F
:1048E00001D1FEF794FF99690A42F7D1FEF78FFFD5
:1048F00099690A42FCD161461960FEF785FF996902
:104900000A4201D1FEF7C2FF99690A42F7D1FEF7C8
:10491000BDFF99690A42FCD161461960FEF7B3FFF9
:1049200099690A4201D1FEF7E4FF99690A42F7D179
:10493000FEF7DFFF99690A42FCD161461960FEF774
:10494000D5FF99690A4201D1FFF701F899690A4236
:10495000F7D1FEF7FCFF99690A42FCD16146196064
:10496000FEF7F2FF99690A4201D1FFF723F899692E
:104970000A42F7D1FFF71EF899690A42FCD1614655
:104980001960FFF714F899690A4201D1FFF74AF854
:1049900099690A42F7D1FFF745F899690A42FCD1B3
:1049A00061461960FFF73BF899690A4201D1FFF7A8
:1049B00076F899690A42F7D1FFF771F899690A42C6
:1049C000FCD161461960FFF767F899690A4201D185
:1049D000FFF78DF899690A42F7D1FFF788F89969CE
:1049E0000A42FCD161461960FFF77EF899690A42D4
:1049F00001D1FFF7D0F899690A42F7D1FFF7CBF858
:104A000099690A42FCD161461960FFF7C1F89969BA
:104A10000A4201D1FFF7F2F899690A42F7D1FFF78C
:104A2000EDF899690A42FCD161461960FFF7E3F895
:104A300099690A4201D1FFF719F999690A42F7D138
:104A4000FFF714F999690A42FCD161461960FFF732
:104A50000AF9C0460C3E0020008003409CA90210C9
:104A600034900340ACA9021099690A4201D1FFF7C2
:104A700028F999690A42F7D1FFF723F999690A429F
:104A8000FCD161461960FFF719F999690A4201D111
:104A9000FFF73FF999690A42F7D1FFF73AF99969A7
:104AA0000A42FCD151461960FFF730F999690A4270
:104AB00001D1FFF76BF999690A42F7D1FFF766F95F
:104AC00099690A42FCD161461960FFF75CF999695E
:104AD0000A4201D1FFF78FF999690A42F7D1FFF72E
:104AE0008AF999690A42FCD161461960FFF780F999
:104AF00099690A4201D1FFF7B3F999690A42F7D1DE
:104B0000FFF7AEF999690A42FCD161461960FFF7D7
:104B1000A4F999690A4201D1FFF7D5F999690A42C6
:104B2000F7D1FFF7D0F999690A42FCD159461960CB
:104B3000FFF7C6F999690A4201D1FFF7F7F99969B8
:104B40000A42F7D1FFF7F2F999690A42FCD15146BE
:104B50001960FFF7E8F999690A4201D1FFF74EFAA7
:104B600099690A42F7D1FFF749FA99690A42FCD1DB
:104B700061461960FFF73FFA99690A4201D1FFF7D0
:104B800065FA99690A42F7D1FFF760FA99690A4212
:104B9000FCD161461960FFF756FA99690A4201D1C2
:104BA000FFF793FA99690A42F7D1FFF78EFA9969EC
:104BB0000A42FCD161461960FFF784FA99690A42FA
:104BC00001D1FFF7B3FA99690A42F7D1FFF7AEFABC
:104BD00099690A42FCD161461960FFF7A4FA996904
:104BE0000A4201D1FFF7CAFA99690A42F7D1FFF7E1
:104BF000C5FA99690A42FCD161461960FFF7BBFA10
:104C000099690A4201D1FFF7F6FA99690A42F7D188
:104C1000FFF7F1FA99690A42FCD161461960FFF782
:104C2000E7FA99690A4201D1FFF71DFB99690A4227
:104C3000F7D1FFF718FB99690A42FCD16146196068
:104C4000FFF70EFB99690A4201D1FFF736FB99691C
:104C50000A42F7D1FFF731FB99690A42FCD161465C
:104C60001960FFF727FB99690A4201D1FFF74DFB55
:104C700099690A42F7D1FFF748FB99690A42FCD1CA
:104C800061461960FFF73EFB99690A4201D1FFF7BF
:104C900091FB99690A42F7D1FFF78CFB99690A42A7
:104CA000FCD161461960FFF782FB99690A4201D184
:104CB000FFF7AEFB99690A42F7D1FFF7A9FB9969A3
:104CC0000A42FCD161461960FFF79FFB99690A42CD
:104CD00001D1FFF7C5FB99690A42F7D1FFF7C0FB85
:104CE00099690A42FCD161461960FFF7B6FB9969E0
:104CF0000A4201D1FFF7DCFB99690A42F7D1FFF7BD
:104D0000D7FB99690A42FCD161461960FFF7CDFBD8
:104D100099690A4201D1FFF700FC99690A42F7D16B
:104D2000FFF7FBFB99690A42FCD161461960FFF766
:104D3000F1FB99690A4200D120E499690A42F8D14D
:104D40001CE499690A42FCD161461960FFF713FC23
:104D500099690A4200D137E499690A42F8D133E4EB
:104D600099690A42FCD1614619602AE499690A42AC
:104D700000D155E499690A42F8D151E499690A428F
:104D8000FCD16146196048E499690A4200D173E494
:104D900099690A42F8D16FE499690A42FCD16146E7
:104DA000196066E499690A4200D18BE499690A4264
:104DB000F8D187E499690A42FCD1614619607EE422
:104DC00099690A4200D1C3E499690A42F8D1BFE463
:104DD00099690A42FCD161461960B6E499690A42B0
:104DE00000D1F3E499690A42F8D1EFE499690A42E3
:104DF000FCD11E60E7E4C046F0B5DE4657464E469D
:104E00004546E0B5FE4C1022A54400210EA80AF04C
:104E100019F800220AACA44600200021F94B30AD5D
:104E20001A60F94BF94C634418605960F84B200044
:104E3000EA50F84B06321900994611F028FD20007F
:104E400012220021483009F0FDFFF34B0D2219001A
:104E50002000059311F01BFDF04AF149F1480EAB1B
:104E60000095FCF7C3F8F04AF049F1480EAB009505
:104E70009346FCF7BBF8EF4AEF49F0480EAB0095BC
:104E8000FCF7B4F8EE4EEF4F32003900EE480EABAF
:104E90000095FCF7ABF8ED493200ED480EAB0095FC
:104EA0008A46FCF7A3F8EB4932008846EA480EAB85
:104EB0000095FCF79BF832000EABE849E8480095F6
:104EC000FCF794F801220921200011F01DF85A4640
:104ED00041460EABE3480095FCF788F82022E249F2
:104EE000200011F0D4FCE14AE149E2480EAB009504
:104EF0000692FCF77BF8E04A3900E0480EAB0095DB
:104F00000492FCF773F85A46DD49DE480EAB009573
:104F1000FCF76CF80EAB32003900DB480095FCF76B
:104F200065F801220921200011F011F80222062162
:104F3000200010F0E9FFD54A0EAB9046D449D54881
:104F40000095FCF753F81622D349200011F09FFC7E
:104F50004246D249D2480EAB0095FCF747F83900DB
:104F6000D04AD1480EAB0095FCF740F84246CF49F5
:104F7000CF480EAB0095FCF739F80EAB3200390084
:104F8000CC480095FCF732F802220621200010F0F0
:104F9000DEFF0E22C849200011F079FC0D22059990
:104FA000200011F074FC0B22C449200011F06FFCAA
:104FB0005146C348069A0EAB0095FCF717F8390026
:104FC000C04AC1480EAB0095FCF710F8BF49C04A73
:104FD0008A46C0480EAB0095FCF708F80EAB3200CD
:104FE0005146BD480095FCF701F80D22BB49200051
:104FF00011F04DFC0E22BA49200011F048FC162297
:10500000B849200011F043FC01220921200010F0D2
:105010007BFF1622B449200011F039FC0222062140
:10502000200010F071FF39000EABB04AB048009577
:10503000FBF7DCFF49460622200011F028FC0EABEE
:1050400032003900AB480095FBF7D0FF012209215F
:10505000200010F07CFF02220621200010F077FFD4
:1050600001220921200010F04FFF39000EABA248A9
:10507000049A0095FBF7BAFF0B22A049200011F01B
:1050800006FC320039000EAB9D480095FBF7AEFFE1
:1050900001220921200010F05AFF9A493200894666
:1050A00099480EAB0095FBF7A1FF984F32003900ED
:1050B0000EAB97480095FBF799FF20009549FBF749
:1050C000F9FA5A46494694480EAB0095FBF78EFF15
:1050D0005A4639000EAB91480095FBF787FF200038
:1050E0008F49FBF7E7FA39004F4642468D480EAB31
:1050F0000095FBF77BFF8C4A8C498D480EAB0095E1
:10510000FBF774FF8B4A8C498C480EAB0095FBF77C
:105110006DFF320049460EAB89480095FBF766FFEC
:1051200013228849200011F0B2FB5A4649460EABC3
:1051300085480095FBF75AFF14228449200011F09E
:10514000A6FB320049460EAB814800950897FBF755
:105150004DFF2F227F49200011F099FB7E4F0EABAF
:1051600039007E4A7E480095FBF740FF1E227D49AC
:10517000200011F08CFB39000EAB7B4A7B48009578
:10518000FBF734FF24227A49200011F080FB39001C
:105190000EAB784A78480095FBF728FF1F22774925
:1051A000200011F074FB3900754A76480EAB00956B
:1051B000FBF71CFF744A754975480EAB00950792C2
:1051C0000991FBF713FF734B272219002000994622
:1051D00011F05DFB704A3900904670480EAB0095A7
:1051E000FBF704FF6E4B1E229A461900200011F0B7
:1051F0004EFB42466B4809990EAB0095D4E0C04681
:105200002CF0FFFF54370020980F00003C3C00209A
:10521000080F0000D0A9021020720210D8A90210B5
:1052200004AA02100CAA02105CB602102CAA0210EA
:1052300034AA021054AA02105CAA02106CAA02102E
:105240008CB6021094AA02109CAA0210C0AA0210E6
:10525000C8AA0210ECAA021010AB02103CAB02105C
:1052600058AB021084AB0210B0AB0210DCB30210DA
:10527000D4AB0210F4AB021020AC021024AC02102C
:1052800048AC021068AC021094AC021010EF02108F
:10529000B8AC0210CCAC0210F8AC021010AD021089
:1052A00024AD021050AD021054AD02107CAD0210BE
:1052B00094AD0210C0AD0210D86F0210E8AD02101C
:1052C000F4AD02101CAE021020AE02104CAE021063
:1052D00048AE021054AE02107CAE0210E86F02100D
:1052E0009CA90210A4AE0210BCAE0210D4AE0210F3
:1052F000D8AE021000AF021028AF021050AF02105B
:105300005CAF021084AF021098AF0210C0AF021061
:10531000D4AF021093FEFFFFFCAF021024B00210C6
:1053200070FEFFFF4CB0021068B0021080B0021097
:105330008CB00210A8B00210BCB00210D0B00210A5
:10534000ECB00210F493021008B10210F86F0210D2
:1053500024B1021040B1021080B1021070B10210ED
:10536000ACB10210C8B10210E8B10210F8B10210DD
:1053700014B202103CB2021048B2021064B2021021
:1053800084B2021094B20210B0B20210B8B202108D
:10539000E0B20210FCB2021024B302102CB30210CF
:1053A00048B3021068B30210FBF720FE42463900F2
:1053B0000EABFD480095FBF719FE2F22FB4920009C
:1053C00011F065FA0EAB3900F94AFA480095FBF77F
:1053D0000DFE49462722200011F059FA51461E229F
:1053E000200011F054FA424639000EABF248009505
:1053F000FBF7FCFD2822F149200011F048FAF04F9C
:105400000EAB3900EF48079A0095FBF7EFFD1B2222
:10541000ED49200011F03BFAEC4A390092460EAB00
:10542000EB480095FBF7E2FD49462722200011F0EA
:105430002EFA424639000EABE6480095FBF7D6FD42
:105440002522E549200011F022FAE44F0EAB390085
:10545000E348079A0095FBF7C9FD1A22E1492000AD
:1054600011F015FA524639000EABDF480095FBF7F4
:10547000BDFD1A22DD49200011F009FA424639002B
:105480000EABDB480095FBF7B1FD1C22D94920008B
:1054900011F0FDF9D84FD94A3900D9480EAB009523
:1054A000FBF7A4FDD74B132219002000079311F03E
:1054B000EEF939000EABD44AD4480095FBF796FDBF
:1054C0001722D349200011F0E2F90EAB3900D14A7E
:1054D000D1480095FBF78AFD0D220599200011F0B7
:1054E000D6F91522CD49200011F0D1F91522CC4969
:1054F000200011F0CCF91522CA49200011F0C7F99B
:10550000C94F0EAB3900C94AC9480095FBF76EFD7B
:105510001522C849200011F0BAF939000EABC64A6D
:10552000C6480095FBF762FD1522C549200011F021
:10553000AEF9C44A0EABC449C44800959146FBF786
:1055400055FD1522C249200011F0A1F9C14A0EAB48
:10555000C149C24800959046FBF748FD1422C04956
:10556000200011F094F91222BE49200011F08FF9A9
:10557000BD494A468A46BD480EAB0095FBF736FD4D
:105580000EAB4A463900BA480095FBF72FFD1222B0
:10559000B849200011F07BF91322B749200011F01F
:1055A00076F942463900B5480EAB0095FBF71EFD73
:1055B00042465146B2480EAB0095FBF717FDB14B82
:1055C000152219002000059311F061F9AE4B152248
:1055D00019002000099311F05AF91722AB49200055
:1055E00011F055F91722AA49200011F050F95A4636
:1055F000A849A9480EAB0095FBF7F8FC32000EABAA
:10560000A649A7480095FBF7F1FC1722A549200001
:1056100011F03DF9A44F5A4639000EABA34800954E
:10562000FBF7E4FC1722A249200011F030F9320008
:1056300039000EAB9F480095FBF7D8FC162006F00A
:105640002DFF9D4B1822190020000A9311F01FF91D
:105650009A4F18223900200011F019F9984B18229E
:10566000190020009A4611F012F9964B18221900E1
:1056700020000B9311F00BF9934B18221900200016
:105680000C9311F004F991495A4691480EAB0095DC
:105690008946FBF7ABFC8F495A4688468E480EABCD
:1056A0000095FBF7A3FC8D495A460EAB8C4800953C
:1056B0000D91FBF79BFC18228A49200011F0E7F8B6
:1056C0003200494688480EAB0095FBF78FFC32004C
:1056D000414686480EAB0095FBF788FC0EAB3200C6
:1056E00083480D990095FBF781FC18228149200021
:1056F00011F0CDF839001822200011F0C8F85146F9
:105700001822200011F0C3F818227B49200011F064
:10571000BEF818227949200011F0B9F8784F5A469E
:10572000390078480EAB0095FBF760FC5A464946B5
:1057300075480EAB0095FBF759FC5A4641460EAB37
:1057400072480095FBF752FC18227149200011F0B5
:105750009EF8320039006F480EAB0095FBF746FC0F
:10576000320049466C480EAB0095FBF73FFC0EAB90
:105770003200414669480095FBF738FC18220B9926
:10578000200011F084F81B226549200011F07FF8F9
:1057900018220A99200011F07AF818220C9920009A
:1057A00011F075F85F49BFE084B30210A0B3021096
:1057B000D0B30210E0B30210FCB3021018B4021010
:1057C00044B4021070B4021090B40210ACB40210D1
:1057D000B4B40210D4B40210F4B402101CB5021018
:1057E00044B5021068B5021084B50210A8B50210C5
:1057F000C4B50210E8B5021010B6021008B60210C7
:1058000030B602108071021058B6021060B6021055
:10581000E082021088B6021090B6021010730210D7
:1058200028730210B8B602105C7302107C7202106A
:10583000D0B60210F0B60210D872021008B70210EB
:1058400028B7021040B7021044B7021058B7021030
:1058500078B7021090B7021094B70210A8B70210E0
:10586000C8B70210E0B7021080720210F4B702103D
:1058700014B8021034B8021048B802105CB8021014
:105880007CB8021028700210107002109CB8021030
:10589000B4B80210CCB80210E4B8021004B9021077
:1058A0001CB902103CB9021054B902106CB90210B4
:1058B0008CB90210A4B90210C4B90210E0B90210E8
:1058C000FCB9021018BA021034BA021050BA021011
:1058D00068BA021088BA0210A0BA0210C0BA021048
:1058E000D8BA0210F8BA021014BB021034BB02106E
:1058F00054BB021074BB021090BB0210ACBB021070
:10590000C8BB0210E0BB0210FCBB021018BC0210A6
:1059100034BC021050BC02106CBC021088BC0210D7
:10592000A4BC0210C4BC0210FE4A8A46FE480EAB5C
:1059300000950A92FBF75AFB5A4639000EABFB481A
:105940000095FBF753FB1B22F949200010F09FFF45
:10595000F84A51469046F8480EAB0095FBF746FBD7
:105960000EAB32003900F5480095FBF73FFB1822DB
:10597000F349200010F08BFF1822F249200010F0AC
:1059800086FFF14FF14839000A9A0EAB0095FBF7FC
:105990002DFB5A4649460EABED480095FBF726FB1A
:1059A0001B22EC49200010F072FF42463900EA4801
:1059B0000EAB0095FBF71AFB320049460EABE748E9
:1059C0000095FBF713FB0B22E549200010F05FFF69
:1059D000089F320039000EABE2480095FBF706FB4A
:1059E0001022E149200010F052FF5A4639000EAB58
:1059F000DE480095FBF7FAFA1022DD49200010F08E
:105A000046FF32003900DB480EAB0095FBF7EEFA9B
:105A10000EABD94AD949DA480095FBF7E7FA0F22CD
:105A2000D849200010F033FFD74F320039000EABB9
:105A3000D6480095FBF7DAFA0E22D549200010F07F
:105A400026FF5A463900D3480EAB0095FBF7CEFA35
:105A5000D14B0F2219002000089310F018FFCF4FF0
:105A6000320039000EABCE480095FBF7BFFA0E228C
:105A7000CC49200010F00BFF5A4639000EABCA4843
:105A80000095FBF7B3FA9620400007F0D1FB0EAB70
:105A9000C64AC749C7480095FBF7A8FA15220999D5
:105AA000200010F0F4FE15220599200010F0EFFE02
:105AB000C14B1522190020009A4610F0E8FE16226C
:105AC000BE49200010F0E3FE1622BD49200010F070
:105AD000DEFE1622BB49200010F0D9FE1622BA497C
