:020000041000EA
:1000000000B5324B212058609868022188439860DF
:10001000D860186158612E4B002199600221596106
:100020000121F02299502B49196001219960352056
:1000300000F044F80222904214D00621196600F024
:1000400034F8196E01211966002018661A6600F04E
:100050002CF8196E196E196E052000F02FF8012189
:100060000842F9D1002199601B49196000215960AB
:100070001A491B48016001219960EB211966A021F2
:10008000196600F012F800219960164914480160C1
:100090000121996001BC002800D000471248134993
:1000A000086003C880F30888084703B5996A0420EC
:1000B0000142FBD001200142F8D103BD02B5186610
:1000C0001866FFF7F2FF186E186E02BD00000240BE
:1000D000000000180000070000035F00212200005C
:1000E000F4000018222000A00001001008ED00E03C
:1000F00000000000000000000000000074B24E7A12
:1001000000200420F7010010C3010010C5010010F9
:10011000C1010010C1010010C1010010C101001097
:10012000C1010010C1010010C1010010C701001081
:10013000C1010010C1010010C9010010CB01001065
:10014000CD010010CD010010CD010010CD01001037
:10015000CD010010CD010010CD010010CD01001027
:10016000CD010010CD010010CD010010CD01001017
:10017000CD010010CD010010CD010010CD01001007
:10018000CD010010CD010010CD010010CD010010F7
:10019000CD010010CD010010CD010010CD010010E7
:1001A000CD010010CD010010CD010010CD010010D7
:1001B000CD010010CD010010CD010010CD010010C7
:1001C00000BE00BE00BE00BE00BE00BEEFF3058054
:1001D000103800BEF2EB8871988D0310B88D0310B3
:1001E0003802001090A31AE71E481F49086006C88D
:1001F00081F3088810471D480068002801D019487D
:10020000F3E70DA40ECC002902D000F012F8F9E7B4
:100210001749184A002000E001C19142FCD116495B
:100220008847164988471649884700BEFDE701C937
:1002300001C29A42FBD37047B88D0310C000002062
:10024000442100203CAE03100000042000000420E4
:100250003CAE031000100420001004200000000039
:10026000704700000000000008ED00E0000000D032
:1002700044210020303E002011070110C908001061
:10028000D1060110F8B5C04606480749091A8B1077
:10029000C90FC91810B5491003D0044B002B00D06A
:1002A000984710BD44210020442100200000000098
:1002B000054B10B5002B03D00449054800E000BFF2
:1002C000FFF7E2FF10BDC0460000000034330020FD
:1002D000D45C0210F0B5DE4657464E464546E0B5C2
:1002E000644C83B0A369DB061DD45C23624F1025E8
:1002F000FE5C624B02229B5E0093614B9B46A369AE
:100300001D42FCD12168CAB2BA55A3699B064AD5E1
:100310000136F6B20A2A54D00D2A0BD0A3691D4229
:10032000EDD05C23FE5403B0F0BCBB46B246A946F8
:10033000A046F0BD524B9846524B9A464346524611
:100340009B5899460B2B1DDC8C224346D2009B58B0
:1003500001930C2B75D05C2058435C22390040443B
:100360000EF062FD8A21019AC90013008C464344B5
:1003700063441E70531C4246103153504B46514645
:10038000013353500A200A22A3699B0601D5002697
:10039000C4E7009B93424CD02022A3691A42FCD1AF
:1003A00000262060BAE7FF20009B0840834213D05C
:1003B0002021A3691942FCD101362060F6B20A2A35
:1003C000AAD1304B9A465B4652469B5898460B2B17
:1003D0000EDD0D200D22D7E7202390469C462549AF
:1003E00062468B691A42FBD10D2342460B60DFE760
:1003F0008C225B46D2009B5899460C2B2ED04B4644
:100400005C2058435C22390058440EF00DFD8A22CE
:100410005B46D20094464B4463441E704B465A469A
:1004200001338C21C9005350434651460133535088
:10043000CFE720210F4A93691942FCD10D231360A5
:10044000AAE75C22390040460EF0EEFC8A234246C1
:100450008C21DB00D654C90001238EE75C223900D1
:1004600058460EF0E1FC8A235A46DB00D65401239D
:10047000D7E7C04600800340DC3B00200C3E002054
:100480006C3700206404000010B53C3015F094FA7D
:1004900010BDC04630B505003C3583B004002800CF
:1004A00015F0A5FA6A460023911D2800D38015F0A7
:1004B0007BFB6B4606229B5E002B01D003B030BD58
:1004C0000021200015F0FCFB4007F7D50422002195
:1004D000200015F028FDE36A002BEFD01B68002BED
:1004E000ECD0002120009847E8E7C04670B5040032
:1004F00082B0002915D0002813D0050000263C3515
:100500000E80280015F0DDFA6B462800991DDE806C
:1005100015F04AFB6B4606229B5E002B04D001209F
:1005200000E0002002B070BD0021200015F0C8FBE3
:100530004007F4D504220021200015F0F4FCE36A02
:10054000002BECD01B68002BE9D00021200098473D
:100550000120E7E700B583B06A460023911D3C30D7
:10056000D38015F021FB6B460620185E03B000BD5A
:10057000F0B5050083B06B463C35998004000E0051
:10058000280001A915F064FA071E00D17CE0B5B27D
:100590002B00C7339BB2632B23D8202202212000DB
:1005A00015F09EFC3E4BEB189BB2632B52D8802279
:1005B0000221200015F094FC04220021200015F0F7
:1005C0008FFCE36A002B05D01B68002B02D03100A2
:1005D00020009847002F48D038230122E25403B06E
:1005E000F0BD2B002C33FF339BB2632B0FD81022AE
:1005F0000221200015F074FC2A4BEB189BB2632BF0
:1006000010D802220221200015F06AFCD4E72B004A
:100610009033FF339BB2632B10D8082202212000B5
:1006200015F05EFC204B9C466544ADB2632DC3D8EB
:1006300001220221200015F053FCBDE72B00F4330A
:10064000FF339BB2632BADD804220221200015F0AA
:1006500047FCB1E7154BEB189BB2632BCCD840227B
:100660000221200015F03CFCA6E704220021200016
:1006700015F036FCE36A002BAED01B68002BABD024
:1006800020000B499847A7E701A9280015F050FA68
:100690006A46074B280001A9938015F0D9F976E73F
:1006A000570200001F03000083030000BB0200008C
:1006B000A2FEFFFF10B500230022FFF759FF10BD77
:1006C000C8239B009C46604480B2984203D8034BE9
:1006D0008000C05870470248FCE7C04674FD021015
:1006E000D85C021010B582B00721204801AA08F09A
:1006F00045F9002835D101991D4C20000CF08AFEE7
:10070000022108200BF088FE022109200BF084FE54
:10071000019920000CF020FFC022236B120213402D
:10072000144A200013600821002301220CF06EFF00
:10073000200000210CF0A6FF15200F490BF0F4FF5C
:10074000012115200BF0B4FF5023A363626B183B0B
:1007500013400A4A002113605C22094B995402B0ED
:1007600010BD9621C9010191C6E7C046F72E0020B1
:100770000080034030900340D502001034900340C5
:10078000DC3B002030B5D024474D83B02406280040
:100790000BF090FE236A5D40444B1D40E56213F070
:1007A00031FB12F0D9FD0222414B1A201A600BF0E6
:1007B00061FE8023DB04A362002200211A200BF0DB
:1007C00045FE1B200BF056FE80231B05A362002272
:1007D00000211B200BF03AFE1D200BF04BFE802366
:1007E0009B050021A36200221D200BF02FFE802319
:1007F0001B03A36108F0CEFC0400010000200AF0F6
:10080000B9F9002C36D1032007F0C2FC2949041C99
:100810000EF02CFA0021002809D18121201CC905E5
:100820000EF016FA01004B1E994101235940012098
:100830000AF0A0F9042007F0ABFC1F490EF016FAED
:100840000100D0244B1E99418025012302205940EC
:100850002406ED020AF08EF96561022117486562EF
:1008600001AA08F08BF8002802D1019B002B0AD0C6
:1008700003B030BD07F072FF43425841C1B20420BB
:100880000AF078F9BFE70E4B15221B6801219B681F
:10089000A5610C481DF0D6FA64200CF0B5FC64206C
:1008A00065610CF0B1FCE3E703FC4F3E03FC4B3EFB
:1008B00000E004400000C04000007042FE2E002016
:1008C000E41F0020E85C0210F0B5DE464E464546C7
:1008D0005746E0B59FB010F08FF846240AF000FBB1
:1008E0000D2606F0C1F8FFF74DFFFFF7FBFE0021D4
:1008F00020226A4B6A4802255D5F6A4B002900D0BE
:10090000A3E0A54200D1A8E099690A42FCD11C608D
:10091000017801300D394C4261410478C9B2002C94
:10092000ECD1614B012298461B686049986801230D
:100930001DF0DEF90DF0B6F8C8230093002800D0B2
:10094000A4E0002501215A480DF01AF8594C5A4BE1
:100950003022E5500433E550584B00212000E5508B
:100960000EF05CFA5C22564B00269D540023019346
:10097000544B37009B46544BD9460593534B049335
:10098000D0231B069A460CF0F1FF0A200CF03CFC29
:100990000135009BADB20137AB4209D2019B002B60
:1009A00060D18022534692045A61012300250193AD
:1009B000474B9F4260D0414EA359002BE3DD3E4B95
:1009C00002959B4603975B465C27E5585C226F4384
:1009D000E719390007A80EF027FA8A23DB009C46A6
:1009E000651965445C22002138002D780EF016FA56
:1009F0005B46E0580C2101300DF09EF95B46E1505A
:100A00008A21A359C9008C46E2188027013BA351D3
:100A1000002153466244BF04117005982A009F616B
:100A200007A915F020FF43461B680499986807AA98
:100A30001DF05EF932200CF0E7FB53465F61A359CD
:100A4000002BC0DC029D039F9DE799690A4200D1FB
:100A50005DE799690A42F8D159E799690A42FCD1E0
:100A60001E6051E78022534692049A61002301934D
:100A7000174B00259F429ED143461B680122986870
:100A8000494601231DF034F9002794E70021032093
:100A90000AF070F83223009353E7C0460C3E002062
:100AA000005D021000800340E41F0020085D02107A
:100AB000881300006C3700205C0400006404000010
:100AC000DC3B0020205D02103C3C0020445D021015
:100AD000DD050000F0B5DE464E4645465746E0B51A
:100AE000AFB0399E9B4633686A4C013333600023B4
:100AF0009046694A8146080013600F0023701EF07B
:100B000045F8664B0200390018003A9D15F0ABFE1F
:100B1000200063490FAA1DF0DFF9012800D09CE0F6
:100B2000604B380060499A460F9C1DF07DFE0028FE
:100B300000D1A6E0211C201C0EF044F8041C0F90EC
:100B4000404638990EF03EF85946071C40460EF0D4
:100B500036F88046201C0EF0C7F8089009914046F0
:100B60000EF0C2F80A900B91381C0EF0BDF80C90F4
:100B70000D91211C381C0EF06BF8002805D1404661
:100B8000211C0EF073F800284ED00C9B0D9C069390
:100B900007940A9B0B9C04930594444B7821444A88
:100BA000029310A8089B099C009301944B460FF0F8
:100BB000E1FC53461B683F4C3F49986810AA1DF062
:100BC00097F82B5978221801C01AC00010A92818CC
:100BD0001DF01CFC1F222B590133D917C90E5B18BD
:100BE00013405B1A35492B516958002911D1F02265
:100BF0001201AA58934202D10122304BEA50B36845
:100C00000133B3602FB0F0BCBB46B246A946A04644
:100C1000F0BDF024240129590131C817C00E09186C
:100C20000A40121A2A51E5E753461B684A4698685B
:100C30000C9B0D9C069307940A9B0B9C04930594B4
:100C40001A4B1F490293089B099C009301941DF0C5
:100C50004FF8736801337360D4E7124B22009A4651
:100C60001B681849D8681DF043F8F368164C013327
:100C700038000D49F3600F941DF0D6FD002800D018
:100C800058E7380011491DF0CFFD002800D051E78A
:100C900056E7C04654330020543700203C3C002027
:100CA000286E0210E41F002070750210946E02106E
:100CB000646E0210040F0000F8F70210080F000025
:100CC000986E02102C6E0210E1FAC7C25C6E021020
:100CD000F8B54546DE4657464E463B4AF023904619
:100CE0003A4AE0B593463A4A050092461B01C45879
:100CF000384BC3589C4203D1374BEB58002B43D0A1
:100D00002201121BD2005B4691461B68A9449868D9
:100D10004A4641461CF0ECFF4B461E78002E4ED052
:100D20000D272B4B002002229A5E202194464A4632
:100D3000B9462A4B00282DD1B44532D098690142DA
:100D4000FCD11E60107801320D3846427041167891
:100D5000C0B2002EEED163460A2B28D020211F4AB4
:100D600093691942FCD10A2313601F220134E3174F
:100D7000DB0EE4181440E41A164BEB58A342B9D129
:100D8000154AAA58002AB5D1F0BCBB46B246A946BE
:100D9000A046F8BD98690142D3D098690142F9D1C3
:100DA000CFE798690142FCD148461860C6E7202188
:100DB0000A4A93691942FCD10D231360CEE75346CA
:100DC00002229A5E9446C6E7F8F70210E41F00205C
:100DD0000C3E0020040F0000080F000000800340BC
:100DE000F0B5DE4657464E464546E0B5AFB03A9EB2
:100DF0009A4633686A4C0133336000239046694A4F
:100E00008146080013600F0023701DF0BFFE664B83
:100E10000200390018003B9D15F025FD20006349B4
:100E20000FAA1DF059F8012800D09CE0604B380053
:100E300060499B460F9C1DF0F7FC002800D1A6E0FE
:100E4000211C201C0DF0BEFE041C0F904046399959
:100E50000DF0B8FE3899071C40460DF0B0FE8046F4
:100E6000201C0DF041FF0890099140460DF03CFF19
:100E70000A900B91381C0DF037FF0C900D91211C3E
:100E8000381C0DF0E5FE002805D14046211C0DF070
:100E9000EDFE00284ED00C9B0D9C069307940A9BF8
:100EA0000B9C0493059453467821434A029310A85F
:100EB000089B099C009301944B460FF05BFB5B463B
:100EC0001B683E4C3E49986810AA1CF011FF2B5934
:100ED00078221801C01AC00010A928181DF096FA2F
:100EE0001F222B590133D917C90E5B1813405B1A07
:100EF00034492B516958002911D1F0221201AA5806
:100F0000934202D101222F4BEA50B3680133B36000
:100F10002FB0F0BCBB46B246A946A046F0BDF024B7
:100F2000240129590131C817C00E09180A40121AA4
:100F30002A51E5E75B461B684A4698680C9B0D9C66
:100F4000069307940A9B0B9C0493059453461E49F1
:100F50000293089B099C009301941CF0C9FE7368DE
:100F600001337360D4E7124B22009B461B6817497C
:100F7000D8681CF0BDFEF368154C013338000D49EC
:100F8000F3600F941DF050FC002800D058E73800A3
:100F900010491DF049FC002800D051E756E7C04633
:100FA00054330020543700203C3C0020286E0210AF
:100FB000E41F002070750210646E0210040F000020
:100FC000F8F70210080F0000986E02102C6E021045
:100FD000E1FAC7C25C6E0210F0B5D6464F461E005D
:100FE00080B51B68A1B0013333600023424F9146A6
:100FF000424A8246080013600C003B701DF0C6FD9B
:101000003F4B02002100180015F02DFC38001DF0A8
:10101000BDFD00286DD03900002538180C780D2C46
:1010200003D00A2C01D07C55013501318842F5D11D
:101030007D1900232B700CF099FC390048461DF0F7
:1010400059FD00280FD12F4B52461B682E49986836
:101050003B001CF04DFE73680133736021B0C0BCCF
:10106000BA46B146F0BD4B467821284A0093019715
:10107000534602A80FF07EFA224B25491B6802AAAC
:1010800098681CF035FE234C289B78221B5902A936
:101090001801C01A289BC0009C4660441DF0B6F998
:1010A0001F22289B28981B590133D917C90E5B189A
:1010B00013405B1A28990B511749415800290CD14C
:1010C000F02212018258934203D10122124B289937
:1010D000CA50B3680133B360C0E7F024240101595A
:1010E0000131C817C00E09180A402899121A0A516E
:1010F000E9E73D009DE7C046543300205437002007
:101100003C3C0020E41F0020C86E0210E46E021078
:10111000F8F70210040F0000080F0000F0B5D646E3
:101120004F461E0080B51B68A1B001333360002319
:10113000424F9146424A8246080013600C003B70C1
:101140001DF024FD3F4B02002100180015F08BFB21
:1011500038001DF01BFD00286DD03900002538181F
:101160000C780D2C03D00A2C01D07C5501350131AF
:101170008842F5D17D1900232B700CF0F7FB49460E
:1011800038001DF051FB00280FD02F4B52461B6832
:101190002E4998683B001CF0ABFD73680133736007
:1011A00021B0C0BCBA46B146F0BD4B467821284AB2
:1011B00000930197534602A80FF0DCF9224B254912
:1011C0001B6802AA98681CF093FD234C289B782288
:1011D0001B5902A91801C01A289BC0009C466044F4
:1011E0001DF014F91F22289B28981B590133D91789
:1011F000C90E5B1813405B1A28990B5117494158C7
:1012000000290CD1F02212018258934203D101220D
:10121000124B2899CA50B3680133B360C0E7F02479
:10122000240101590131C817C00E09180A40289934
:10123000121A0A51E9E73D009DE7C04654330020E9
:10124000543700203C3C0020E41F0020C86E0210F0
:10125000E46E0210F8F70210040F0000080F0000FF
:1012600030B5224C1025A36983B0DB0604D50CF001
:101270007DFBA3691D42FAD110221C4914008B6921
:101280001C401A42FAD10A22086801ABC0B2187099
:101290005A709C70002813D01C0005000023002BFE
:1012A00010D02021114A93691942FCD1156023788E
:1012B00001340D3B5A4253412578DBB2002DEED16B
:1012C00003B030BD0A4B02229B5EAB4205D0202109
:1012D000064A93691942FCD1E8E72021034A936941
:1012E0001942FCD10D231360F1E7C0460080034092
:1012F0000C3E0020F0B54E46DE4645465746E0B56A
:10130000F84C1022A54418910500002122A80DF0E8
:1013100085FD0022F44B1CAC1A60FA23A446002081
:1013200000211B01634418605960F04BA030211864
:10133000CA50EF4B012117931B6818329B6826ACEB
:10134000EC481CF07FFD2200EB4B43CB43C243CB68
:1013500043C21B8813802678002E1FD0E74B0D2137
:101360000227DF5F002398468C462000202241465A
:10137000E34B002901D001F097FDB74201D101F004
:101380009DFD99690A42FCD11E60017801300D393A
:101390004E4271410678C9B2002EEAD10023209353
:1013A000189B012B18D901233022002120A813F00B
:1013B000DBFE179BD3491B68209A98681CF098FCA9
:1013C000290020981DF030FA002801D101F01DFEFF
:1013D0000178CD480FF0E8FBCC4D0E22CC49280017
:1013E00015F041FA64200BF00FFF0D22C9492800C7
:1013F00015F039FAFA2040000BF006FFC64B142214
:1014000019002800199315F02EFAC44B1522190063
:1014100028009B4615F027FAC14B15221900280019
:101420009A4615F020FABF4B1522190028000593A3
:1014300015F019FABC4B1622190028001E9315F05E
:1014400012FABA4B1622190028001F9315F00BFA56
:101450001622B749280015F006FA1622B5492800C9
:1014600015F001FA1622B449280015F0FCF91722EC
:10147000B249280015F0F7F9B14B172219002800DE
:101480000E9315F0F0F91722AE49280015F0EBF98C
:101490001722AD49280015F0E6F91722AB492800BC
:1014A00015F0E1F9AA4B182219002800069315F04F
:1014B000DAF91822A749280015F0D5F9A64B13220E
:1014C00019002800079315F0CEF9A44B1322190038
:1014D0002800089315F0C7F9A14A10001322010053
:1014E0000990280015F0BFF99E4A280016001B92AB
:1014F00031000E2215F0B7F99B4A280016001C9205
:101500003100122215F0AFF9984A280016001D92FA
:101510003100132215F0A7F9954A280016001592FC
:101520003100122215F09FF915229249280015F07A
:101530009AF90D229049280015F095F9FA200BF040
:1015400063FE8E4A8E4E914644AA039222AA0292CC
:101550008C4A8D49330090468C48019200924A464D
:101560000491FFF73DFC59461522280015F07BF940
:1015700051461522280015F076F9152284492800D5
:1015800015F071F9834F44AB3900834A83480093C7
:1015900022ABFFF721FD15228149280015F063F9E0
:1015A00044AB39007F4A8048009322ABFFF714FD1B
:1015B00015227E49280015F056F915227C4928008D
:1015C00015F051F915227B49280015F04CF97A4F96
:1015D00044AB3900794A7A48009322ABFFF7FCFC10
:1015E00015227849280015F03EF944AB3900764AB7
:1015F0007648009322ABFFF7EFFC594615222800EE
:1016000015F031F951461522280015F02CF9152254
:101610000599280015F027F96D4B182219002800AC
:101620000B9315F020F96B4F6B4A44AB39006B48B4
:10163000009322AB1692FFF7CFFC182206992800E0
:1016400015F011F9664A44AB39006648009322ABA5
:101650001A92FFF7C1FC16226349280015F003F91E
:1016600015226249280015F0FEF8614B142219007A
:1016700028000D9315F0F7F85E4A3300934644AA0C
:10168000039222AA02925A465B4804990192009260
:10169000FFF7A6FB13220799280015F0E4F844AAE7
:1016A000039222AA554F0292554A3300924655485A
:1016B0000499019700924A46FFF792FB152252497E
:1016C000280015F0D0F8514A1000142201000A90A9
:1016D000280015F0C8F844AA039222AA02925A469A
:1016E000330095E0DCEFFFFF54370020080F0000C7
:1016F000E41F00200C6F0210286F02100C3E002027
:1017000000800340446F02105C6F02103C3C0020DC
:10171000A46F0210B46F0210C46F0210DC6F0210CD
:10172000F46F02100C700210247002103C70021052
:10173000547002106C700210847002109C700210C1
:10174000B4700210CC700210E4700210FC70021031
:1017500014710210307102104C710210607102108D
:10176000747102108871021098710210AC7102102D
:10177000C0710210D4710210EC7102100000A04080
:1017800070D002109A99993EFC71021010720210EA
:10179000307202104C720210487202105C72021019
:1017A0008C720210A4720210A8720210DC72021075
:1017B000F47202100C7302102873021024730210CA
:1017C0003873021068730210807302108473021061
:1017D000B8730210D473021028B60210EC73021012
:1017E00058B602101C7402104C740210647402107B
:1017F0007C740210CDCC4C3E94740210CDCC4C3F86
:10180000CDCCCC3ED07402100C75021024750210A1
:10181000FE48049901920092FFF7E2FA1322089918
:10182000280015F020F844AA039222AA02925246F8
:101830003300F7480499019700924A46FFF7D0FA1F
:101840001522F449280015F00EF8F34A2800130079
:101850000C921900142215F006F844AA039222AA49
:1018600002925A463300ED48049901920092FFF724
:10187000B7FA13220999280014F0F5FF01200BF0A4
:10188000C3FC44AA039222AA029252463300E448BF
:101890000499019700924A46FFF7A2FA1722E149FC
:1018A000280014F0E0FF44AA039222AA02924246C2
:1018B00001925246DC4F33003900DC4800924A4620
:1018C000FFF78EFA1522DA49280014F0CCFF112216
:1018D000D849280014F0C7FF44AA039222AA029212
:1018E0005A460192524633003900D3480092D34AF7
:1018F000FFF776FA1422D249280014F0B4FF44AA64
:10190000039222AA0292FA22CE4B39000193CE4BC7
:10191000CE48009392053300FFF762FA17220E9922
:10192000280014F0A0FF15220599280014F09BFF51
:101930000F200BF069FC44AA039222AA02924246AD
:10194000019252463300C249C24800924A46FFF70C
:1019500047FA18220B99280014F085FF0F200BF08E
:1019600053FC44AA039222AABB4F0292BB4ABC4B2F
:10197000BC49BD48019200923A1CFFF731FABB4ABC
:101980003B1C904644AA029222AA4146B8480192C2
:101990000097B84AFFF79EF821AAB749B7481CF04C
:1019A0009BFA21980DF0A0F90B000200B449200029
:1019B0000EF0CAFD20001DF0E9F821000200280009
:1019C00014F051FF44AA029222AA01924A464B46C1
:1019D0004146AC480092A74AFFF77CF818220699C6
:1019E000280014F040FF1822A749280014F03BFFFC
:1019F00018220B99280014F036FF1522A34928005D
:101A000014F031FF14220A99280014F02CFF44AA84
:101A1000039222AA02925A460192524633009C48EF
:101A2000049900929B4AFFF7DBF9132208992800DA
:101A300014F019FF18220699280014F014FF15223B
:101A40000599280014F00FFF14220D99280014F0B6
:101A50000AFF914E15223100280014F004FF8F4B2D
:101A6000162219002800049314F0FDFE0F200BF03D
:101A7000CBFB44AB029322AB0193894B41469A4680
:101A8000884800933A1C4B46FFF724F8864B1522F2
:101A9000190028000E9314F0E6FE844B162219005C
:101AA00028000F9314F0DFFE0F200BF0ADFB44ABCA
:101AB000029322AB0193534641467D4800933A1C62
:101AC0004B46FFF707F831001522280014F0CBFE33
:101AD0000F200BF099FB44AB029322AB01935B46C2
:101AE0000022009341467348FEF7F4FF1322079942
:101AF000280014F0B8FE704B15221900280010932E
:101B000014F0B1FE31001522280014F0ACFE1622AC
:101B10000499280014F0A7FE0F200BF075FB44ABCE
:101B2000029322AB019353464146644800933A1C0A
:101B30004B46FEF7CFFF15220E99280014F093FEB6
:101B400016220F99280014F08EFE0F200BF05CFB7C
:101B500044AB029322AB019353464146584800934D
:101B60003A1C4B46FEF7B6FF31001522280014F050
:101B70007AFE0F200BF048FB44AB029322AB01939B
:101B80005B460022009341464E48FEF7A3FF152214
:101B90000599280014F067FE18220B99280014F00C
:101BA00062FE15224849280014F05DFE16224749BE
:101BB000280014F058FE1E200BF026FB44AB0293C5
:101BC00022AB41464248434A01930097424BFEF7FD
:101BD00081FF15224149280014F045FE1E200BF01C
:101BE00013FB44AB029322AB01935B4600220093AC
:101BF00041463B48FEF76EFF15221099280014F06D
:101C000032FE14220D9928006CE0C0463C7502108B
:101C100078750210B4750210CC750210E4750210CC
:101C2000207602105C76021074760210887602101C
:101C3000A8760210C0760210D47602100000404050
:101C4000FC7602100AD7A33D0AD7A33C14770210F2
:101C50004077021050770210000048420000E04038
:101C60008C77021090770210A0770210D4770210C0
:101C7000E47702100000FA43286E0210543300206B
:101C80002478021040780210807802109C780210AC
:101C9000B478021000002040E878021000790210A9
:101CA0000000A041187902104879021060790210F2
:101CB00078790210A8790210DC790210F479021008
:101CC000247A0210547A0210887A0210A07A021044
:101CD000B87A021000007A4300007041EC7A0210DA
:101CE000047B021014F0BFFD1622FE49280014F0F8
:101CF000BAFD44AB029322AB4146FB48FB4A019339
:101D00000097FB4BFEF7E6FE1522FA49280014F077
:101D1000AAFD44AB029322AB01935B4600220093E1
:101D20004146F548FEF7D6FE13220799280014F025
:101D30009AFD18222800069914F095FD002300262C
:101D40009946EE4B0493EE4B0593EE4B1093EE4BFE
:101D50009B46EE4B1193EE4B0693EE4B1293EE4BDC
:101D60000793EE4B1393EE4B0B93EE4B1493EE4B0A
:101D70000D93EE4B0E93EE4B0F9315220499280012
:101D800014F071FD33003200059920000EF0DCFBE9
:101D900020001CF0FBFE21000200280014F063FD6F
:101DA0004B460A221099009620000EF0CDFB44AB62
:101DB000029322AB0193DF4B41469A462000DE4A54
:101DC0000093DE4BFEF786FE3200594620000EF0EF
:101DD000BBFB20001CF0DAFE21000200280014F0FA
:101DE00042FD4B460A2211990133009620000EF065
:101DF000ABFBD34F44AB029322AB00224146200001
:101E0000019300973B1CFEF765FE32000699200007
:101E10000EF09AFB20001CF0B9FE21000200280001
:101E200014F021FD4B460A2212990233009620003D
:101E30000EF08AFB44AB029322AB0193534641461A
:101E40002000BD4A0093BD4BFEF744FE32000799C7
:101E500020000EF079FB20001CF098FE210002000B
:101E6000280014F000FD4B460A2213990333009614
:101E700020000EF069FB44AB029322AB00224146E6
:101E80002000019300973B1CFEF724FE32005946C8
:101E900020000EF059FB20001CF078FE210002000B
:101EA000280014F0E0FC15220B99280014F0DBFC4C
:101EB00014220C99280014F0D6FC33003200059946
:101EC00020000EF041FB20001CF060FE210002000B
:101ED000280014F0C8FC4B460A22149904330096DB
:101EE00020000EF031FB44AB029322AB019353462A
:101EF00041462000904A0093904BFEF7EBFD3200E4
:101F0000594620000EF020FB20001CF03FFE21006F
:101F10000200280014F0A7FC4B460A220D99053355
:101F2000009620000EF010FB44AB029322AB00227F
:101F300041462000019300973B1CFEF7CBFD320089
:101F4000069920000EF000FB20001CF01FFE21006F
:101F50000200280014F087FC4B460A220E99063333
:101F6000009620000EF0F0FA44AB029322AB0193EE
:101F7000534641462000704A0093704BFEF7AAFD7D
:101F80003200079920000EF0DFFA20001CF0FEFD61
:101F900021000200280014F066FC08224B469446FB
:101FA0000F990733009602322000E1440EF0CCFA7C
:101FB00044AB029322AB00224146200001930097DC
:101FC0003B1CFEF787FD3200594620000EF0BCFA9C
:101FD00020001CF0DBFD21000200280014F043FC6F
:101FE000013613222800099914F03DFC082E00D078
:101FF000C3E615220B99280014F035FC514E172228
:102000003100280014F02FFC44AB029322AB019363
:10201000534641464C48484A0093484BFEF75AFD08
:102020004A4B1222190028009B4614F01CFC44ABBA
:10203000029322AB002241464548019300973B1C86
:10204000FEF748FD17223100280014F00CFC44ABC9
:10205000029322AB0193534641463E48364A0093D1
:10206000364BFEF737FD3C4B1222190028009946EB
:1020700014F0F9FB44AB029322AB002241463748EF
:10208000019300973B1CFEF725FD152204992800BB
:1020900014F0E9FB14220C99280014F0E4FB172239
:1020A0003100280014F0DFFB44AB029322AB019314
:1020B000534641462A48204A0093204BFEF70AFD2A
:1020C00059461222280014F0CEFB44AB029322ABF7
:1020D000002241462348019300973B1CFEF7FAFC7F
:1020E00042E0C046387B0210507B021000007A4369
:1020F00000007041847B02109C7B0210D07B021098
:10210000E87B0210047C02103C7C0210507C021020
:102110008C7C0210A47C0210E07C0210F47C021083
:10212000307D0210487D0210807D0210BC7D0210BF
:10213000F87D02100000A041000048420000A040CD
:10214000CDCC4C3E347E02104C7E0210847E0210B8
:10215000987E0210D47E02100C7F0210207F0210A5
:102160005C7F0210947F021017223100280014F0C7
:102170007AFB44AB029322AB019353464146FC48A1
:10218000FC4A0093FC4BFEF7A5FC494612222800AE
:1021900014F069FB44AB029322AB00224146F7489E
:1021A000019300973B1CFEF795FC13222800099928
:1021B00014F059FB002300279946F14B0593F14B8E
:1021C0000D93F14B9B46F14B0E93F14B0693F14B64
:1021D0000F93F14B0793F14B1093F14B0993F14B94
:1021E0000B93F14B1193F14B1293F14B1393F14B72
:1021F0001493F14B0C9315220499280014F033FB2F
:1022000014220A99280014F02EFB3B003A0005998D
:1022100020000EF099F920001CF0B8FC210002000B
:10222000280014F020FB1E200AF0EEFF4B460C2283
:102230000D99009720000EF087F944AB029322AB72
:102240000193DE4B41469A462000CA4A0093CA4B8E
:10225000FEF740FC3A00594620000EF075F92000C8
:102260001CF094FC21000200280014F0FCFA4B46FC
:102270000C220E990133009720000EF065F9D04E24
:1022800044AB029322AB002241462000019300960A
:10229000331CFEF71FFC3A00069920000EF054F99B
:1022A00020001CF073FC21000200280014F0DBFA6F
:1022B0004B460C220F990233009720000EF044F990
:1022C00044AB029322AB0193534641462000A94AF6
:1022D0000093A94BFEF7FEFB3A00079920000EF091
:1022E00033F920001CF052FC21000200280014F0F9
:1022F000BAFA4B460C2210990333009720000EF0D7
:1023000023F944AB029322AB002241462000019303
:102310000096331CFEF7DEFB3A00594620000EF013
:1023200013F920001CF032FC21000200280014F0F8
:102330009AFA13220899280014F095FA152209999F
:10234000280014F090FA18220B99280014F08BFA48
:102350001E200AF059FF3B003A00059920000EF0BC
:10236000F3F820001CF012FC21000200280014F0F9
:102370007AFA4B460C2211990433009720000EF094
:10238000E3F844AB029322AB01935346414620004D
:10239000784A0093784BFEF79DFB3A00594620009F
:1023A0000EF0D2F820001CF0F1FB21000200280002
:1023B00014F059FA4B460C2212990533009720006D
:1023C0000EF0C2F844AB029322AB0022414620003B
:1023D00001930096331CFEF77DFB3A00069920001E
:1023E0000EF0B2F820001CF0D1FB21000200280002
:1023F00014F039FA4B460C2213990633009720004B
:102400000EF0A2F844AB029322AB0193534641462F
:102410002000584A0093584BFEF75CFB3A0007999E
:1024200020000EF091F820001CF0B0FB210002000B
:10243000280014F018FA08224B46944614990733E2
:10244000009704322000E1440EF07EF844AB029382
:1024500022AB00224146200001930096331CFEF778
:1024600039FB3A00594620000EF06EF820001CF0AF
:102470008DFB21000200280014F0F5F90137172226
:1024800028000C9914F0EFF9082F00D0B3E61522BC
:102490000999280014F0E7F914220A99280014F089
:1024A000E2F9484B1722190028009B4614F0DBF98B
:1024B0001E200AF0A9FE44AB029322AB01935346BF
:1024C000414641482B4A00932B4BFEF703FB3F4B01
:1024D0001222190028001F0014F0C5F944AB029322
:1024E00022AB414600223A4801930096331CFEF786
:1024F000F1FA59461722280014F0B5F944AB0293BB
:1025000022AB01935346414632481A4A00931A4B74
:10251000FEF7E0FA304B122219002800994614F019
:10252000A2F944AB029322AB414600222B4801930F
:102530000096331CFEF7CEFA15220499280014F0F9
:1025400092F918220B99280014F08DF95946172298
:10255000280014F088F91E200AF056FE44AB0293BE
:1025600022AB0193534641461D48024A009339E08D
:10257000D07F0210000048420000A04008800210F6
:10258000448002106080021098800210AC8002101B
:10259000E8800210008102103C810210508102107C
:1025A0008C810210A4810210C0810210F8810210F7
:1025B0003482021070820210AC8202100000A0412E
:1025C000CDCC4C3EC4820210DC8202101483021077
:1025D00028830210648302109C830210B0830210CF
:1025E000EC830210FE4BFEF775FA39001222280028
:1025F00014F039F944AB029322AB41460022F9486A
:1026000001930096331CFEF765FA594617222800FD
:1026100014F029F944AB029322AB0193534641468F
:10262000F148F24A0093EE4BFEF754FA4946122263
:10263000280014F018F944AB029322AB4146002263
:10264000EB4801930096331CFEF744FA17220C99CD
:10265000280014F008F91222E649280014F003F9C2
:10266000169F44AB3A00E449E448009322ABFEF7DE
:10267000B3FC44AB3A00E249E248009322ABFEF7D8
:10268000ABFC0E221B99280014F0EDF812221C99C5
:10269000280014F0E8F813221D99280014F0E3F83C
:1026A000159B1222190028009A4614F0DCF81A9A99
:1026B00044AB9346D449D548009322ABFEF78CFC3B
:1026C00044AB3A00D249D348009322ABFEF784FCD6
:1026D000D14E44AB3200D149D148009322ABFEF732
:1026E0007BFC44AB3200CF49CF48009322ABFEF7CE
:1026F00073FC0E22CD49280014F0B5F8CC4B132200
:1027000019002800994614F0AEF8CA4B132219009C
:102710002800984614F0A7F81222C749280014F0A0
:10272000A2F8C64E44AB5A463100C548009322ABCE
:10273000FEF752FC1222C349280014F094F844AB6F
:102740003A003100C048009322ABFEF745FC12224C
:10275000BE49280014F087F8BD4E44AB5A463100FC
:10276000BC48009322ABFEF737FC1222BA4928007E
:1027700014F079F844AB3A003100B848009322AB2A
:10278000FEF72AFC1222B649280014F06CF8B54E68
:1027900044AB5A463100B448009322ABFEF71CFC10
:1027A0001222B249280014F05EF844AB3A0031001E
:1027B000AF48009322ABFEF70FFC1222AD49280070
:1027C00014F051F8AC4E44AB5A463100AB4800937C
:1027D00022ABFEF701FC1222A949280014F043F8AD
:1027E00044AB3A003100A748009322AB1697FEF79E
:1027F000F3FB0F22A449280014F035F80D22A34959
:10280000280014F030F81222A149280014F02BF807
:102810001222A049280014F026F816229E4928000A
:1028200014F021F89D4E14223100280014F01BF8FA
:10283000FA200AF0E9FC1B229949280014F013F849
:1028400044AB984A98499948009322ABFEF7C4FBE1
:1028500016229749280014F006F80E229549280000
:1028600014F001F831001422280013F0FCFF1922A3
:102870009149280013F0F7FF904F44AB3900904A7C
:102880009048009322ABFEF7A7FB0D228E4928004B
:1028900013F0E9FF16228D49280013F0E4FF310000
:1028A0001422280013F0DFFF19228949280013F0B1
:1028B000DAFF44AB3900874A8748009322ABFEF722
:1028C0008BFB0D228549280013F0CDFF1622844989
:1028D000280013F0C8FF31001422280013F0C3FFB2
:1028E00019228049280013F0BEFF44AB39007E4A0C
:1028F0007E48009322ABFEF76FFB0D227C49280037
:1029000013F0B1FF16227B49280013F0ACFF310011
:102910001422280013F0A7FF19227749280013F08A
:10292000A2FF44AB3900754A7548009322ABFEF70D
:1029300053FB49461322280013F095FF414613220A
:10294000280013F090FF5346514612222800159399
:1029500013F089FF16226B49280013F084FF13221D
:102960006949280013F07FFF13226849280013F0FB
:102970007AFF674B674E9A4644AB5A463100664829
:10298000009322ABFEF728FBD946132263492800A7
:1029900013F069FF169A624B90469B4644AB310098
:1029A0006048009322ABFEF717FB13225E49280014
:1029B00013F059FF5D4E44AB31004A465C4800932A
:1029C00022ABFEF709FB13225A49280013F04BFFF4
:1029D00044AB310042465848009322ABAEE0C046BB
:1029E0000000A040248402106084021000004842CD
:1029F00098840210D4840210E8840210008502102A
:102A0000248502103C850210608502107C8502102E
:102A1000A4850210C0850210E4EE0210E8850210C1
:102A2000048602103486021050860210808602103E
:102A300090860210A4860210B8860210CC8602107E
:102A4000E4860210148702102887021058870210AB
:102A50006C87021084870210B4870210C8870210A6
:102A6000F88702100C880210248802105488021083
:102A70006888021098880210AC880210C48802107E
:102A8000F48802100889021038890210488902105F
:102A9000588902106C8902108089021098890210EE
:102AA000B0890210CC890210D4890210F08902107A
:102AB000208A0210388A0210488A0210688A02109E
:102AC000648A0210848A0210B88A0210C88A02102E
:102AD000E08A0210FC8A0210008B0210388B021070
:102AE000488B0210608B02107C8B0210808B0210CE
:102AF000B88B0210C88B0210E08B0210FC8B021006
:102B0000008C0210388C0210508C0210648C021061
:102B100058B60210788C0210908C0210C88C0210EB
:102B200028B60210DC8C0210148D0210288D0210C1
:102B3000408D0210788D02108C8D0210FEF74CFA39
:102B40001322E549280013F08EFEE44E44AB310019
:102B50004A46E348009322ABFEF73EFA1322E149CE
:102B6000280013F080FE44AB31004246DE4800935B
:102B700022ABFEF731FA1322DC49280013F073FE72
:102B8000DB4E44AB31004A46DA48009322ABFEF7F5
:102B900023FA1322D849280013F065FE44AB310014
:102BA0004246D648009322ABFEF716FA1522D449C6
:102BB000280013F058FE44AB4246D249D248009355
:102BC00022ABFEF709FA1922D049280013F04BFE78
:102BD000CF4F1A223900280013F045FE1222159912
:102BE000280013F040FE1C22CA49280013F03BFEC7
:102BF0001922C949280013F036FE1622C7492800B9
:102C000013F031FEC64E15223100280013F02BFEC2
:102C10001E200AF0F9FA44ABC24AC349C3480093E4
:102C200022ABFEF7D9F91B22C149280013F01BFE85
:102C30001922C049280013F016FE1622BE492800AA
:102C400013F011FE31001522280013F00CFE1E2097
:102C50000AF0DAFA44ABB94AB949BA48009322AB50
:102C6000FEF7BAF91A223900280013F0FCFD1B22E6
:102C7000B549280013F0F7FD1922B449280013F0D4
:102C8000F2FD1622B249280013F0EDFD31001522A5
:102C9000280013F0E8FD1E200AF0B6FA44ABAD4A56
:102CA000AD49AE48009322ABFEF796F91922AC4924
:102CB000280013F0D8FD1B22AA49280013F0D3FDE9
:102CC0001922A949280013F0CEFD1622A749280091
:102CD00013F0C9FD1522A649280013F0C4FD1E20DB
:102CE0000AF092FA44ABA34AA349A448009322AB4A
:102CF000FEF772F91522A249280013F0B4FD15223F
:102D0000A049280013F0AFFD44AB9F4A9F49A0485B
:102D1000009322ABFEF702FA44AB9E4A9E499F48BD
:102D2000009322ABFEF7FAF912221599280013F04E
:102D30009AFD13229A49280013F095FD1322994910
:102D4000280013F090FD984E44AB4A463100974856
:102D5000009322ABFEF740F914221999280013F0D2
:102D600082FD44AB0093424622AB31009048FEF70F
:102D700033F9189B032B00D14CE1179E20223368B6
:102D800001219B688B481BF05DF8229F33683A0055
:102D9000894998681AF0ACFF239B884998463368A4
:102DA000424698681AF0A4FF249B85499A463368E6
:102DB000524698681AF09CFF259A336891468149DB
:102DC00098681AF095FF4B46019353463A000093DA
:102DD000200043467C490DF0B7FB2778002F20D018
:102DE0000D267A4BB04602229B5E2E009C463D008B
:102DF0002000674600212022B446754B002964D18B
:102E0000AF4200D1EEE099690A42FCD11D60017821
:102E100001300D394D4269410578C9B2002DEDD11F
:102E200065465346002B02DC4B46002B0FDD142277
:102E30006849280013F017FD179B16221B68012113
:102E40009B6865481AF0FEFF44A8FDF741FF220089
:102E5000624B23CB23C203CB03C21B7813702078B1
:102E6000002819D0002120220D26584B02255D5F35
:102E7000574B002900D0BBE0854200D1C0E09969E2
:102E80000A42FCD11860217801340D394842414191
:102E90002078C9B20028ECD1514B9D44F0BCBB4610
:102EA000B246A946A046F0BD99690A4201D1FEF793
:102EB0006BFA99690A42F7D1FEF766FA99690A42F4
:102EC000FCD161461960FEF75CFA99690A429DD00F
:102ED00099690A42F9D199E7C48D0210D88D021080
:102EE000F08D0210288E02103C8E0210748E02109B
:102EF000888E0210A08E0210D88E0210EC8E021066
:102F0000248F02103C8F0210548F0210748F021015
:102F1000908F0210AC8F0210CC8F0210E88F02103D
:102F200000900210189002102C9002105490021081
:102F3000809002109C900210B8900210D090021065
:102F4000E49002100C91021038910210549102107A
:102F500070910210889102109C910210C49102108D
:102F6000F09102100C92021028920210449202106A
:102F70005C920210749202108C920210B8920210AD
:102F8000E892021000930210189302102893021086
:102F90003C93021064930210709302108493021009
:102FA000AC930210C0930210D4930210F09302105D
:102FB00030940210489B02106C9B0210909B0210F0
:102FC000B09B0210D09B0210F09B02100C3E002020
:102FD00000800340389C0210509C0210689C021034
:102FE0002410000099690A42FCD1414619600AE7A1
:102FF00099690A4200D145E799690A42F8D141E747
:1030000099690A42FCD11E6039E795480DF044FDEC
:10301000012041E716222800924913F024FC1F9951
:103020001622280013F01FFC8F4B172219002800CE
:10303000994613F018FC8D4E44AB52463100009374
:103040008B4822ABFDF7C8FF8A4F44AB524639008C
:103050000093894822ABFDF7BFFF884B17229846A3
:103060001900280013F0FFFB44AB5A4631000093CF
:10307000834822ABFDF7B0FF44AB5A4639000093BA
:10308000804822ABFDF7A8FF49461722280013F01D
:10309000EAFB44AB5246390000937B4822ABFDF774
:1030A0009BFF41461722280013F0DDFB1E991622D4
:1030B000280013F0D8FB16222800744913F0D3FB24
:1030C000734B172219002800994613F0CCFB44AB30
:1030D0005246390000936F4822ABFDF77DFF44ABA9
:1030E0005246310000936C4822ABFDF775FF6B4BE5
:1030F000172298461900280013F0B5FB44AB5A4636
:1031000039000093664822ABFDF766FF44AB5A4690
:1031100031000093634822ABFDF75EFF494617225A
:10312000280013F0A0FB44AB5246310000935E48E8
:1031300022ABFDF751FF41461722280013F093FB05
:1031400013222800594913F08EFB132228005849F6
:1031500013F089FB574E13223100280013F083FB34
:10316000554944AB884652460093544822ABFDF77C
:1031700033FF534F44AB524639000093514822ABC2
:10318000FDF72AFF132228004F4913F06CFB44ABD4
:103190005A46414600934D4822ABFDF71DFF44AB14
:1031A0005A46390000934A4822ABFDF715FF31001B
:1031B0001322280013F057FB13222800454913F06F
:1031C00052FB13222800444913F04DFB1322280020
:1031D000424913F048FB424E13223100280013F0FD
:1031E00042FB404944AB524600933F4822AB8946DC
:1031F000FDF7F2FE3D4944AB8846524600933C48F9
:1032000022ABFDF7E9FE3B4F44AB52463900009339
:10321000394822ABFDF7E0FE13222800374913F0AE
:1032200022FB44AB5A4649460093354822ABFDF792
:10323000D3FE44AB5A4641460093324822ABFDF7D9
:10324000CBFE44AB5A46390000932F4822ABFDF722
:10325000C3FE13223100280013F005FB8DE5C046A4
:10326000886F02107094021088940210A0940210CB
:10327000B8940210F09402100895021040950210C4
:103280005895021090950210C895021000960210F1
:10329000189602103096021068960210A09602103E
:1032A000B8960210F096021028970210609702104C
:1032B00074970210889702109C970210B89702101A
:1032C000FC970210189802105C9802107098021077
:1032D000B4980210F89802100C990210209902106C
:1032E000349902104899021064990210A8990210AA
:1032F000C4990210089A0210249A0210689A0210C7
:103300007C9A0210C09A0210049B0210F0B5DE46AF
:103310004E4657464546E0B5EA4DA3B00E22EA496F
:10332000280013F0A0FA642009F06EFF0D22E7498F
:10333000280013F098FAFA20400009F065FF1422E3
:10334000E349280013F08FFA1522E249280013F010
:103350008AFA1522E049280013F085FADF4B15227E
:1033600019002800029313F07EFA1622DC49280087
:1033700013F079FA1622DB49280013F074FA1622AA
:10338000D949280013F06FFA1622D849280013F003
:103390006AFAD74B162219002800994613F063FAEF
:1033A0001722D449280013F05EFA1722D2492800C8
:1033B00013F059FA1722D149280013F054FA1722B2
:1033C000CF49280013F04FFA1722CE49280013F0F6
:1033D0004AFACD4B182219002800009313F043FA43
:1033E0001822CA49280013F03EFAC94B13221900CB
:1033F0002800039313F037FA1322C649280013F06C
:1034000032FA1322C449280013F02DFA0E22C349C0
:10341000280013F028FA1222C149280013F023FAD9
:103420001322C049280013F01EFA1222BE492800B8
:1034300013F019FA1522BD49280013F014FA0D22D1
:10344000BB49280013F00FFAFA2009F0DDFE002234
:1034500004AC2100B74B9A63B74AC1CAC1C1C1CA03
:10346000C1C112680A602678002E1ED0B34A0D2111
:103470000227D75F002290468C462000414620322A
:10348000002901D001F0A5F9B74201D101F0ABF953
:1034900099690A42FCD11E60017801300D394E4213
:1034A00071410678C9B2002EEAD12200A44B43CB69
:1034B00043C243CB43C243CB43C203CB03C21988AD
:1034C00011809B7893702678002E1FD09B4B0D2186
:1034D0000227DF5F002398468C46200020224146C9
:1034E000944B002901D001F085F9B74201D101F0D8
:1034F0008BF999690A42FCD11E60017801300D39BF
:103500004E4271410678C9B2002EEAD122008D4B9D
:1035100043CB43C243CB43C243CB43C203CB03C2DF
:103520001B8813802678002E1FD0844B0D21022784
:10353000DF5F002398468C462000202241467D4BC9
:10354000002901D001F067F9B74201D101F06DF90E
:1035500099690A42FCD11E60017801300D394E4252
:1035600071410678C9B2002EEAD14A22200076497C
:103570000BF05AFC2678002E1FD0704B0D2102272D
:10358000DF5F002398468C46200020224146694B8D
:10359000002901D001F050F9B74201D101F056F9EC
:1035A00099690A42FCD11E60017801300D394E4202
:1035B00071410678C9B2002EEAD1FDF751FEFA201A
:1035C000400009F021FE61491622280013F04BF952
:1035D0005F4B98462300424643CA43C343CA43C392
:1035E00043CA43C343CA43C32678002E1FD0534B5C
:1035F0000D210227DF5F00239A468C4620002022FF
:1036000051464C4B002901D001F027F9B74201D1B6
:1036100001F02DF999690A42FCD11E600178013050
:103620000D394E4271410678C9B2002EEAD13B22D3
:10363000200048490BF0F8FB2678002E1FD03F4BA6
:103640000D210227DF5F00239A468C4620002022AE
:103650005146384B002901D001F010F9B74201D191
:1036600001F016F999690A42FCD11E600178013017
:103670000D394E4271410678C9B2002EEAD1FDF7EC
:10368000EFFDFA20400009F0BFFD4E222000324934
:103690000BF0CAFB2678002E6DD0284B0D21022797
:1036A000DF5F00239A468C46200020225146214BA2
:1036B000002901D001F0F3F8B74201D101F0F9F887
:1036C0004CE0C0463C3C0020A46F0210B46F0210D6
:1036D000C46F0210DC6F0210F46F02100C70021045
:1036E000247002103C700210547002106C700210B2
:1036F000847002109C700210B4700210CC70021022
:10370000E4700210FC70021014710210307102108B
:103710004C710210607102107471021088710210F5
:1037200098710210AC710210C0710210D4710210B5
:10373000EC71021000800340809C02100C3E0020BF
:103740009C9C0210CC9C0210FC9C0210489D021014
:10375000609D0210909D0210CC9D021099690A4252
:10376000FCD11E60017801300D394E42714106785E
:10377000C9B2002E9CD1FDF773FDFA20400009F07C
:1037800043FD49461622280013F06DF8E34B15223D
:1037900019002800994613F066F8E14B1822190029
:1037A0002800019313F05FF8DE4B14221900280063
:1037B0009B4613F058F84C222000DB490BF034FBF9
:1037C0002678002E1FD0D94B0D210227DF5F002362
:1037D0009A468C46200020225146D54B002901D024
:1037E00001F06EF8B74201D101F074F899690A420C
:1037F000FCD11E60017801300D394E4271410678CE
:10380000C9B2002EEAD1FDF72BFDFA20400009F0E5
:10381000FBFC18220099280013F025F849461522D0
:10382000280013F020F82200C24B43CB43C243CB05
:1038300043C203CB03C2198811809B78937026780A
:10384000002E1FD0B94B0D210227DF5F00239946C0
:103850008C46200020224946B54B002901D001F0BA
:1038600040F8B74201D101F046F899690A42FCD10B
:103870001E60017801300D394E4271410678C9B29F
:10388000002EEAD1FDF7ECFCFA20400009F0BCFC68
:1038900013220399280012F0E6FF51222000A649C6
:1038A0000BF0C2FA2678002E1FD0A04B0D21022764
:1038B000DF5F002399468C462000202249469C4B1E
:1038C000002901D001F01EF8B74201D101F024F81F
:1038D00099690A42FCD11E60017801300D394E42CF
:1038E00071410678C9B2002EEAD1FDF7B9FCFA2081
:1038F000400009F089FC5822200090490BF094FA0E
:103900002678002E1FD0894B0D210227DF5F002370
:1039100099468C46200020224946854B002901D03B
:1039200001F001F8B74201D101F007F899690A42A4
:10393000FCD11E60017801300D394E42714106788C
:10394000C9B2002EEAD1FDF78BFCFA20400009F045
:103950005BFC16227A49280012F085FF4D222000D8
:1039600078490BF061FA2678002E1FD06F4B0D219D
:103970000227DF5F002399468C462000202249461B
:103980006B4B002901D000F0DFFFB74201D100F0FE
:10399000E5FF99690A42FCD11E60017801300D39BA
:1039A0004E4271410678C9B2002EEAD1FDF758FCAB
:1039B000FA20400009F028FC16226349280012F082
:1039C00052FF18220199280012F04DFF4F222000CB
:1039D0005E490BF029FA2678002E1FD0534B0D219B
:1039E0000227DF5F002399468C46200020224946AB
:1039F0004F4B002901D000F0B8FFB74201D100F0D1
:103A0000BEFF99690A42FCD11E60017801300D3970
:103A10004E4271410678C9B2002EEAD1FDF720FC72
:103A2000FA20400009F0F0FB18220099280012F05B
:103A30001AFF16224649280012F015FF16224549A2
:103A4000280012F010FF3E22200043490BF0ECF951
:103A50002678002E1FD0354B0D210227DF5F002373
:103A600099468C46200020224946314B002901D03E
:103A700000F08CFFB74201D100F092FF99690A4231
:103A8000FCD11E60017801300D394E42714106783B
:103A9000C9B2002EEAD13322200030490BF0C4F91C
:103AA0002678002E1FD0214B0D210227DF5F002337
:103AB00099468C462000202249461D4B002901D002
:103AC00000F075FFB74201D100F07BFF99690A420F
:103AD000FCD11E60017801300D394E4271410678EB
:103AE000C9B2002EEAD1FDF7BBFBFA20400009F075
:103AF0008BFB4E2220001A490BF096F92678002EF7
:103B000045D00A4B0D210227DF5F002399468C46E2
:103B1000200020224946064B24E0C0461C9E02108D
:103B2000B87302107C740210349E02100C3E002008
:103B300000800340809E0210A49E0210F89E021096
:103B4000509F0210689F0210B89F0210D09F021071
:103B500020A0021038A0021050A0021090A0021065
:103B6000C4A00210002901D000F032FFB74201D1F9
:103B700000F038FF99690A42FCD11E6001780130DB
:103B80000D394E4271410678C9B2002EEAD1FDF7D7
:103B900067FBFA20400009F037FB18220199280042
:103BA00012F061FE4E222000DF490BF03DF926782D
:103BB000002E1FD0DD4B0D210227DF5F0023994629
:103BC0008C46200020224946D94B002901D000F024
:103BD00010FFB74201D100F016FF99690A42FCD1EB
:103BE0001E60017801300D394E4271410678C9B22C
:103BF000002EEAD1FDF734FBFA20400009F004FB67
:103C000000991822280012F02EFE2300424643CAD3
:103C100043C343CA43C343CA43C343CA43C32678C7
:103C2000002E1FD0C14B0D210227DF5F00239846D5
:103C30008C46200020224146BD4B002901D000F0D7
:103C4000E9FEB74201D100F0EFFE99690A42FCD1CA
:103C50001E60017801300D394E4271410678C9B2BB
:103C6000002EEAD12200B34B43CB43C243CB43C225
:103C700003CB03C22778002F1FD0AC4B0D210226A7
:103C80009E5F002398468C46200020224146A84B88
:103C9000002901D000F0DAFEBE4201D100F0E0FEC2
:103CA00099690A42FCD11F60017801300D394F42F9
:103CB00079410778C9B2002FEAD1442220009E49F9
:103CC0000BF0B2F82678002E1FD0984B0D27022259
:103CD0009B5EBA4699462000002120224F46944B15
:103CE000002901D000F0C3FEB74201D100F0C9FEA7
:103CF00099690A42FCD11E60017801300D394E42AB
:103D000071410678C9B2002EEAD1FDF7A9FAFA206E
:103D1000400009F079FA18220199280012F0A3FD59
:103D200015228649280012F09EFD142259462800CB
:103D300012F099FD4E22200081490BF075F826788B
:103D4000002E1FD0794B0D210227DF5F00239846FC
:103D50008C46200020224146754B002901D000F0FE
:103D600097FEB74201D100F09DFE99690A42FCD14D
:103D70001E60017801300D394E4271410678C9B29A
:103D8000002EEAD1FDF76CFAFA20400009F03CFA67
:103D90006C4B162219002800994612F064FD472248
:103DA000200069490BF040F82678002E1FD05F4BA9
:103DB0000D210227DF5F002398468C462000202239
:103DC00041465B4B002901D000F073FEB74201D1A0
:103DD00000F079FE99690A42FCD11E600178013039
:103DE0000D394E4271410678C9B2002EEAD1FDF775
:103DF00037FAFA20400009F007FA544B152219004F
:103E00002800984612F02FFD4522200050490BF063
:103E10000BF82678002E1FD0444B0D210227DF5FC0
:103E200000239A468C46200020225146404B002910
:103E300001D000F04FFEB74201D100F055FE996964
:103E40000A42FCD11E60017801300D394E427141A9
:103E50000678C9B2002EEAD1FDF702FAFA20400036
:103E600009F0D2F916223B49280012F0FCFC4E2240
:103E7000200039490AF0D8FF2778002F1FD02B4B9C
:103E80000D2602229B5EB3469A4620000021202286
:103E90005646274B002901D000F02DFEBE4201D12D
:103EA00000F033FE99690A42FCD11F6001780130AD
:103EB0000D394F4279410778C9B2002FEAD1FDF799
:103EC000CFF9FA20400009F09FF916224946280050
:103ED00012F0C9FC4722200020490AF0A5FF2778EC
:103EE000002F3DD0114B0D2602229B5EB246994613
:103EF0002000002120224E460D4B002901D000F069
:103F00000BFEBE4201D100F011FE99690A42FCD1BC
:103F10001F60017801300D394F4279410778C9B2ED
:103F2000002FEAD11CE0C04614A102100C3E002074
:103F30000080034064A1021084A10210C8A10210F5
:103F4000E0A10210387B021030A20210847B021024
:103F500078A20210C0A20210D8A2021028A3021058
:103F6000FDF77EF9FA20400009F04EF9152241468E
:103F7000280012F078FC18220099280012F073FC37
:103F800015220299280012F06EFC132203992800D2
:103F900012F069FCE1491622280012F064FC2200AC
:103FA000DF4B43CB43C243CB43C243CB43C227780F
:103FB000002F1FD0DB4B0D2102269E5F0023984669
:103FC0008C46200020224146D74B002901D000F02A
:103FD000B4FDBE4201D100F0BAFD99690A42FCD19C
:103FE0001F60017801300D394F4279410778C9B21D
:103FF000002FEAD13F222000CC490AF015FF277894
:10400000002F1FD0C74B0D2102269E5F002398462C
:104010008C46200020224146C34B002901D000F0ED
:104020009DFDBE4201D100F0A3FD99690A42FCD179
:104030001F60017801300D394F4279410778C9B2CC
:10404000002FEAD1FDF70CF9FA20400009F0DCF866
:104050001522B749280012F006FCB64B12221900AF
:104060002800984612F0FFFB1222B349280012F0F4
:10407000FAFB50222000B1490AF0D6FE2678002E25
:104080001FD0A84B0D210227DF5F002399468C46E5
:10409000200020224946A44B002901D000F06FFDEA
:1040A000B74201D100F075FD99690A42FCD11E604A
:1040B000017801300D394E4271410678C9B2002EA7
:1040C000EAD1FDF7CDF8FA20400009F09DF8220072
:1040D0009B4B83CB83C283CB83C283CB83C22678A3
:1040E000002E1FD08F4B0D210227DF5F0023994642
:1040F0008C462000202249468B4B002901D000F03D
:104100004FFDB74201D100F055FD99690A42FCD13B
:104110001E60017801300D394E4271410678C9B2F6
:10412000002EEAD13D22200086490AF07DFE267845
:10413000002E1FD07B4B0D210227DF5F0023994605
:104140008C46200020224946774B002901D000F000
:1041500038FDB74201D100F03EFD99690A42FCD119
:104160001E60017801300D394E4271410678C9B2A6
:10417000002EEAD1FDF774F8FA20400009F044F867
:1041800015227149280012F06EFB122241462800C8
:1041900012F069FB14226D49280012F064FB5222D0
:1041A00020006B490AF040FE2778002F1FD05D4B9E
:1041B0000D2102269E5F002398468C462000202277
:1041C0004146594B002901D000F00CFDBE4201D1FF
:1041D00000F012FD99690A42FCD11F60017801309C
:1041E0000D394F4279410778C9B2002FEAD1FDF766
:1041F00037F8FA20400009F007F812225549280044
:1042000012F031FB15220299280012F02CFB5122EA
:10421000200051490AF008FE2778002F1FD0414B9B
:104220000D2102269E5F002398468C462000202206
:1042300041463D4B002901D000F0E5FCBE4201D1D2
:1042400000F0EBFC99690A42FCD11F600178013053
:104250000D394F4279410778C9B2002FEAD13F4B5F
:1042600031221900200098460AF0DEFD2678002E43
:104270001FD02C4B0D210227DF5F002399468C466F
:10428000200020224946284B002901D000F0CCFC18
:10429000B74201D100F0D2FC99690A42FCD11E60FC
:1042A000017801300D394E4271410678C9B2002EB5
:1042B000EAD13A2220002A490AF0B6FD2678002EDB
:1042C0001FD0184B0D210227DF5F002399468C4633
:1042D000200020224946144B002901D000F0B5FCF3
:1042E000B74201D100F0BBFC99690A42FCD11E60C3
:1042F000017801300D394E4271410678C9B2002E65
:10430000EAD1FCF7ADFFFA20400008F07DFF4C2217
:10431000200014490AF088FD267825E070A30210D9
:1043200088A302100C3E002000800340ACA30210C2
:10433000887A0210ECA3021000A4021014A4021048
:1043400064A4021088A40210C8A40210E0A4021001
:10435000F8A402104CA5021060A50210B4A502102A
:10436000E8A5021024A60210002E1FD0DB4B0D2161
:104370000227DF5F002399468C4620002022494611
:10438000D74B002901D000F071FCB74201D100F0F9
:1043900077FC99690A42FCD11E60017801300D3921
:1043A0004E4271410678C9B2002EEAD1FCF758FF9F
:1043B000FA20400008F028FF53222000C9490AF0E3
:1043C00033FD2678002E1FD0C44B0D210227DF5F5E
:1043D000002399468C46200020224946C04B0029E4
:1043E00001D000F054FCB74201D100F05AFC9969A9
:1043F0000A42FCD11E60017801300D394E427141F4
:104400000678C9B2002EEAD13122414620000AF0D6
:104410000BFD2778002F1FD0B04B0D2102269E5F89
:10442000002398468C46200020224146AC4B0029B0
:1044300001D000F03DFCBE4201D100F043FC99697F
:104440000A42FCD11F60017801300D394F42794199
:104450000778C9B2002FEAD13D222000A2490AF014
:10446000E3FC2778002F1FD09C4B0D2102269E5F76
:10447000002398468C46200020224146984B002974
:1044800001D000F026FCBE4201D100F02CFC99695D
:104490000A42FCD11F60017801300D394F42794149
:1044A0000778C9B2002FEAD1FCF7DAFEFA20400003
:1044B00008F0AAFE8D4B152219002800984612F02C
:1044C000D2F94F2220008A490AF0AEFC2678002E4D
:1044D0001FD0824B0D210227DF5F002399468C46B7
:1044E0002000202249467E4B002901D000F002FC2A
:1044F000B74201D100F008FC99690A42FCD11E6064
:10450000017801300D394E4271410678C9B2002E52
:10451000EAD1FCF7A5FEFA20400008F075FE15224E
:104520004146280012F09FF95722200071490AF0F5
:104530007BFC2778002F1DD0684B0D2102269E5F43
:10454000002398468C46200020224146644B0029D7
:1045500000D0E0E3BE4200D1E5E399690A42FCD114
:104560001F60017801300D394F4279410778C9B297
:10457000002FECD1552220005F490AF055FC277826
:10458000002F1DD0554B0D2102269E5F002398461B
:104590008C46200020224146514B002900D0C9E31F
:1045A000BE4200D1CEE399690A42FCD11F60017876
:1045B00001300D394F4279410778C9B2002FECD153
:1045C000FCF74EFEFA20400008F01EFE5A222000A2
:1045D0004A490AF029FC2778002F1DD03F4B0D21B6
:1045E00002269E5F002398468C46200020224146EA
:1045F0003B4B002900D0ABE3BE4200D1B0E3996948
:104600000A42FCD11F60017801300D394F427941D7
:104610000778C9B2002FECD1FCF722FEFA20400047
:1046200008F0F2FD5C22200035490AF0FDFB2778F6
:10463000002F1DD0294B0D2102269E5F0023984696
:104640008C46200020224146254B002900D08DE3D6
:10465000BE4200D192E399690A42FCD11F60017801
:1046600001300D394F4279410778C9B2002FECD1A2
:104670005D22200023490AF0D7FB2778002F1DD0A8
:10468000164B0D2102269E5F002398468C46200083
:1046900020224146124B002900D075E3BE4200D1D2
:1046A0007AE399690A42FCD11F60017801300D3923
:1046B0004F4279410778C9B2002FECD1FCF7D0FD09
:1046C000FA20400008F0A0FD4B2220000E490AF01D
:1046D000ABFB2778002F37D018E0C0460C3E0020F7
:1046E0000080034070A60210C4A60210A876021033
:1046F00004A7021054A70210ACA7021004A80210CD
:1047000060A80210BCA802101CA90210CA4B0D21FF
:1047100002269E5F002398468C46200020224146B8
:10472000C64B002900D03DE3BE4200D142E3996967
:104730000A42FCD11F60017801300D394F427941A6
:104740000778C9B2002FECD1FCF78AFDFA204000AF
:1047500008F05AFD28000E22B94912F084F8FA2018
:1047600008F052FD5022B54B9A63596B183A0A4033
:10477000B4490A602100B44A61CA61C161CA61C119
:1047800021CA21C11088088092788A702078002878
:1047900018D0A94A00210225555F0D2620220029A4
:1047A00000D00DE3854200D112E399690A42FCD1A1
:1047B0001860217801340D39484241412078C9B24E
:1047C0000028ECD123B0F0BCBB46B246A946A046B7
:1047D000F0BD99690A4201D1FEF75DFE99690A426E
:1047E000F7D1FEF758FE99690A42FCD1614619607B
:1047F000FEF74EFE99690A4201D1FEF77DFE9969E6
:104800000A42F7D1FEF778FE99690A42FCD1614667
:104810001960FEF76EFE99690A4201D1FEF79BFE10
:1048200099690A42F7D1FEF796FE99690A42FCD1CE
:1048300061461960FEF78CFE99690A4201D1FEF7C4
:10484000B2FE99690A42F7D1FEF7ADFE99690A42B4
:10485000FCD161461960FEF7A3FE99690A4201D1B5
:10486000FEF7DBFE99690A42F7D1FEF7D6FE996999
:104870000A42FCD161461960FEF7CCFE99690A42F2
:1048800001D1FEF7F2FE99690A42F7D1FEF7EDFE7B
:1048900099690A42FCD161461960FEF7E3FE996905
:1048A0000A4201D1FEF75DFF99690A42F7D1FEF78E
:1048B00058FF99690A42FCD161461960FEF74EFF24
:1048C00099690A4201D1FEF794FF99690A42F7D12A
:1048D000FEF78FFF99690A42FCD161461960FEF725
:1048E00085FF99690A4201D1FEF7C2FF99690A4220
:1048F000F7D1FEF7BDFF99690A42FCD16146196004
:10490000FEF7B3FF99690A4201D1FEF7E4FF996906
:104910000A42F7D1FEF7DFFF99690A42FCD16146EE
:104920001960FEF7D5FF99690A4201D1FFF701F836
:1049300099690A42F7D1FEF7FCFF99690A42FCD156
:1049400061461960FEF7F2FF99690A4201D1FFF74B
:1049500023F899690A42F7D1FFF71EF899690A42CC
:10496000FCD161461960FFF714F899690A4201D138
:10497000FFF74AF899690A42F7D1FFF745F89969B4
:104980000A42FCD161461960FFF73BF899690A4277
:1049900001D1FFF776F899690A42F7D1FFF771F86C
:1049A00099690A42FCD161461960FFF767F8996975
:1049B0000A4201D1FFF78DF899690A42F7D1FFF752
:1049C00088F899690A42FCD161461960FFF77EF8C0
:1049D00099690A4201D1FFF7D0F899690A42F7D1E3
:1049E000FFF7CBF899690A42FCD161461960FFF7DD
:1049F000C1F899690A4201D1FFF7F2F899690A42B0
:104A0000F7D1FFF7EDF899690A42FCD161461960C8
:104A1000FFF7E3F899690A4201D1FFF719F999699B
:104A20000A42F7D1FFF714F999690A42FCD16146AD
:104A30001960FFF70AF9C0460C3E002000800340D1
:104A400068A902103490034078A9021099690A42BB
:104A500001D1FFF728F999690A42F7D1FFF723F945
:104A600099690A42FCD161461960FFF719F9996901
:104A70000A4201D1FFF73FF999690A42F7D1FFF7DE
:104A80003AF999690A42FCD151461960FFF730F9A9
:104A900099690A4201D1FFF76BF999690A42F7D186
:104AA000FFF766F999690A42FCD161461960FFF780
:104AB0005CF999690A4201D1FFF78FF999690A42B5
:104AC000F7D1FFF78AF999690A42FCD1614619606A
:104AD000FFF780F999690A4201D1FFF7B3F99969A3
:104AE0000A42F7D1FFF7AEF999690A42FCD1614653
:104AF0001960FFF7A4F999690A4201D1FFF7D5F9C6
:104B000099690A42F7D1FFF7D0F999690A42FCD1B5
:104B100059461960FFF7C6F999690A4201D1FFF7B2
:104B2000F7F999690A42F7D1FFF7F2F999690A4250
:104B3000FCD151461960FFF7E8F999690A4201D1A1
:104B4000FFF74EFA99690A42F7D1FFF749FA9969D6
:104B50000A42FCD161461960FFF73FFA99690A429F
:104B600001D1FFF765FA99690A42F7D1FFF760FAB8
:104B700099690A42FCD161461960FFF756FA9969B2
:104B80000A4201D1FFF793FA99690A42F7D1FFF778
:104B90008EFA99690A42FCD161461960FFF784FADE
:104BA00099690A4201D1FFF7B3FA99690A42F7D12C
:104BB000FFF7AEFA99690A42FCD161461960FFF726
:104BC000A4FA99690A4201D1FFF7CAFA99690A421F
:104BD000F7D1FFF7C5FA99690A42FCD1614619601D
:104BE000FFF7BBFA99690A4201D1FFF7F6FA996912
:104BF0000A42F7D1FFF7F1FA99690A42FCD16146FE
:104C00001960FFF7E7FA99690A4201D1FFF71DFB26
:104C100099690A42F7D1FFF718FB99690A42FCD15A
:104C200061461960FFF70EFB99690A4201D1FFF74F
:104C300036FB99690A42F7D1FFF731FB99690A42BD
:104C4000FCD161461960FFF727FB99690A4201D13F
:104C5000FFF74DFB99690A42F7D1FFF748FB9969C5
:104C60000A42FCD161461960FFF73EFB99690A428E
:104C700001D1FFF791FB99690A42F7D1FFF78CFB4D
:104C800099690A42FCD161461960FFF782FB996974
:104C90000A4201D1FFF7AEFB99690A42F7D1FFF74B
:104CA000A9FB99690A42FCD161461960FFF79FFB95
:104CB00099690A4201D1FFF7C5FB99690A42F7D108
:104CC000FFF7C0FB99690A42FCD161461960FFF702
:104CD000B6FB99690A4201D1FFF7DCFB99690A42E8
:104CE000F7D1FFF7D7FB99690A42FCD161461960F9
:104CF000FFF7CDFB99690A4201D1FFF700FC9969E2
:104D00000A42F7D1FFF7FBFB99690A42FCD16146E1
:104D10001960FFF7F1FB99690A4200D120E4996913
:104D20000A42F8D11CE499690A42FCD16146196033
:104D3000FFF713FC99690A4200D137E499690A42E6
:104D4000F8D133E499690A42FCD1614619602AE43A
:104D500099690A4200D155E499690A42F8D151E4AF
:104D600099690A42FCD16146196048E499690A428E
:104D700000D173E499690A42F8D16FE499690A4253
:104D8000FCD16146196066E499690A4200D18BE45E
:104D900099690A42F8D187E499690A42FCD16146CF
:104DA00019607EE499690A4200D1C3E499690A4214
:104DB000F8D1BFE499690A42FCD161461960B6E4B2
:104DC00099690A4200D1F3E499690A42F8D1EFE403
:104DD00099690A42FCD11E60E7E4C046F0B5DE46A0
:104DE00057464E464546E0B5FE4C1022A5440021EC
:104DF0000EA80AF013F800220AACA44600200021F5
:104E0000F94B30AD1A60F94BF94C634418605960A6
:104E1000F84B2000EA50F84B06321900994611F081
:104E200022FD200012220021483009F0F7FFF34B49
:104E30000D2219002000059311F015FDF04AF149EB
:104E4000F1480EAB0095FCF7C7F8F04AF049F1487D
:104E50000EAB00959346FCF7BFF8EF4AEF49F048D8
:104E60000EAB0095FCF7B8F8EE4EEF4F320039006C
:104E7000EE480EAB0095FCF7AFF8ED493200ED4877
:104E80000EAB00958A46FCF7A7F8EB49320088463E
:104E9000EA480EAB0095FCF79FF832000EABE849EC
:104EA000E8480095FCF798F801220921200011F04C
:104EB00017F85A4641460EABE3480095FCF78CF8CC
:104EC0002022E249200011F0CEFCE14AE149E2480B
:104ED0000EAB00950692FCF77FF8E04A3900E048F7
:104EE0000EAB00950492FCF777F85A46DD49DE4890
:104EF0000EAB0095FCF770F80EAB32003900DB48C2
:104F00000095FCF769F801220921200011F00BF847
:104F100002220621200010F0E3FFD54A0EAB904696
:104F2000D449D5480095FCF757F81622D3492000FC
:104F300011F099FC4246D249D2480EAB0095FCF7DD
:104F40004BF83900D04AD1480EAB0095FCF744F835
:104F50004246CF49CF480EAB0095FCF73DF80EAB6B
:104F600032003900CC480095FCF736F802220621C1
:104F7000200010F0D8FF0E22C849200011F073FC69
:104F80000D220599200011F06EFC0B22C44920006F
:104F900011F069FC5146C348069A0EAB0095FCF728
:104FA0001BF83900C04AC1480EAB0095FCF714F855
:104FB000BF49C04A8A46C0480EAB0095FCF70CF8C2
:104FC0000EAB32005146BD480095FCF705F80D22A6
:104FD000BB49200011F047FC0E22BA49200011F015
:104FE00042FC1622B849200011F03DFC01220921A3
:104FF000200010F075FF1622B449200011F033FC98
:1050000002220621200010F06BFF39000EABB04ADF
:10501000B0480095FBF7E0FF49460622200011F05A
:1050200022FC0EAB32003900AB480095FBF7D4FFF1
:1050300001220921200010F076FF02220621200023
:1050400010F071FF01220921200010F049FF390002
:105050000EABA248049A0095FBF7BEFF0B22A049B5
:10506000200011F000FC320039000EAB9D48009585
:10507000FBF7B2FF01220921200010F054FF9A49EA
:105080003200894699480EAB0095FBF7A5FF984F73
:10509000320039000EAB97480095FBF79DFF2000CA
:1050A0009549FBF707FB5A46494694480EAB0095D5
:1050B000FBF792FF5A4639000EAB91480095FBF77B
:1050C0008BFF20008F49FBF7F5FA39004F46424627
:1050D0008D480EAB0095FBF77FFF8C4A8C498D48BD
:1050E0000EAB0095FBF778FF8B4A8C498C480EABD2
:1050F0000095FBF771FF320049460EAB89480095D9
:10510000FBF76AFF13228849200011F0ACFB5A46D6
:1051100049460EAB85480095FBF75EFF1422844993
:10512000200011F0A0FB320049460EAB81480095EB
:105130000897FBF751FF2F227F49200011F093FBC6
:105140007E4F0EAB39007E4A7E480095FBF744FF48
:105150001E227D49200011F086FB39000EAB7B4AF0
:105160007B480095FBF738FF24227A49200011F094
:105170007AFB39000EAB784A78480095FBF72CFF94
:105180001F227749200011F06EFB3900754A7648DE
:105190000EAB0095FBF720FF744A754975480EABBE
:1051A000009507920991FBF717FF734B272219000F
:1051B0002000994611F057FB704A3900904670481C
:1051C0000EAB0095FBF708FF6E4B1E229A461900A6
:1051D000200011F048FB42466B4809990EAB009540
:1051E000D4E0C0462CF0FFFF54370020980F000099
:1051F0003C3C0020080F00009CA90210EC7102103A
:10520000A4A90210D0A90210D8A9021028B6021031
:10521000F8A9021000AA021020AA021028AA02105F
:1052200038AA021058B6021060AA021068AA02102A
:105230008CAA021094AA0210B8AA0210DCAA0210CA
:1052400008AB021024AB021050AB02107CAB021072
:10525000A8B30210A0AB0210C0AB0210ECAB02105E
:10526000F0AB021014AC021034AC021060AC0210AF
:10527000DCEE021084AC021098AC0210C4AC021038
:10528000DCAC0210F0AC02101CAD021020AD02101C
:1052900048AD021060AD02108CAD0210A46F021078
:1052A000B4AD0210C0AD0210E8AD0210ECAD0210BA
:1052B00018AE021014AE021020AE021048AE02105A
:1052C000B46F021068A9021070AE021088AE02100E
:1052D000A0AE0210A4AE0210CCAE0210F4AE0210CA
:1052E0001CAF021028AF021050AF021064AF0210C2
:1052F0008CAF0210A0AF021093FEFFFFC8AF0210E8
:10530000F0AF021070FEFFFF18B0021034B00210B0
:105310004CB0021058B0021074B0021088B00210E5
:105320009CB00210B8B00210C0930210D4B00210AA
:10533000C46F0210F0B002100CB102104CB1021098
:105340003CB1021078B1021094B10210B4B1021055
:10535000C4B10210E0B1021008B2021014B202107F
:1053600030B2021050B2021060B202107CB20210D1
:1053700084B20210ACB20210C8B20210F0B2021035
:10538000F8B2021014B3021034B30210FBF724FE7B
:10539000424639000EABFD480095FBF71DFE2F225B
:1053A000FB49200011F05FFA0EAB3900F94AFA48C8
:1053B0000095FBF711FE49462722200011F053FA11
:1053C00051461E22200011F04EFA424639000EAB23
:1053D000F2480095FBF700FE2822F149200011F069
:1053E00042FAF04F0EAB3900EF48079A0095FBF7F1
:1053F000F3FD1B22ED49200011F035FAEC4A39008B
:1054000092460EABEB480095FBF7E6FD4946272296
:10541000200011F028FA424639000EABE64800950C
:10542000FBF7DAFD2522E549200011F01CFAE44FD4
:105430000EAB3900E348079A0095FBF7CDFD1A2221
:10544000E149200011F00FFA524639000EABDF4857
:105450000095FBF7C1FD1A22DD49200011F003FA87
:10546000424639000EABDB480095FBF7B5FD1C2228
:10547000D949200011F0F7F9D84FD94A3900D94855
:105480000EAB0095FBF7A8FDD74B132219002000A7
:10549000079311F0E8F939000EABD44AD4480095CF
:1054A000FBF79AFD1722D349200011F0DCF90EAB6F
:1054B0003900D14AD1480095FBF78EFD0D220599A0
:1054C000200011F0D0F91522CD49200011F0CBF9C0
:1054D0001522CC49200011F0C6F91522CA49200036
:1054E00011F0C1F9C94F0EAB3900C94AC94800953E
:1054F000FBF772FD1522C849200011F0B4F93900FC
:105500000EABC64AC6480095FBF766FD1522C54995
:10551000200011F0A8F9C44A0EABC449C448009554
:105520009146FBF759FD1522C249200011F09BF965
:10553000C14A0EABC149C24800959046FBF74CFDED
:105540001422C049200011F08EF91222BE49200019
:1055500011F089F9BD494A468A46BD480EAB00950F
:10556000FBF73AFD0EAB4A463900BA480095FBF707
:1055700033FD1222B849200011F075F91322B74902
:10558000200011F070F942463900B5480EAB009585
:10559000FBF722FD42465146B2480EAB0095FBF7A1
:1055A0001BFDB14B152219002000059311F05BF98A
:1055B000AE4B152219002000099311F054F917225F
:1055C000AB49200011F04FF91722AA49200011F031
:1055D0004AF95A46A849A9480EAB0095FBF7FCFCCE
:1055E00032000EABA649A7480095FBF7F5FC172241
:1055F000A549200011F037F9A44F5A4639000EABE7
:10560000A3480095FBF7E8FC1722A249200011F0FF
:105610002AF9320039000EAB9F480095FBF7DCFCFD
:10562000162006F027FF9D4B1822190020000A9330
:1056300011F019F99A4F18223900200011F013F9CE
:10564000984B1822190020009A4611F00CF9964B3D
:105650001822190020000B9311F005F9934B182222
:10566000190020000C9311F0FEF891495A46914818
:105670000EAB00958946FBF7AFFC8F495A4688462A
:105680008E480EAB0095FBF7A7FC8D495A460EAB32
:105690008C4800950D91FBF79FFC18228A49200049
:1056A00011F0E1F83200494688480EAB0095FBF74F
:1056B00093FC3200414686480EAB0095FBF78CFC0C
:1056C0000EAB320083480D990095FBF785FC18223C
:1056D0008149200011F0C7F839001822200011F08C
:1056E000C2F851461822200011F0BDF818227B495B
:1056F000200011F0B8F818227949200011F0B3F811
:10570000784F5A46390078480EAB0095FBF764FC99
:105710005A46494675480EAB0095FBF75DFC5A4664
:1057200041460EAB72480095FBF756FC18227149B2
:10573000200011F098F8320039006F480EAB009548
:10574000FBF74AFC320049466C480EAB0095FBF76C
:1057500043FC0EAB3200414669480095FBF73CFC28
:1057600018220B99200011F07EF81B2265492000B9
:1057700011F079F818220A99200011F074F8182213
:105780000C99200011F06FF85F49BFE050B3021090
:105790006CB302109CB30210ACB30210C8B3021079
:1057A000E4B3021010B402103CB402105CB4021056
:1057B00078B4021080B40210A0B40210C0B4021079
:1057C000E8B4021010B5021034B5021050B5021042
:1057D00074B5021090B50210B4B50210DCB5021019
:1057E000D4B50210FCB502104C71021024B60210A0
:1057F0002CB60210AC82021054B602105CB6021035
:10580000DC720210F472021084B6021028730210C7
:10581000487202109CB60210BCB60210A4720210AC
:10582000D4B60210F4B602100CB7021010B7021072
:1058300024B7021044B702105CB7021060B7021020
:1058400074B7021094B70210ACB702104C72021079
:10585000C0B70210E0B7021000B8021014B802106E
:1058600028B8021048B80210F46F0210DC6F021062
:1058700068B8021080B8021098B80210B0B80210D0
:10588000D0B80210E8B8021008B9021020B902100E
:1058900038B9021058B9021070B9021090B902104C
:1058A000ACB90210C8B90210E4B9021000BA021073
:1058B0001CBA021034BA021054BA02106CBA0210A8
:1058C0008CBA0210A4BA0210C4BA0210E0BA0210D4
:1058D00000BB021020BB021040BB02105CBB0210D8
:1058E00078BB021094BB0210ACBB0210C8BB021004
:1058F000E4BB021000BC02101CBC021038BC021039
:1059000054BC021070BC021090BC0210FE4A8A46C1
:10591000FE480EAB00950A92FBF75EFB5A46390033
:105920000EABFB480095FBF757FB1B22F949200003
:1059300010F099FFF84A51469046F8480EAB009592
:10594000FBF74AFB0EAB32003900F5480095FBF738
:1059500043FB1822F349200010F085FF1822F2497A
:10596000200010F080FFF14FF14839000A9A0EAB89
:105970000095FBF731FB5A4649460EABED480095C2
:10598000FBF72AFB1B22EC49200010F06CFF42467B
:105990003900EA480EAB0095FBF71EFB3200494682
:1059A0000EABE7480095FBF717FB0B22E5492000FB
:1059B00010F059FF089F320039000EABE248009505
:1059C000FBF70AFB1022E149200010F04CFF5A4679
:1059D00039000EABDE480095FBF7FEFA1022DD49D8
:1059E000200010F040FF32003900DB480EAB00957C
:1059F000FBF7F2FA0EABD94AD949DA480095FBF722
:105A0000EBFA0F22D849200010F02DFFD74F3200BB
:105A100039000EABD6480095FBF7DEFA0E22D549C9
:105A2000200010F020FF5A463900D3480EAB0095F5
:105A3000FBF7D2FAD14B0F2219002000089310F087
:105A400012FFCF4F320039000EABCE480095FBF766
:105A5000C3FA0E22CC49200010F005FF5A46390047
:105A60000EABCA480095FBF7B7FA9620400007F046
:105A7000CBFB0EABC64AC749C7480095FBF7ACFA4B
:105A800015220999200010F0EEFE1522059920003C
:105A900010F0E9FEC14B1522190020009A4610F0C3
:105AA000E2FE1622BE49200010F0DDFE1622BD499E
:105AB000200010F0D8FE1622BB49200010F0D3FEC3
:105AC0001622BA49200010F0CEFE1622B849200056
:105AD00010F0C9FE1722B749200010F0C4FE1722AB
