:020000041000EA
:1000000000B5324B212058609868022188439860DF
:10001000D860186158612E4B002199600221596106
:100020000121F02299502B49196001219960352056
:1000300000F044F80222904214D00621196600F024
:1000400034F8196E01211966002018661A6600F04E
:100050002CF8196E196E196E052000F02FF8012189
:100060000842F9D1002199601B49196000215960AB
:100070001A491B48016001219960EB211966A021F2
:10008000196600F012F800219960164914480160C1
:100090000121996001BC002800D000471248134993
:1000A000086003C880F30888084703B5996A0420EC
:1000B0000142FBD001200142F8D103BD02B5186610
:1000C0001866FFF7F2FF186E186E02BD00000240BE
:1000D000000000180000070000035F00212200005C
:1000E000F4000018222000A00001001008ED00E03C
:1000F00000000000000000000000000074B24E7A12
:1001000000200420F7010010C3010010C5010010F9
:10011000C1010010C1010010C1010010C101001097
:10012000C1010010C1010010C1010010C701001081
:10013000C1010010C1010010C9010010CB01001065
:10014000CD010010CD010010CD010010CD01001037
:10015000CD010010CD010010CD010010CD01001027
:10016000CD010010CD010010CD010010CD01001017
:10017000CD010010CD010010CD010010CD01001007
:10018000CD010010CD010010CD010010CD010010F7
:10019000CD010010CD010010CD010010CD010010E7
:1001A000CD010010CD010010CD010010CD010010D7
:1001B000CD010010CD010010CD010010CD010010C7
:1001C00000BE00BE00BE00BE00BE00BEEFF3058054
:1001D000103800BEF2EB8871542903107029031007
:1001E0003802001090A31AE71E481F49086006C88D
:1001F00081F3088810471D480068002801D019487D
:10020000F3E70DA40ECC002902D000F012F8F9E7B4
:100210001749184A002000E001C19142FCD116495B
:100220008847164988471649884700BEFDE701C937
:1002300001C29A42FBD3704770290310C00000200E
:10024000E81E00209847031000000420000004204E
:100250009847031000100420001004200000000044
:10026000704700000000000008ED00E0000000D032
:10027000E81E0020803A0020F9020110C50D001090
:10028000B5020110F8B5C0460448054B10B58342CD
:1002900003D0044B002B00D0984710BDE81E00206F
:1002A000E81E00200000000006480749091A8910CE
:1002B000CB0F591810B5491003D0044B002B00D0B8
:1002C000984710BDE81E0020E81E00200000000036
:1002D00010B5074C2378002B09D1FFF7D5FF054B4C
:1002E000002B02D0044800E000BF0123237010BDA2
:1002F00070200020000000004C520210054B10B589
:10030000002B03D00449054800E000BFFFF7CCFFF5
:1003100010BDC04600000000742000204C520210A6
:1003200070B504000D000422002114F03FFDE36AC3
:10033000002B05D01B68002B02D029002000984715
:1003400070BD000070B582B001AB19803C30040074
:10035000190014F0E3FA051E02D0280002B070BDA7
:1003600001AE3100200014F049FB034B3380310013
:10037000200014F0D3FAF0E7A2FEFFFF10B53C30E6
:1003800014F080FA10BD10B582B06B469C1D00239E
:1003900023803C30210014F06DFB0023E05E02B0AE
:1003A00010BD10B50400FFF7EEFF002800D010BD0F
:1003B0000021200014F0EAFB4307F8D504220021B5
:1003C000200014F016FDE36A002BF0D01B68002B10
:1003D000EDD0002120009847E9E710B504003C303B
:1003E00014F06BFA2000FFF7DCFF10BD10B504001D
:1003F00000290BD000280BD000230B803C3014F0D8
:10040000C6FA2000FFF7CDFF012010BD0020FCE759
:100410000020FAE7F8B505000E00141E01D0002BED
:1004200009D0220031002800FFF78CFF0127474048
:10043000FFB2002410E0FF2110001BF0F7FB0300C7
:10044000EFE763001B195A00154B9B189A8802218D
:10045000280014F0ABFC0134082C10DC63001B19DD
:100460005A000F4BD35EB342F5DB63001B195A00F1
:100470000B4B9B1802229B5EB342ECDCE1E73100A0
:100480002800FFF74DFF002F05D1002D02D03823A3
:100490000122EA54F8BD03492800FFF741FFF4E7C1
:1004A000CC6F0210A2FEFFFF10B500230022FFF761
:1004B000B1FF10BD00B5C8239B009C46604482B2CA
:1004C0009A4200D935E190009C4B1B589F469C48AE
:1004D00000E09C4800BD9C48FCE79C48FAE79C482B
:1004E000F8E79C48F6E79C48F4E79C48F2E79C480C
:1004F000F0E79C48EEE79C48ECE79C48EAE79C481C
:10050000E8E79C48E6E79C48E4E79C48E2E79C482B
:10051000E0E79C48DEE79C48DCE79C48DAE79C483B
:10052000D8E79C48D6E79C48D4E79C48D2E79C484B
:10053000D0E79C48CEE79C48CCE79C48CAE79C485B
:10054000C8E79C48C6E79C48C4E79C48C2E79C486B
:10055000C0E79C48BEE79C48BCE79C48BAE79C487B
:10056000B8E79C48B6E79C48B4E79C48B2E79C488B
:10057000B0E79C48AEE79C48ACE79C48AAE79C489B
:10058000A8E79C48A6E79C48A4E79C48A2E79C48AB
:10059000A0E79C489EE79C489CE79C489AE79C48BB
:1005A00098E79C4896E79C4894E79C4892E79C48CB
:1005B00090E79C488EE79C488CE79C488AE79C48DB
:1005C00088E79C4886E79C4884E79C4882E79C48EB
:1005D00080E79C487EE79C487CE79C487AE79C48FB
:1005E00078E79C4876E79C4874E7764872E79B4832
:1005F00070E777486EE79A486CE79A486AE79A4846
:1006000068E7764866E7994864E7994862E7994859
:1006100060E799485EE799485CE799485AE7994846
:1006200058E7994856E7994854E7994852E7994856
:1006300050E799484EE779484CE798484AE7984888
:1006400048E7984846E7984844E7984842E798487A
:1006500040E798483EE798483CE798483AE798488A
:1006600038E7984836E76D4834E7974832E79748C7
:1006700030E797482EE797482CE797482AE79748AE
:1006800028E7974826E7974824E7974822E79748BE
:1006900020E797481EE797481CE797481AE79748CE
:1006A00018E7974816E7974814E7974812E79748DE
:1006B00010E797480EE797480CE797480AE79748EE
:1006C00008E7974806E7974804E7974802E79748FE
:1006D00000E79748FEE69748FCE69748FAE6974811
:1006E000F8E69748F6E69748F4E69748F2E6974822
:1006F000F0E69748EEE69748ECE69748EAE6974832
:10070000E8E69748E6E69748E4E69748E2E6974841
:10071000E0E69748DEE69748DCE69748DAE6974851
:10072000D8E69748D6E69748D4E69748D2E6974861
:10073000D0E69748CEE69748CCE6C0465052021025
:10074000C06F02100C5F0210205F0210305F0210B9
:10075000445F0210545F0210645F02107C5F02105D
:10076000905F0210A85F0210C05F0210DC5F0210F1
:10077000F05F02100C6002102C600210406002104A
:100780005C60021070600210806002109C600210B9
:10079000AC600210BC600210CC600210E06002107D
:1007A000F86002101061021028610210446102100A
:1007B000586102106C61021084610210986102108D
:1007C000AC610210C4610210D8610210EC61021029
:1007D000086202101462021038620210586202109D
:1007E000706202108062021098620210B4620210FD
:1007F000C8620210D8620210E8620210F4620210AD
:100800000463021018630210286302103863021098
:100810004C63021060630210706302108863021060
:1008200098630210B0630210C8630210DC63021008
:10083000EC630210FC6302101064021024640210C6
:100840003C6402104C6402105C6402106864021084
:10085000786402108C6402109C640210AC64021074
:10086000C8640210DC640210F4640210086502100F
:10087000246502103C6502105C650210746502106C
:10088000846502109C650210B4650210CC650210EC
:10089000E865021000660210186602102C6602104D
:1008A0004C6602106C660210806602109866021098
:1008B000A8660210B8660210C8660210E066021050
:1008C000F8660210146702102467021038670210DD
:1008D0004C6702105C67021070670210906702108C
:1008E000B4670210CC670210DC670210E8670210E0
:1008F000FC6702101068021024680210546802108D
:10090000606802107068021080680210946802101B
:10091000C8680210F86802102869021060690210A5
:10092000A0690210BC690210CC690210086A0210AA
:10093000486A02107C6A0210B06A0210E46A02106F
:10094000106B0210506B0210986B0210F06B0210CB
:10095000406C02108C6C0210EC6C0210246D0210C2
:100960006C6D0210AC6D0210D46D0210F46D0210AB
:10097000286E0210586E0210A06E0210C86E02108F
:10098000E46E0210246F02105C6F02108C6F021074
:10099000EC5E0210FC5E0210F0B583B00300019122
:1009A0001449154A8C580B2C21DC043A8A580C2A1D
:1009B00018D0104D8C27FF00EE595C20704328188A
:1009C0005C2219000EF07CFBAB198A22D2009446FF
:1009D0006344019A1A700136EE510134064BEC5013
:1009E000012005E08C22D20000208850E1E70020A1
:1009F00003B0F0BD782D00206404000030B583B052
:100A00001BE0494B9B69DB06FBD4474B1B680B7013
:100A100001320131002AF4D0434B9B6920221A4055
:100A200015D0424B5C22995C5B5C0A2B3AD00D2BB3
:100A300038D001313D4A5C23D1543B4B9B69102295
:100A40001A406ED139495C23CB5CC918E2E7374BB9
:100A50005C21595C5D5C364B02215B5EAB4203D08E
:100A60006B46D91D0D701AE06B46D91D0D230B7016
:100A7000100008E02C4B9B699B06FBD40C782A4B9A
:100A80001C60013001310028F4D0E9E7264B9B6956
:100A90009B06FBD40878244B186001320131002AF0
:100AA000F4D0BEE70131C9B2204C2000FFF774FF3B
:100AB0005C23E35CE35C0A2B0AD00A241A4B9B6993
:100AC00020221A4006D0194A5C230021D154B4E7F1
:100AD0000D24F3E7164B02215B5EA34203D06B4665
:100AE000D91D0C701AE06B46D91D0D230B70100038
:100AF00008E00D4B9B699B06FBD40D780A4B1D60EB
:100B0000013001310028F4D0E9E7074B9B699B06CF
:100B1000FBD40878044B186001320131002AF4D06C
:100B2000D1E703B030BDC04600800340AC2C0020AC
:100B3000A437002010B506480023064A835004322B
:100B40008350054A8350302200210EF0B3FA10BDC5
:100B5000782D00205C04000064040000F8B50F004C
:100B6000184A194BD358002B01DC0020F8BD1400A3
:100B7000164E5C259159694351185C220EF0A0FA7B
:100B8000A359E3188A22D200944663441B783B7031
:100B9000A059684300195C2200210EF08BFAA3597A
:100BA000581C0C210DF0B6F9A15107496358E21801
:100BB0008A20C0008446624400201070013B6350CC
:100BC0000130D3E7782D0020640400005C040000AD
:100BD00030B583B001AA07211F4808F049FB00285F
:100BE00002D0E1235B0201931C4C019920000CF020
:100BF0008DFE022108200BF0FFFD022109200BF0E1
:100C0000FBFD019920000CF021FE0500236BC022A2
:100C100012021340124A136000230122082120000F
:100C20000CF042FE002120000CF054FE0D4915206E
:100C30000BF088FF012115200BF058FF5023A36310
:100C4000626B183B1340084A1360084A5C2300217A
:100C5000D154280003B030BD5F2D00200080034038
:100C600030900340FD09001034900340AC2C00206C
:100C700030B583B04B4D28000BF0FFFDD024240687
:100C8000236A5D40484B1D40E56212F0A3FE12F05E
:100C900015FA464B02221A601A200BF0E3FD80235E
:100CA000DB04A362002200211A200BF0BFFD1B20F1
:100CB0000BF0D8FD80231B05A362002200211B201E
:100CC0000BF0B4FD1D200BF0CDFD80239B05A3622E
:100CD000002200211D200BF0A9FD80231B03A3612E
:100CE00008F02EFE0400010000200AF055FB002C45
:100CF00011D1032007F0F8FE041C2D490EF0C2F8B4
:100D0000002811D18121C905201C0EF0ADF8002862
:100D100030D0002109E008F0C9F941424141C9B28F
:100D200004200AF039FBE4E7002101200AF034FB3B
:100D3000042007F0D9FE01241E490EF0A3F8002874
:100D400000D10024E1B20124614002200AF024FB1A
:100D5000D0231B068022D2025A615A6201AA0221C4
:100D6000154808F085FA002802D1019B002B03D01A
:100D700003B030BD0121D8E7D02424068025ED0240
:100D8000A5610E4B1B689B68152201210C4819F0C8
:100D900083FF64200CF012FC656164200CF00EFCF3
:100DA000E6E7C04603FC4F3E03FC4B3E00E0044038
:100DB0000000C04000007042662D00202815002071
:100DC000D45E0210F0B5D6464F4680B59DB00FF008
:100DD000EFFB0AF05BFC06F045FEFFF749FFFFF76B
:100DE000F7FE03900023604937E00A2202AB9C46DD
:100DF00062441070002008E05C4B9B699B06FBD4AA
:100E000014785A4B1C60013001320028F4D01EE0E7
:100E10000A2202AB9C4662440D231370002408E0B2
:100E2000524B9B699B06FBD41678504B1E600134D5
:100E30000132002CF4D01AE04C4B9B699B06FBD48A
:100E400014784A4B1C60013001320028F4D00B7832
:100E50000D3B5A425341DBB20131087800280DD0D6
:100E6000002BC2D1424B02229B5E8342D0D00A2289
:100E700002AB9C46624410700020E6E73D4B1B68C5
:100E80009868002301223C4919F094FE0CF0FEFE04
:100E900000280ED1C825012138480CF0C9FEFFF703
:100EA00049FE374A5C230021D15400270026002444
:100EB00017E0002103200AF06FFA3225EBE7D02378
:100EC0001B06802292049A6100242E4B9E421CDC59
:100ED0000B2102AB9C46614405A8FFF73FFE0028AA
:100EE0001FD10CF061FE0A200CF068FB0134A4B2A3
:100EF0000136A542E9D201235F40E0D0D0231B0692
:100F0000802292045A610024DFE71A4B1B6898681C
:100F1000002300930133039A1B4919F04BFE00266E
:100F2000D6E70CF041FED0231B06994680239B0494
:100F30009A464B4652469A610B2302AA9446634452
:100F40001A7805A9114814F0F5FB0A4B1B6898683C
:100F500005AA0F4919F02EFE32200CF02FFB4B464C
:100F600052465A61B4E7C046047002100080034044
:100F7000A4370020281500200C700210B80B0000C8
:100F8000AC2C0020DC050000247002100C36002080
:100F9000547002100023024A1370024A1360704713
:100FA000E4310020E031002010B5041E12D01AF008
:100FB00025FD0021002302E0625401310133834208
:100FC00005DAE25C0D2AF9D00A2AF5D1F6E76418B1
:100FD0000023237010BD00000023F0221201835073
:100FE000024A8350024A83507047C046040F0000F3
:100FF000080F000070B50400144D425913019B1AEC
:10100000D800201878221AF0D1FD63595A1CD11744
:10101000C90E52181F2313405B1A63510C4AA25881
:10102000002A09D0043D62590132D017C00E1218AF
:101030001F210A40121A6251F0221201A258934253
:1010400000D070BD024B0122E250FAE7040F00000D
:10105000080F0000F0B583B00500F0231B01C45851
:1010600094E06B4607331A70002204E01878554963
:10107000086001320133002A22D152498969890668
:10108000FBD4F3E76B4607330D211970002104E010
:101090001F784C48076001310133002920D14948AD
:1010A00080698006FBD4F3E718784649086001326E
:1010B0000133002A04D1434989698906FBD4F3E747
:1010C00033780D3B5A425341DBB201363278002A65
:1010D0000BD0002BC5D13C4B02215B5E9342D1D09B
:1010E0006B4607331A700022E3E70023374A33E0E8
:1010F0006B4607331970002104E01E783148066002
:1011000001310133002921D12E4880698006FBD4AA
:10111000F3E76B4607330D2018700020002825D117
:10112000284EB669B606FBD41F78264E37600130CC
:101130000133F3E71E7823480660013101330029AB
:1011400004D1204880698006FBD4F3E713780D3B77
:1011500059424B41DBB20132117800290BD0002BF0
:10116000C6D1194B02201B5E8B42D2D06B4607338F
:1011700019700021E3E70134E317DB0EE4181F22A6
:101180001440E41A124BEB58A34214D0104BEB5806
:10119000A34203D10F4BEB58002B10D00E4B1B6812
:1011A000986823011B1BDE00AE1932000B4919F0B1
:1011B00001FD00238AE7074BEB58002BE6D103B073
:1011C000F0BDC04600800340A4370020F4D20210D6
:1011D000040F0000080F00002815002084140310DD
:1011E000F0B5D64600B5AAB009900D00141C1E003B
:1011F000329F3B6801333B60FFF7CCFE0CF0D4FC20
:1012000028001AF0FBFB02002900424814F092FA71
:1012100029AA414941481AF0BFFA012849D1404959
:1012200028001AF06BFE002850D02999081C0DF0F8
:10123000CFFD29903199201C0DF0CAFD051C309975
:10124000201C0DF0C0FD0890299C291C201C0DF0CD
:1012500019FE002805D10899201C0DF005FE002874
:101260003BD0281C0DF04EFE0690079108980DF01B
:1012700049FE049005910296201C0DF043FE00905B
:101280000191099B274A78210BA80EF09FFF264B5E
:101290001B6898680BAA254919F08CFC0BA9339898
:1012A000FFF7A8FEBB680133BB602AB004BC9246BE
:1012B000F0BD1D4B1B68D868184A1D4919F07AFC0F
:1012C0001C4B2993FB680133FB60A8E71A492800EF
:1012D0001AF014FE0028A8D1ACE7134B1B689B68DA
:1012E0009A46281C0DF00EFE0690079108980DF006
:1012F00009FE049005910296201C0DF003FE00905B
:101300000191099A0D49504619F054FC7B6801334C
:101310007B60CAE70C360020B0720210E431002076
:10132000C8A60210EC7202102815002084140310C5
:10133000B4720210E1FAC7C2E47202101C73021008
:10134000F0B5A1B007000D0016001C001B680133AA
:101350002360FFF71FFE28001AF050FB020029004F
:10136000194814F0E7F9194D2800FFF71DFE0CF09D
:101370001BFC290030001AF0D7FA00280CD1144BBE
:101380001B689868114B3A00124919F013FC636806
:101390000133636021B0F0BD0C4B019300963B001C
:1013A0000D4A782102A80EF011FF094B1B689868BE
:1013B00002AA0A4919F0FEFB02A92698FFF71AFEB5
:1013C000A3680133A360E5E70C360020E431002078
:1013D000281500206C720210887202108414031009
:1013E000F0B5A1B007000D0016001C001B6801330A
:1013F0002360FFF7CFFD28001AF000FB0200290050
:10140000184814F097F9184D2800FFF7CDFD31006A
:1014100028001AF073FD00280CD0144B1B68986844
:10142000114B3A00124919F0C5FB63680133636040
:1014300021B0F0BD0C4B019300963B000D4A782182
:1014400002A80EF0C3FE094B1B68986802AA0A495D
:1014500019F0B0FB02A92698FFF7CCFDA368013371
:10146000A360E5E70C360020E431002028150020B9
:101470006C720210887202108414031070B582B06E
:101480004BE001AC0A2363700023A37034E06B4689
:10149000DA1C1570010004E015782B4B1D6001313A
:1014A0000132002922D1284B9B699B06FBD4F3E72C
:1014B0006B46DA1C0D231370010004E01678224BF2
:1014C0001E6001310132002920D11F4B9B699B0610
:1014D000FBD4F3E715781C4B1D6001310132002964
:1014E00004D1194B9B699B06FBD4F3E723780D3B92
:1014F0005A425341DBB201342578002D20D0002B15
:10150000C5D1124B02229B5EAB42D1D06B46DA1C96
:1015100015700100E3E70CF047FB0B4B9B691020B3
:101520001840F8D1020001A9002AAAD1064B9B69F4
:10153000DB06FBD4044B1B680B7001320131F3E76F
:1015400001AB187802B070BD00800340A4370020C2
:10155000F0B5DE4657464E464546E0B53C4CA54400
:1015600004000791102200213A4804AB9C466044D5
:101570000DF0A0FD384B00221A600BA8FFF72CFDE0
:10158000364B1B689B6818220121354819F084FBF3
:10159000344A04AB9C46624433481300010061C9DD
:1015A00061C361C961C30988198000233CE013232A
:1015B00004A884466344197000211323634404E0A3
:1015C0001D782A48056001310133002926D12748BA
:1015D00080698006FBD4F3E7132304A884466344A0
:1015E0000D20187000201323634404E01E781F4D63
:1015F0002E6001300133002820D11C4DAD69AD06AD
:10160000FBD4F3E71D781948056001310133002947
:1016100004D1164880698006FBD4F3E713780D3BAC
:1016200059424B41DBB201321178002922D0002B04
:10163000BDD10F4B02201B5E8B42CDD0132304A8DB
:10164000844663441970002113236344DFE7C046D6
:101650003CF0FFFF280F0000E0310020281500209B
:1016600064A00210380F000080A002100080034028
:10167000A437002000230A93079B012B17D90123CD
:1016800030220AA812F010FFFE4B1B6898680A9AD5
:10169000FD4919F08FFA21000A981AF02FFC002852
:1016A00001D100F087FE0178F8480EF0B5FFF84C44
:1016B0000E22F849200014F03DF864200BF07EFF64
:1016C0000D22F549200014F035F8FA2040000BF007
:1016D00075FF1422F149200014F02CF81522F0496E
:1016E000200014F027F81522EE49200014F022F80B
:1016F0001522ED49200014F01DF81622EB492000B8
:1017000014F018F81622EA49200014F013F81622F3
:10171000E849200014F00EF81622E749200014F0E2
:1017200009F81622E549200014F004F81722E449CC
:10173000200013F0FFFF1722E249200013F0FAFF08
:101740001722E149200013F0F5FF1722DF4920009E
:1017500013F0F0FF1722DE49200013F0EBFF1822F0
:10176000DC49200013F0E6FF1822DB49200013F0CB
:10177000E1FF1322D949200013F0DCFF1322D849DE
:10178000200013F0D7FF1322D649200013F0D2FF18
:101790000E22D549200013F0CDFF1222D34920009C
:1017A00013F0C8FF1322D249200013F0C3FF122206
:1017B000D049200013F0BEFF1522CF49200013F0BE
:1017C000B9FF0D22CD49200013F0B4FFFA200BF031
:1017D000F5FECB4B99460BAE0396CA4D04AB9C4627
:1017E00065440295C84B9B4601930093C74B4A46FC
:1017F000C749C848FFF7F4FC1522A949200013F097
:1018000099FF1522A749200013F094FF1522C24921
:10181000200013F08FFFC14F00962B00C04A390003
:10182000C048FFF78DFD1522BF49200013F082FF4D
:1018300000962B00BD4A3900BD48FFF781FD1522F7
:10184000BC49200013F076FF1522BB49200013F09D
:1018500071FF1522B949200013F06CFFB84F0096B4
:101860002B00B84A3900B848FFF76AFD1522B7497E
:10187000200013F05FFF00962B00B54A3900B548F1
:10188000FFF75EFD15228649200013F053FF152255
:101890008449200013F04EFF15228349200013F0E5
:1018A00049FF1822AC49200013F044FFAB4F0096CB
:1018B0002B00AB4A3900AB48FFF742FD182285499F
:1018C000200013F037FF00962B00A74A3900A748E5
:1018D000FFF736FD1622A649200013F02BFF152234
:1018E000A449200013F026FF1422A349200013F07E
:1018F00021FFA24B98460396029501930093834BD8
:10190000424683499E48FFF76BFC1322734920002F
:1019100013F010FF03960295FE27BF050197994B20
:101920009A460093794B4A4679499748FFF758FC05
:1019300015229649200013F0FDFE14229449200040
:1019400013F0F8FE039602954346019300936F4B04
:1019500042466F498F48FFF743FC1322604920003D
:1019600013F0E8FE03960295019753460093674BE8
:101970004A4667498848FFF733FC1522874920000B
:1019800013F0D8FE14228649200013F0D3FE0396EC
:1019900002954346019300935C4B42465C49814863
:1019A000FFF71EFC13224F49200013F0C3FE0396DD
:1019B0000295019753460093544B4A4654497A483E
:1019C000FFF70EFC17227949200013F0B3FE784F81
:1019D000039602955B460193534600934B4B4A4650
:1019E00039007448FFF7FCFB15227349200013F0FF
:1019F000A1FE11227149200013F09CFE039602956E
:101A00004346019353460093404B6D4A39006D485D
:101A1000FFF7E6FB14226C49200013F08BFE0396BF
:101A200002956A4B01936A4B0093384BFA22920558
:101A300039006848FFF7D4FB17222249200013F031
:101A400079FE15221849200013F074FE0F200BF0C8
:101A5000B5FD039602955B460193534600932B4BCD
:101A60004A465D495D48FFF7BBFB18223A49200012
:101A700013F060FE0F200BF0A1FD594F0396029565
:101A8000B0E0C046281500209CA00210B4A00210AF
:101A90000C360020FCA002100CA102101CA10210A8
:101AA00034A102104CA1021064A102107CA102100A
:101AB00094A10210ACA10210C4A10210DCA102107A
:101AC000F4A102100CA2021024A202103CA20210E7
:101AD00054A202106CA2021088A20210A4A202104A
:101AE000B8A20210CCA20210E0A20210F0A20210D2
:101AF00004A3021018A302102CA3021044A3021086
:101B00000000A040280F00009A99993E38DD02108D
:101B100054A3021068A3021088A30210A4A3021009
:101B2000A0A30210B4A30210E4A30210FCA30210AD
:101B300000A4021034A402104CA4021064A40210E9
:101B400080A402107CA4021090A40210C0A4021071
:101B5000D8A40210DCA4021010A502102CA50210BB
:101B6000D87F021044A50210ECFE021074A50210EA
:101B7000A4A50210BCA50210D4A50210CDCC4C3EE9
:101B8000ECA50210CDCCCC3E28A6021064A6021013
:101B90007CA6021094A60210D0A602100CA7021078
:101BA00024A702103CA7021078A70210B4A70210C5
:101BB000CCA70210E0A7021000A8021018A802107B
:101BC000000040402CA8021054A802100AD7A33DE0
:101BD0000AD7A33C6CA8021098A80210A8A802106B
:101BE00000004842FD4B01930093FD4B3A1CFD4918
:101BF000FD48FFF7F5FA0396029501970097FB4B16
:101C0000FB4AFC49FC48FFF7EBFA09AAFB49FC48F0
:101C100019F0C2FD09980DF075F902000B00F949A1
:101C2000F948059004A884460598604405900EF094
:101C3000B9FAF54B04AA94466344180019F0DEFE85
:101C40000200F14B04A98C4663441900200013F0F4
:101C500071FD039602954B4601930093E34BE44AD2
:101C6000E449EA48FFF7BCFA1822E949200013F0DA
:101C700061FD1822E749200013F05CFD1822E649B7
:101C8000200013F057FD1522E449200013F052FD07
:101C90001422E349200013F04DFD039602954346BC
:101CA000019353460093DF4BDF4AE049E048FFF7DA
:101CB00097FA1322DF49200013F03CFD1822D44983
:101CC000200013F037FD1522DB49200013F032FD10
:101CD0001422DA49200013F02DFD1522D8492000E6
:101CE00013F028FD1622D749200013F023FD0F2002
:101CF0000BF064FC03960295D34B9A4601934B4636
:101D00000093BA4B3A1CBB49D048FFF769FA152239
:101D1000CF49200013F00EFD1622CE49200013F00B
:101D200009FD0F200BF04AFC0396029553460193E0
:101D30004B460093AD4B3A1CAE49C748FFF750FAEB
:101D40001522BF49200013F0F5FC0F200BF036FCE4
:101D500003960295434601930093A44B0022A549A4
:101D6000BE48FFF73DFA1322BD49200013F0E2FC04
:101D70001522BC49200013F0DDFC1522B0492000DB
:101D800013F0D8FC1622AF49200013F0D3FC0F202B
:101D90000BF014FC03960295534601934B460093B7
:101DA000924B3A1C9349B048FFF71AFA1522A849FA
:101DB000200013F0BFFC1622A649200013F0BAFC45
:101DC0000F200BF0FBFB03960295534601934B4605
:101DD0000093864B3A1C8749A448FFF701FA152265
:101DE0009749200013F0A6FC0F200BF0E7FB0396A9
:101DF00002954346019300937C4B00227D499C4809
:101E0000FFF7EEF915228C49200013F093FC1822FD
:101E10008149200013F08EFC15229649200013F012
:101E200089FC16229449200013F084FC1E200BF03C
:101E3000C5FB039602950197904B00936B4B904A1C
:101E40006C499048FFF7CCF915228F49200013F018
:101E500071FC1E200BF0B2FB0396029545460195DE
:101E60000095624B002263498848FFF7B9F9884C16
:101E700015227C49200013F05DFC14226F492000DC
:101E800013F058FC16228349200013F053FC574EE0
:101E90000BAB0393804F04AB9C46674402977F4B88
:101EA0000193764B00933300754A52497C48FFF703
:101EB00097F915227B49200013F03CFC0BAB0393F0
:101EC000029701950095330000224A497648FFF7B2
:101ED00087F913226249200013F02CFC18224C4988
:101EE000200013F027FC00252E00072E00DD95E2D0
:101EF00015226E49664813F01DFC330032006C4910
:101F0000414804ACA44660440EF04CF93E4B04AA90
:101F100094466344180019F071FD02003A4B04A97D
:101F20008C46634419005A4813F004FC6B1C9A4613
:101F300000962B000A225F49334804ACA446604453
:101F40000EF030F90BAB0393534F04AB9C46674440
:101F500002973D4B99460193574B98460093234B6C
:101F60004E4A244928486044FFF73AF93200534961
:101F7000254B04A88446634418000EF013F9224B45
:101F800004AA94466344180019F038FD02001E4B61
:101F900004A98C46634419003D4813F0CBFBAB1CED
:101FA0009B46009653460A224549174804ACA4466E
:101FB00060440EF0F7F80BAB03930297414B9A463F
:101FC00001930093094B00220A490F4804ACA44630
:101FD0006044FFF705F9320076E0C0460000E040BB
:101FE000E4A80210E8A80210F8A802102CA9021018
:101FF0000000FA4330A9021040A90210B07202108A
:10200000E431002080A90210380F00009CA90210C2
:102010006CA20210DCA9021010A50210F8A902108F
:102020007CA6021038DD02100000204054A30210EC
:1020300010AA0210B8A2021064A10210D4A50210C6
:1020400044AA02105CAA02100000A04174AA021067
:10205000A4AA0210BCAA0210D4AA021004AB021057
:10206000A4A2021038AB021050AB021080AB0210D9
:10207000B0AB0210E4AB0210FCAB021000007041E8
:1020800000007A4314AC021048AC021060AC02109D
:102090000C36002094AC0210280F000000004842CB
:1020A000ACAC0210E0AC0210F8AC02102CAD021087
:1020B00044AD021060AD02100000A04098AD0210C7
:1020C000ACAD0210CDCC4C3EC049C14B04A88446F7
:1020D000634418000EF066F8BD4B04AA94466344AE
:1020E000180019F08BFC0200B94B04A98C4663441C
:1020F0001900B84813F01EFBEB1C069300965B46D4
:102100000A22B549B24804ACA44660440EF04AF82D
:102110000BAB039302974A46019242460092AF4BA3
:10212000AF4AB049AA4804ACA4466044FFF758F847
:102130003200AD49A64804AB9C4660440EF032F82C
:10214000A34A04AB9C466244100019F057FC0200FD
:102150009F4904AB9C4661449E4813F0EBFA2A1D4C
:1021600093460096069B0A22A049994804ACA446CF
:1021700060440EF017F80BAB03930297534601939C
:102180000093964B00229749914804ACA4466044C2
:10219000FFF726F8320096498D4B04A88446634425
:1021A00018000DF0FFFF8A4B04AA94466344180000
:1021B00019F024FC0200864B04A98C4663441900E4
:1021C000844813F0B7FA15228A49824813F0B2FA0C
:1021D000142289497F4813F0ADFA33003200874951
:1021E0007B4804ACA44660440DF0DCFF784B04AAA5
:1021F00094466344180019F001FC0200744B04A9D2
:102200008C4663441900734813F094FA6B1D0693CF
:1022100000965B460A227A496D4804ACA4466044A5
:102220000DF0C0FF0BAB039302974A460192424662
:1022300000926A4B6A4A6B49654804ACA446604404
:10224000FEF7CEFF32006A49614804AB9C46604409
:102250000DF0A8FF5E4A04AB9C466244100019F0E2
:10226000CDFB02005A4904AB9C466144594813F027
:1022700061FAAA1D93460096069B0A2261495448BA
:1022800004ACA44660440DF08DFF0BAB03930297A2
:10229000534601930093514B002252494C4804ACE1
:1022A000A4466044FEF79CFF32004849484B04A80E
:1022B0008446634418000DF075FF454B04AA94460C
:1022C0006344180019F09AFB0200414B04A98C46A4
:1022D000634419003F4813F02DFA00965B460A222A
:1022E00049493B4804ACA44660440DF05BFF0BAB8E
:1022F000039302974B46019343460093374B384A6A
:102300003849334804ACA4466044FEF769FF320004
:1023100035492F4B04A88446634418000DF042FF52
:102320002B4B04AA94466344180019F067FB020083
:10233000274B04A98C4663441900264813F0FAF988
:102340000096EB1D08350A223049214804ACA4460A
:1023500060440DF027FF0BAB0393029753460193A4
:1023600000931E4B00221F49194804ACA446604448
:10237000FEF736FF32001E49154B04A8844663441D
:1023800018000DF00FFF124B04AA94466344180086
:1023900019F034FB02000E4B04A98C46634419006B
:1023A0000C4813F0C7F9132219490A4813F0C2F96F
:1023B00001369AE517480EF0FFF80120164B9D44B0
:1023C0003CBC90469946A246AB46F0BDE8AD021033
:1023D000380F00000C36002000AE02102CA90210AD
:1023E0000000484230A902103CAE021050AE02106C
:1023F00098AD02108CAE021024A7021044AD02105A
:10240000A4AE0210DCAE021018AF021054AF0210DE
:10241000CCA20210E0A00210C40F0000FD4C152257
:10242000FD49200013F086F91722FC49200013F023
:1024300081F90BAF0397FA4E04AB9C4666440296B3
:10244000F84B9A460193F84B99460093F74BF84A9C
:10245000F849F948FEF7C4FE1222F849200013F0AB
:1024600069F903970296F64D01950095EF4B00220E
:10247000F049F448FEF7B4FE1722E849200013F0B3
:1024800059F903970296534601934B460093E74B45
:10249000E74AE849EC48FEF7A3FE1222EB49200088
:1024A00013F048F90397029601950095DF4B00223F
:1024B000E049E748FEF794FE1522E649200013F0B4
:1024C00039F91422E449200013F034F91722D349D2
:1024D000200013F02FF903970296534601934B46C1
:1024E0000093D24BD24AD349DC48FEF779FE122240
:1024F000D249200013F01EF903970296019500952A
:10250000CA4B0022CB49D648FEF76AFE1722C349C0
:10251000200013F00FF903970296534601934B46A0
:102520000093C24BC24AC349CE48FEF759FE12225D
:10253000C649200013F0FEF8039702960195009516
:10254000BA4B0022BB49C848FEF74AFE1322C749CE
:10255000200013F0EFF800252E00072E00DD5DE2CD
:102560001522BC49AB4813F0E5F81422C049A9482C
:1025700013F0E0F833003200BE49BF4804ACA44673
:1025800060440DF00FFEBC4B04AA9446634418004F
:1025900019F034FA0200B84B04A98C4663441900C0
:1025A0009C4813F0C7F81E200BF008F86B1C9A46E5
:1025B00000962B000C22B149AF4804ACA4466044FD
:1025C0000DF0F0FD0BAB0393954F04AB9C466744B5
:1025D0000297944B99460193934B98460093934BE3
:1025E000934A9449A4486044FEF7FAFD3200A44996
:1025F000A14B04A88446634418000DF0D3FD9E4B04
:1026000004AA94466344180019F0F8F902009A4BA2
:1026100004A98C46634419007E4813F08BF8AB1C68
:102620009B46009653460C229649934804ACA44618
:1026300060440DF0B7FD0BAB03930297804B9A46B5
:1026400001930093794B00227A498B4804ACA4464D
:102650006044FEF7C5FD32008B49874B04A88446D1
:10266000634418000DF09EFD834B04AA9446634416
:10267000180019F0C3F902007F4B04A98C4663448B
:102680001900644813F056F8EB1C069300965B465D
:102690000C227E49784804ACA44660440DF082FDCB
:1026A0000BAB039302974A460192424600925F4B5E
:1026B0005F4A6049704804ACA4466044FEF790FD50
:1026C000320073496C4804AB9C4660440DF06AFDCF
:1026D000694A04AB9C466244100019F08FF902006D
:1026E000654904AB9C4661444A4813F023F82A1D0F
:1026F00093460096069B0C2266495F4804ACA446AC
:1027000060440DF04FFD0BAB0393029753460193CA
:102710000093464B00224749574804ACA446604406
:10272000FEF75EFD32005649534B04A884466344CD
:1027300018000DF037FD504B04AA9446634418006E
:1027400019F05CF902004C4B04A98C466344190053
:10275000304812F0EFFF13224F492E4812F0EAFFE3
:1027600015224E492B4812F0E5FF18224C49294802
:1027700012F0E0FF1E200AF021FF330032003D4935
:102780003D4804ACA44660440DF00CFD3A4B04AA4D
:1027900094466344180019F031F90200364B04A93D
:1027A0008C46634419001B4812F0C4FF6B1D06934E
:1027B00000965B460C223B492F4804ACA44660447B
:1027C0000DF0F0FC0BAB039302974A460192424690
:1027D0000092164B164A1749274804ACA446604499
:1027E000FEF7FEFC32002649234804AB9C466044B9
:1027F0000DF0D8FC204A04AB9C466244100019F04E
:10280000FDF802001C4904AB9C466144014812F0EB
:1028100091FF49E00C3600208CAE021090AF021000
:10282000280F00000000A0410000A0402CA90210C9
:102830000000484230A90210A8AF0210E0AF021019
:10284000CDCC4C3EF4AF021030B0021068B0021094
:102850007CB002102CAD021024A70210B8B00210F8
:10286000F0B002102CB1021064B10210CCA2021020
:102870007CA60210A0B10210380F0000BCB10210FB
:10288000F4B1021008B2021044B202105CB202109D
:1028900098B20210ACB20210B8A20210E8B2021054
:1028A00000B302101CB30210AA1D93460096069BAB
:1028B0000C224E494E4804ACA44660440DF072FC14
:1028C0000BAB03930297534601930093494B0022AD
:1028D0004949474804ACA4466044FEF781FC3200F5
:1028E0004649434B04A88446634418000DF05AFC43
:1028F0003F4B04AA94466344180019F07FF8020085
:102900003B4B04A98C46634419003D4812F012FF6A
:1029100000965B460C223B49354804ACA446604413
:102920000DF040FC0BAB039302974B4601934346DB
:102930000093304B344A30492D4804ACA4466044DF
:10294000FEF74EFC32003149294B04A8844663440B
:1029500018000DF027FC264B04AA94466344180087
:1029600019F04CF80200224B04A98C46634419006C
:10297000234812F0DFFE0096EB1D08350C22244997
:102980001B4804ACA44660440DF00CFC0BAB039355
:102990000297534601930093164B002216491448A0
:1029A00004ACA4466044FEF71BFC32001949104BEE
:1029B00004A88446634418000DF0F4FB0C4B04AAF1
:1029C00094466344180019F019F80200084B04A952
:1029D0008C46634419000A4812F0ACFE17220E49D7
:1029E000074812F0A7FE0136B7E5C04654B30210FF
:1029F000380F00002CA9021030A9021044B20210B6
:102A00000C36002090B302100000484298B2021029
:102A1000CCB30210F4B1021008B40210FD4C152220
:102A2000FD49200012F086FE1422FC49200012F01D
:102A300081FE1722FA49200012F07CFE1E200AF0C7
:102A4000BDFD0BAD0395F74F04AB9C466744029761
:102A5000F54B9A460193F54B99460093F44BF54A92
:102A6000F549F648FEF7BCFB1222F549200012F0AA
:102A700061FE03950297F34E01960096EC4B0022FF
:102A8000ED49F148FEF7ACFB1722E549200012F0B2
:102A900051FE03950297534601934B460093E44B36
:102AA000E44AE549E948FEF79BFB1222E849200089
:102AB00012F040FE0395029701960096DC4B00222F
:102AC000DD49E448FEF78CFB1522E349200012F0B3
:102AD00031FE1822E149200012F02CFE1722D049C5
:102AE000200012F027FE1E200AF068FD03950297D1
:102AF000534601934B460093CD4BCE4ACE49D8481E
:102B0000FEF76EFB1222CE49200012F013FE039551
:102B1000029701960096C64B0022C749D148FEF79E
:102B20005FFB1722BE49200012F004FE03950297B6
:102B3000534601934B460093BD4BBE4ABE49CA481B
:102B4000FEF74EFB1222C249200012F0F3FD03955E
:102B5000029701960096B64B0022B749C348FEF78C
:102B60003FFB1722C249200012F0E4FD1222C149A6
:102B7000200012F0DFFD00953B00BF4ABF49C0486E
:102B8000FEF7DEFB00953B00BB4ABE49BE48FEF7A0
:102B9000D7FB0E22BD49200012F0CCFD1222BC4909
:102BA000200012F0C7FD1322BA49200012F0C2FD26
:102BB0001222B949200012F0BDFD00953B00B74A32
:102BC000B749B848FEF7BCFB00953B00AA4AB64996
:102BD000B648FEF7B5FBB64E00953B003200B5494E
:102BE000B548FEF7ADFB00953B003200B349B44851
:102BF000FEF7A6FB0E22B349200012F09BFD132224
:102C0000B149200012F096FD1322B049200012F0C5
:102C100091FD1222AE49200012F08CFDAD4E0095C0
:102C20003B009E4A3100AC48FEF78AFB1222AB49BA
:102C3000200012F07FFD00953B008F4A3100A8482C
:102C4000FEF77EFB1222A749200012F073FDA64E6C
:102C500000953B00914A3100A448FEF771FB122217
:102C6000A349200012F066FD00953B00824A310026
:102C7000A048FEF765FB12229F49200012F05AFD82
:102C80009E4E00953B00854A31009D48FEF758FB5B
:102C900012229C49200012F04DFD00953B00764A1F
:102CA00031009948FEF74CFB12229849200012F09F
:102CB00041FD974E00953B00784A31009548FEF75C
:102CC0003FFB12229449200012F034FD00953B0096
:102CD000694A31009148FEF733FB0F2290492000EA
:102CE00012F028FD0D228F49200012F023FD122240
:102CF0008D49200012F01EFD12228C49200012F096
:102D000019FD16228A49200012F014FD894E142262
:102D10003100200012F00EFDFA200AF04FFC1B22B9
:102D20008549200012F006FD00953B00834A844946
:102D30008448FEF705FB16228349200012F0FAFCB6
:102D40000E228249200012F0F5FC142231002000EE
:102D500012F0F0FC19227E49200012F0EBFC0095E5
:102D60003B007C4A7C497D48FEF7EAFA0D227C490B
:102D7000200012F0DFFC16227A49200012F0DAFC63
:102D800014223100200012F0D5FC192276492000CF
:102D900012F0D0FC00953B00744A6F497448FEF76E
:102DA000CFFA0D227349200012F0C4FC162272499A
:102DB000200012F0BFFC14223100200012F0BAFCF7
:102DC00019226E49200012F0B5FC00953B006C4AB8
:102DD00061496C48FEF7B4FA0D226B49200012F0ED
:102DE000A9FC16226949200012F0A4FC142231002B
:102DF000200012F09FFC19226549200012F09AFC75
:102E000000953B00634A54496348FEF799FA132240
:102E1000C4E0C0460C360020E8B202107CA60210C6
:102E200020B40210280F00000000A0410000A040C4
:102E30002CA902100000484230A9021038B4021038
:102E400070B40210CDCC4C3E84B40210C0B4021059
:102E5000F8B402100CB502102CAD021000B3021031
:102E600048B5021080B50210BCB50210F4B50210CE
:102E700008B4021030B60210D87F021044B6021017
:102E80005CB6021080B6021098B60210E0A20210E2
:102E9000F0A2021004A3021018A30210ECFE02100C
:102EA000BCB60210D8B6021000B702101CB7021050
:102EB00090F7021044B7021060B7021090B70210EA
:102EC000ACB70210DCB70210ECB7021000B8021069
:102ED00014B8021028B8021040B8021070B80210DE
:102EE00084B80210B4B80210C8B80210E0B80210DA
:102EF00010B9021024B9021054B9021068B90210B6
:102F000080B90210B0B90210C4B90210F4B90210AD
:102F100008BA021020BA021050BA021064BA0210A5
:102F200094BA0210A4BA0210B4BA0210C8BA0210BD
:102F3000DCBA0210F4BA02100CBB021028BB02105B
:102F400030BB02104CBB02107CBB021094BB0210C1
:102F5000A4BB0210C0BB0210C4BB0210E0BB021035
:102F600014BC021024BC02103CBC021058BC02105D
:102F70005CBC021094BC0210A4BC0210BCBC0210C9
:102F8000D8BC0210DCBC021014BD021024BD02101B
:102F90003CBD021058BD02105CBD0210D14920009A
:102FA00012F0C8FB1322D049200012F0C3FB1222FA
:102FB000CE49200012F0BEFB1622CD49200012F0AF
:102FC000B9FB1322CB49200012F0B4FB1322CA49EB
:102FD000200012F0AFFBC94E00953B00C84A3100FB
:102FE000C848FEF7ADF91322C749200012F0A2FB32
:102FF00000953B00C54A3100C548FEF7A1F91322F0
:10300000C449200012F096FBC34E00953B00BC4A19
:103010003100C248FEF794F91322C149200012F092
:1030200089FB00953B00B94A3100BE48FEF788F99C
:103030001322BD49200012F07DFBBC4E00953B00E1
:10304000AF4A3100BA48FEF77BF91322B949200094
:1030500012F070FB00953B00AC4A3100B648FEF719
:103060006FF91322B549200012F064FBB44E0095AD
:103070003B00A34A3100B348FEF762F91322B2497C
:10308000200012F057FB00953B00A04A3100AF48EA
:10309000FEF756F91522AE49200012F04BFB0095C1
:1030A0003B009A4AAB49AC48FEF74AF91922AB49B2
:1030B000200012F03FFB1A22A949200012F03AFB2F
:1030C00012228A49200012F035FB1C22A54920005B
:1030D00012F030FB1922A449200012F02BFB16221B
:1030E000A249200012F026FBA14E1522310020003B
:1030F00012F020FB1E200AF061FA00953B009D4A69
:103100009D499E48FEF71CF91B229D49200012F0A4
:1031100011FB19229B49200012F00CFB16229A4940
:10312000200012F007FB15223100200012F002FBF4
:103130001E200AF043FA00953B00944A94499548B2
:10314000FEF7FEF81A228649200012F0F3FA1B223D
:103150009149200012F0EEFA19229049200012F055
:10316000E9FA16228E49200012F0E4FA1522310005
:10317000200012F0DFFA1E200AF020FA00953B0032
:10318000884A89498948FEF7DBF8192288492000D6
:1031900012F0D0FA1B228749200012F0CBFA192234
:1031A0008549200012F0C6FA16228449200012F048
:1031B000C1FA834C15228349200012F0BBFA1E206D
:1031C0000AF0FCF90BAD00957F4B04AA94466344CA
:1031D0007E4A7F497F48FEF7B3F815227E492000DA
:1031E00012F0A8FA15227D49200012F0A3FA0095EA
:1031F000754B04AA94466344794A7A497A48FEF7A3
:10320000EFF80095704B04AA94466344774A7849D6
:103210007848FEF7E5F812223449200012F08AFAC5
:1032200013227549200012F085FA132273492000F9
:1032300012F080FA724E0095634B04AA94466344E0
:103240002F4A31006F48FEF77BF814226E492000A8
:1032500012F070FA00955C4B04AA944663442B4A22
:1032600031006A48FEF76CF8079B032B00D1DFE0C2
:10327000674D2B689B6820220121664817F00CFDE2
:103280002B689868504C04AB9C46644422686249A1
:1032900017F090FC2B6898686268604917F08AFC08
:1032A0002B689868A2685E4917F084FC2B689868C0
:1032B000E2685C4917F07EFC6368E2680192A268EC
:1032C0000092414A04A98C46624412685649574804
:1032D00060440CF067FF0023544A04A98C46624402
:1032E00023E2C046ECB7021000B8021018A3021087
:1032F00094BD0210ACBD0210C0BD0210D4BD0210BE
:10330000ECFE0210ECBD021024BE0210D87F0210A9
:1033100038BE021070BE021084BE02109CBE0210A5
:10332000D4BE0210E8BE021020BF021034BF02104B
:103330004CBF021084BF021098BF0210D0BF021011
:10334000E4BF0210FCBF021034C0021048C00210DB
:1033500080C0021098C00210B0C00210D0C002108D
:10336000ECC0021008C1021028C1021044C10210B2
:103370005CC1021074C1021088C10210B0C10210F9
:10338000DCC10210F8C1021014C202102CC20210DB
:1033900040C2021068C2021094C20210B0C20210F1
:1033A000CCC20210E4C20210F8C2021020C3021004
:1033B0004CC3021068C3021084C30210A0C30210E1
:1033C0000C360020B8C30210280F0000D0C3021032
:1033D000E8C3021014C4021044C402105CC40210FA
:1033E00074C4021084C4021098C40210C0C4021035
:1033F000CCC40210E0C4021008C502101CC50210A3
:1034000030C502104CC502101CA102108CC5021060
:1034100028150020A4CC0210C8CC0210ECCC02105D
:103420000CCD02102CCD02104CCD0210380F000034
:10343000E84C1622E849200012F07CF91622E749F0
:10344000200012F077F91722E549200012F072F9F6
:10345000E44E0BAD0095E44B04AA9446634432005D
:10346000E249E348FDF76CFF0095DF4B04AA944660
:1034700063443200DF49E048FDF762FF1722DF496D
:10348000200012F057F9DE4F0095D74B04AA94465E
:1034900063443A00D549DB48FDF752FF0095D24B13
:1034A00004AA944663443A00D249D748FDF748FF3E
:1034B0001722CB49200012F03DF90095CA4B04AA0F
:1034C000944663443200CB49D048FDF739FF1722B8
:1034D000CA49200012F02EF91622CD49200012F020
:1034E00029F91622CB49200012F024F91722CA49E3
:1034F000200012F01FF90095BB4B04AA94466344C8
:103500003200BC49C548FDF71BFF0095B64B04AA25
:10351000944663443200B549C148FDF711FF1722B4
:10352000C049200012F006F90095AF4B04AA94465A
:1035300063443A00AF49BC48FDF702FF0095AA4B2F
:1035400004AA944663443A00A849B848FDF7F8FE37
:103550001722B149200012F0EDF80095A24B04AA01
:10356000944663443200A149B148FDF7E9FE1722B1
:10357000AC49200012F0DEF81322AE49200012F010
:10358000D9F81322AC49200012F0D4F81322AB4929
:10359000200012F0CFF80095934B04AA94466344A0
:1035A0003200A749A748FDF7CBFE00958E4B04AA31
:1035B000944663443200A449A448FDF7C1FE132297
:1035C000A349200012F0B6F80095874B04AA944650
:1035D00063443A009A499F48FDF7B2FE0095824B3A
:1035E00004AA944663443A0097499B48FDF7A8FE15
:1035F00013229249200012F09DF8132297492000CF
:1036000012F098F813229649200012F093F8132232
:103610009449200012F08EF813229349200012F0F2
:1036200089F80095704B04AA9446634432008F4990
:103630008F48FDF785FE00956B4B04AA94466344C2
:1036400032008C498C48FDF77BFE0095664B04AA3E
:1036500094466344320089498948FDF771FE13227C
:103660008849200012F066F800955F4B04AA944642
:1036700063443A007D498448FDF762FE00955A4B49
:1036800004AA944663443A007A498048FDF758FEFC
:103690000095554B04AA944663443A0077497C4808
:1036A000FDF74EFE13227049200012F043F8DFE5CB
:1036B000132304A884466344197000211323634430
:1036C00004E01C787348046001310133002926D1DD
:1036D000704880698006FBD4F3E7132304A884466E
:1036E00063440D20187000201323634404E01D7808
:1036F000684C256001300133002820D1654CA46955
:10370000A406FBD4F3E71C7862480460013101335E
:10371000002904D15F4880698006FBD4F3E7137861
:103720000D3B59424B41DBB20132117800290FD0D9
:10373000002BBDD1584B02201B5E8B42CDD01323F2
:1037400004A8844663441970002113236344DFE70F
:10375000F3231B0104AA944663441B68002B04DC7A
:103760004E4B63441B68002B0FDD14224C49194853
:1037700011F0E0FF4B4B1B689B68162201214A4861
:1037800017F08AFA0BA8FDF765FC484A04AB9C4683
:10379000624447481300010031C931C311C911C344
:1037A000097819700023ACE0132304A8844663440D
:1037B000197000211323634404E01C783548046029
:1037C00001310133002900D095E03248806980063C
:1037D000FBD4F2E70C360020CCC5021094A10210F5
:1037E000E4C50210ECFE0210280F0000FCC5021018
:1037F00014C602104CC6021064C602109CC6021009
:10380000D87F0210B4C60210ECC6021024C7021002
:103810007CA102105CC7021074C702108CC7021092
:10382000C4C70210FCC7021014C802104CC8021012
:1038300084C80210BCC80210D0C80210E4C802102C
:10384000F8C8021014C9021058C9021074C9021035
:10385000B8C90210CCC9021010CA021054CA021012
:1038600068CA02107CCA021090CA0210A4CA0210D0
:10387000C0CA021004CB021020CB021064CB02108D
:1038800080CB0210C4CB0210D8CB02101CCC02108B
:1038900060CC021000800340A4370020340F0000E9
:1038A00094CD021028150020ACCD0210380F000076
:1038B000C4CD0210132304A8844663440D2018705D
:1038C000002013236344002828D1194CA469A406BE
:1038D000FBD41D78164C256001300133F3E71C78CA
:1038E0001348046001310133002904D11048806974
:1038F0008006FBD4F3E713780D3B59424B41DBB212
:1039000001321178002901D1FEF758FD002B00D0BB
:103910004AE7084B02201B5E8B42CBD0132304A83E
:10392000844663441970002113236344DCE7C046D6
:1039300000800340A437002030B5A1B0D24C0E2245
:10394000D249200011F0F6FE642009F037FE0D2266
:10395000CF49200011F0EEFEFA20400009F02EFEC3
:103960001422CC49200011F0E5FE1522CA4920009E
:1039700011F0E0FE1522C949200011F0DBFE1522EE
:10398000C749200011F0D6FE1622C649200011F0CA
:10399000D1FE1622C449200011F0CCFE1622C349E4
:1039A000200011F0C7FE1622C149200011F0C2FE0E
:1039B0001622C049200011F0BDFE1722BE4920008A
:1039C00011F0B8FE1722BD49200011F0B3FE1722F6
:1039D000BB49200011F0AEFE1722BA49200011F0B9
:1039E000A9FE1722B849200011F0A4FE1822B749F9
:1039F000200011F09FFE1822B549200011F09AFE18
:103A00001322B449200011F095FE1322B249200080
:103A100011F090FE1322B149200011F08BFE0E220E
:103A2000AF49200011F086FE1222AE49200011F0AD
:103A300081FE1322AC49200011F07CFE1222AB491A
:103A4000200011F077FE1522A949200011F072FE26
:103A50000D22A849200011F06DFEFA2009F0AEFDFC
:103A6000A54B00229A6302A9A4480B00020031CAA8
:103A700031C331CA31C312681A60002334E06B4687
:103A800007331A70002204E01C789B48046001325E
:103A90000133002A22D1984880698006FBD4F3E7DD
:103AA0006B4607330D201870002004E01D78924CFF
:103AB000256001300133002820D18F4CA469A40671
:103AC000FBD4F3E71C788C48046001320133002AF0
:103AD00004D1894880698006FBD4F3E70B780D3B5D
:103AE0005A425341DBB201310A78002A0BD0002B35
:103AF000C5D1834B02201B5E9342D1D06B46073366
:103B00001A700022E3E702A97E480B00020031CAC6
:103B100031C331CA31C331CA31C311CA11C310888C
:103B2000188092789A70002333E06B4607331A703E
:103B3000002204E01C787048046001320133002A3E
:103B400021D16D4880698006FBD4F3E76B460733CB
:103B50000D2018700020002825D1674CA469A40608
:103B6000FBD41D78644C256001300133F3E71C78E9
:103B70006148046001320133002A04D15E48806943
:103B80008006FBD4F3E70B780D3B5A425341DBB27E
:103B900001310A78002A0BD0002BC6D1584B0220E5
:103BA0001B5E9342D2D06B4607331A700022E3E7C4
:103BB00002A955480B00020031CA31C331CA31C3D2
:103BC00031CA31C311CA11C312881A80002334E0EC
:103BD0006B4607331A70002204E01C7846480460E4
:103BE00001320133002A22D1434880698006FBD488
:103BF000F3E76B4607330D201870002004E01D78B2
:103C00003D4C256001300133002820D13A4CA46995
:103C1000A406FBD4F3E71C78374804600132013373
:103C2000002A04D1344880698006FBD4F3E70B787E
:103C30000D3B5A425341DBB201310A78002A0BD0C6
:103C4000002BC5D12E4B02201B5E9342D1D06B4678
:103C500007331A700022E3E74A322C4902A80BF01E
:103C60002FFA002302AA77E06B4607331970002170
:103C700000296BD1204880698006FBD41C781E483F
:103C8000046001310133F3E70C360020FCA0021080
:103C90000CA102101CA1021034A102104CA10210B0
:103CA00064A102107CA1021094A10210ACA1021028
:103CB000C4A10210DCA10210F4A102100CA2021097
:103CC00024A202103CA2021054A202106CA2021004
:103CD00088A20210A4A20210B8A20210CCA2021064
:103CE000E0A20210F0A2021004A3021018A3021016
:103CF0002CA3021044A3021000800340489302103A
:103D0000A43700206493021094930210C49302100D
:103D10006B4607330D201870002004E01D78BD4C61
:103D2000256001300133002821D1BA4CA469A406D2
:103D3000FBD4F3E71C78B748046001310133002954
:103D400004D1B44880698006FBD4F3E713780D3BB7
:103D500059424B41DBB20132117800290CD0002BC3
:103D600000D081E7AC4B02201B5E8B42D0D06B466B
:103D7000073319700021E2E7FDF780FBFA204000CD
:103D800009F01CFC1622A549A54811F0D3FC02A994
:103D9000A4480B00020031CA31C331CA31C331CA51
:103DA00031C331CA31C3002334E06B4607331A7084
:103DB000002204E01C789748046001320133002A95
:103DC00022D1944880698006FBD4F3E76B46073321
:103DD0000D201870002004E01D788E4C2560013005
:103DE0000133002820D18B4CA469A406FBD4F3E74F
:103DF0001C788848046001320133002A04D18548C8
:103E000080698006FBD4F3E70B780D3B5A4253419F
:103E1000DBB201310A78002A0BD0002BC5D17E4BD2
:103E200002201B5E9342D1D06B4607331A700022EA
:103E3000E3E73B327C4902A80BF042F9002302AAD7
:103E400034E06B4607331970002104E01C78714898
:103E5000046001310133002922D16E488069800657
:103E6000FBD4F3E76B4607330D201870002004E005
:103E70001D78684C256001300133002820D1654C45
:103E8000A469A406FBD4F3E71C78624804600131FE
:103E90000133002904D15F4880698006FBD4F3E731
:103EA00013780D3B59424B41DBB2013211780029A6
:103EB0000BD0002BC5D1584B02201B5E8B42D1D0BA
:103EC0006B46073319700021E3E7FDF7D7FAFA20B4
:103ED000400009F073FB4E22544902A80BF0F0F8A1
:103EE000002302AA34E06B4607331970002104E076
:103EF0001C784848046001310133002922D145482B
:103F000080698006FBD4F3E76B4607330D201870F9
:103F1000002004E01D783F4C25600130013300286B
:103F200020D13C4CA469A406FBD4F3E71C783948A3
:103F3000046001310133002904D1364880698006CC
:103F4000FBD4F3E713780D3B59424B41DBB201320E
:103F5000117800290BD0002BC5D12F4B02201B5EFE
:103F60008B42D1D06B46073319700021E3E7FDF790
:103F700085FAFA20400009F021FB294C16222C4931
:103F8000200011F0D7FB15222A49200011F0D2FBA6
:103F900018222949200011F0CDFB142227492000C6
:103FA00011F0C8FB4C22264902A80BF089F8002327
:103FB00002AA4DE06B4607331970002104E01C781B
:103FC000144804600131013300293BD11148806954
:103FD0008006FBD4F3E76B4607330D2018700020F2
:103FE00004E01D780B4C256001300133002839D1E5
:103FF000084CA469A406FBD4F3E71C7805480460C8
:104000000131013300291DD1024880698006FBD4AB
:10401000F3E7C04600800340A4370020109402104C
:104020000C36002028940210589402109494021028
:10403000DCA10210E494021010A50210D4A5021015
:10404000FC94021013780D3B59424B41DBB2013214
:10405000117800290BD0002BACD1C64B02201B5E7F
:104060008B42B8D06B46073319700021CAE7FDF7C1
:1040700005FAFA20400009F0A1FABF4C1822BF4906
:10408000200011F057FB1522BD49200011F052FB12
:1040900002A9BC480B00020031CA31C331CA31C386
:1040A00011CA11C31088188092789A70002334E0E6
:1040B0006B4607331A70002204E01C78B248046093
:1040C00001320133002A22D1AF4880698006FBD437
:1040D000F3E76B4607330D201870002004E01D78CD
:1040E000A94C256001300133002820D1A64CA469D9
:1040F000A406FBD4F3E71C78A34804600132013323
:10410000002A04D1A04880698006FBD4F3E70B782D
:104110000D3B5A425341DBB201310A78002A0BD0E1
:10412000002BC5D1934B02201B5E9342D1D06B462E
:1041300007331A700022E3E7FDF7A0F9FA204000E8
:1041400009F03CFA132291498B4811F0F3FA5122FD
:104150008F4902A80AF0B4FF002302AA34E06B469C
:1041600007331970002104E01C788748046001318E
:104170000133002922D1844880698006FBD4F3E70B
:104180006B4607330D201870002008E07E4CA469B0
:10419000A406FBD41D787C4C256001300133002837
:1041A000F4D01BE01C787848046001310133002909
:1041B00004D1754880698006FBD4F3E713780D3B82
:1041C00059424B41DBB20132117800290BD0002B50
:1041D000C5D1684B02201B5E8B42D1D06B460733A2
:1041E00019700021E3E7FDF749F9FA20400009F0D2
:1041F000E5F95822674902A80AF062FF002302AAE3
:1042000034E06B4607331970002104E01C785E48E7
:10421000046001310133002922D15B4880698006A6
:10422000FBD4F3E76B4607330D201870002004E041
:104230001D78554C256001300133002820D1524CA7
:10424000A469A406FBD4F3E71C784F48046001314D
:104250000133002904D14C4880698006FBD4F3E780
:1042600013780D3B59424B41DBB2013211780029E2
:104270000BD0002BC5D13F4B02201B5E8B42D1D00F
:104280006B46073319700021E3E7FDF7F7F8FA20D2
:10429000400009F093F916223F49374811F04AFAD5
:1042A0004D223E4902A80AF00BFF002302AA34E087
:1042B0006B4607331970002104E01C783248046013
:1042C00001310133002922D12F4880698006FBD4B7
:1042D000F3E76B4607330D201870002004E01D78CB
:1042E000294C256001300133002820D1264CA469D7
:1042F000A406FBD4F3E71C782348046001310133A2
:10430000002904D1204880698006FBD4F3E71378A4
:104310000D3B59424B41DBB20132117800290BD0E1
:10432000002BC5D1134B02201B5E8B42D1D06B46B4
:10433000073319700021E3E7FDF7A0F8FA204000E9
:1043400009F03CF90C4C16221549200011F0F2F945
:1043500018221449200011F0EDF94F22124902A849
:104360000AF0AEFE002302AA4FE06B460733197035
:10437000002120E0A43700200C3600206CA202109F
:10438000E49402104895021000800340A4A2021099
:104390006C950210C095021018960210309602100B
:1043A0008096021010A50210989602101C78BE4844
:1043B000046001310133002921D1BB4880698006A6
:1043C000FBD4F3E76B4607330D201870002000285C
:1043D00025D1B54CA469A406FBD41D78B24C256048
:1043E00001300133F3E71C78AF4804600131013339
:1043F000002904D1AC4880698006FBD4F3E7137828
:104400000D3B59424B41DBB20132117800290BD0F0
:10441000002BAAD1A54B02201B5E8B42D2D06B464B
:10442000073319700021E3E7FDF728F8FA20400070
:1044300009F0C4F89E4C18229E49200011F07AF928
:1044400016229D49200011F075F916229B49200083
:1044500011F070F93E229A4902A80AF031FE0023B9
:1044600002AA34E06B4607331970002104E01C787F
:104470008D48046001310133002922D18A488069C6
:104480008006FBD4F3E76B4607330D20187000203D
:1044900004E01D78844C256001300133002820D1D0
:1044A000814CA469A406FBD4F3E71C787E48046021
:1044B00001310133002904D17B4880698006FBD497
:1044C000F3E713780D3B59424B41DBB201321178CF
:1044D00000290BD0002BC5D1744B02201B5E8B42F0
:1044E000D1D06B46073319700021E3E733227549B9
:1044F00002A80AF0E5FD002302AA34E06B46073368
:104500001970002104E01C78674804600131013310
:10451000002922D1644880698006FBD4F3E76B460A
:1045200007330D201870002004E01D785E4C2560D4
:1045300001300133002820D15B4CA469A406FBD4D0
:10454000F3E71C785848046001310133002904D195
:10455000554880698006FBD4F3E713780D3B594238
:104560004B41DBB20132117800290BD0002BC5D1B1
:104570004E4B02201B5E8B42D1D06B460733197025
:104580000021E3E7FCF77AFFFA20400009F016F873
:104590004E224D4902A80AF093FD002302AA32E000
:1045A0006B46073319700021002926D13E488069E7
:1045B0008006FBD41C783C48046001310133F3E7EA
:1045C0006B4607330D2018700020002825D1364C8B
:1045D000A469A406FBD41D78334C25600130013357
:1045E000F3E71C783048046001310133002904D11D
:1045F0002D4880698006FBD4F3E713780D3B5942C0
:104600004B41DBB20132117800290BD0002BC7D10E
:10461000264B02201B5E8B42D2D06B4607331970AB
:104620000021E3E7FCF72AFFFA20400008F0C6FF6C
:10463000182226491E4811F07DF84E22244902A86E
:104640000AF03EFD002302AA4AE06B4607331970C8
:10465000002104E01C781448046001310133002972
:1046600038D1114880698006FBD4F3E76B460733E5
:104670000D201870002004E01D780B4C25600130DF
:104680000133002836D1084CA469A406FBD4F3E713
:104690001C78054804600131013300291AD1024811
:1046A00080698006FBD4F3E700800340A437002034
:1046B0000C3600206CA20210E8960210009702103F
:1046C00018970210589702108C97021010A502102C
:1046D000DC97021013780D3B59424B41DBB201329B
:1046E000117800290BD0002BAFD1C44B02201B5EE8
:1046F0008B42BBD06B46073319700021CDE7FCF726
:10470000BDFEFA20400008F059FF1822BC49BD4800
:1047100011F010F802A9BC480B00020031CA31C3E5
:1047200031CA31C331CA31C331CA31C3002334E085
:104730006B4607331A70002204E01C78B34804600B
:1047400001320133002A22D1B04880698006FBD4AF
:10475000F3E76B4607330D201870002008E0AB4CE0
:10476000A469A406FBD41D78A84C25600130013350
:104770000028F4D01BE01C78A44804600132013307
:10478000002A04D1A14880698006FBD4F3E70B78A6
:104790000D3B5A425341DBB201310A78002A0BD05B
:1047A000002BC5D1954B02201B5E9342D1D06B46A6
:1047B00007331A700022E3E702A995480B000200B4
:1047C00031CA31C331CA31C311CA11C3002333E026
:1047D0006B4607331A70002204E01C788B48046093
:1047E00001320133002A21D1884880698006FBD438
:1047F000F3E76B4607330D2018700020002825D101
:10480000824CA469A406FBD41D78804C256001303D
:104810000133F3E71C787D48046001320133002A3C
:1048200004D17A4880698006FBD4F3E70B780D3B0E
:104830005A425341DBB201310A78002A0BD0002BD7
:10484000C6D16E4B02201B5E9342D2D06B4607331B
:104850001A700022E3E744326E4902A80AF030FCE5
:10486000002302AA34E06B4607331970002104E0EC
:104870001C786648046001310133002922D1634865
:1048800080698006FBD4F3E76B4607330D20187070
:10489000002004E01D785D4C2560013001330028C4
:1048A00020D15A4CA469A406FBD4F3E71C785748DE
:1048B000046001310133002904D154488069800625
:1048C000FBD4F3E713780D3B59424B41DBB2013285
:1048D000117800290BD0002BC5D1484B02201B5E5C
:1048E0008B42D1D06B46073319700021E3E7FCF708
:1048F000C5FDFA20400008F061FE424C18224649EE
:10490000200010F017FF15224449200010F012FF7C
:1049100014224349200010F00DFF4E22414902A805
:104920000AF0CEFB002302AA34E06B46073319706D
:10493000002104E01C78354804600131013300296E
:1049400022D1324880698006FBD4F3E76B460733F7
:104950000D201870002004E01D782C4C25600130DB
:104960000133002820D1294CA469A406FBD4F3E725
:104970001C782648046001310133002904D1234802
:1049800080698006FBD4F3E713780D3B59424B4115
:10499000DBB20132117800290BD0002BC5D1174BA7
:1049A00002201B5E8B42D1D06B4607331970002169
:1049B000E3E7FCF763FDFA20400008F0FFFD162254
:1049C0001949104810F0B6FE4722184902A80AF00B
:1049D00077FB002302AA4EE06B46073319700021D3
:1049E00004E01C78094804600131013300293CD1FE
:1049F000064880698006FBD4F3E7C046A437002050
:104A00006CA202100C360020289402100080034093
:104A10002C9802104C98021010A5021090980210C9
:104A2000D4A50210A898021094AC0210F8980210B5
:104A30006B4607330D2018700020002825D1C54C87
:104A4000A469A406FBD41D78C24C25600130013353
:104A5000F3E71C78BF48046001310133002904D119
:104A6000BC4880698006FBD4F3E713780D3B5942BC
:104A70004B41DBB20132117800290BD0002BABD1B6
:104A8000B54B02201B5E8B42D2D06B4607331970A8
:104A90000021E3E7FCF7F2FCFA20400008F08EFD6D
:104AA0001522AE49AE4810F045FE4522AD4902A898
:104AB0000AF006FB002302AA34E06B4607331970A4
:104AC000002104E01C78A34804600131013300296F
:104AD00022D1A04880698006FBD4F3E76B460733F8
:104AE0000D201870002004E01D789A4C25600130DC
:104AF0000133002820D1974CA469A406FBD4F3E726
:104B00001C789448046001310133002904D1914894
:104B100080698006FBD4F3E713780D3B59424B4183
:104B2000DBB20132117800290BD0002BC5D18A4BA2
:104B300002201B5E8B42D1D06B46073319700021D7
:104B4000E3E7FCF79BFCFA20400008F037FD162253
:104B50008549834810F0EEFD4E22844902A80AF0F0
:104B6000AFFA002302AA33E06B4607331970002125
:104B700004E01C787748046001310133002921D119
:104B8000744880698006FBD4F3E76B4607330D2039
:104B900018700020002825D16E4CA469A406FBD40F
:104BA0001D786C4C256001300133F3E71C786948AF
:104BB000046001310133002904D166488069800610
:104BC000FBD4F3E713780D3B59424B41DBB2013282
:104BD000117800290BD0002BC6D15F4B02201B5E41
:104BE0008B42D2D06B46073319700021E3E7FCF704
:104BF00045FCFA20400008F0E1FC16225C495848C8
:104C000010F098FD47225B4902A80AF059FA0023E8
:104C100002AA34E06B4607331970002104E01C78C7
:104C20004C48046001310133002922D14948806990
:104C30008006FBD4F3E76B4607330D201870002085
:104C400004E01D78434C256001300133002820D159
:104C5000404CA469A406FBD4F3E71C783D480460EB
:104C600001310133002904D13A4880698006FBD420
:104C7000F3E713780D3B59424B41DBB20132117817
:104C800000290BD0002BC5D1334B02201B5E8B4279
:104C9000D1D06B46073319700021E3E7FCF7EEFB38
:104CA000FA20400008F08AFC2D4C15222B492000E8
:104CB00010F040FD18223049200010F03BFD152275
:104CC0002E49200010F036FD13222D49200010F04F
:104CD00031FD16222B49200010F02CFD02A92A4894
:104CE0000B00020031CA31C331CA31C331CA31C3EA
:104CF000002351E06B4607331A70002204E01C7851
:104D00001448046001320133002A3FD11148806900
:104D10008006FBD4F3E76B4607330D2018700020A4
:104D200004E01D780B4C25600130013300283DD193
:104D3000084CA469A406FBD4F3E71C78054804607A
:104D400001320133002A21D1024880698006FBD458
:104D5000F3E7C04600800340A4370020E0AC021017
:104D60000C3600204099021088990210A099021078
:104D700094AC0210F09902106CA2021064A102100F
:104D8000A4A20210389A0210509A02100B780D3B20
:104D90005A425341DBB201310A78002A0BD0002B72
:104DA000A8D1C64B02201B5E9342B4D06B4607339A
:104DB0001A700022C6E73F32C14902A80AF080F902
:104DC000002302AA34E06B4607331970002104E087
:104DD0001C78BC48046001310133002922D1B94854
:104DE00080698006FBD4F3E76B4607330D2018700B
:104DF000002004E01D78B34C256001300133002809
:104E000020D1B04CA469A406FBD4F3E71C78AD48CC
:104E1000046001310133002904D1AA488069800669
:104E2000FBD4F3E713780D3B59424B41DBB201321F
:104E3000117800290BD0002BC5D1A04B02201B5E9E
:104E40008B42D1D06B46073319700021E3E7FCF7A2
:104E500015FBFA20400008F0B1FB9B4C15229B4942
:104E6000200010F067FC12229949200010F062FC2B
:104E700012229849200010F05DFC5022964902A8A9
:104E80000AF01EF9002302AA34E06B4607331970BA
:104E9000002104E01C788B480460013101330029B3
:104EA00022D1884880698006FBD4F3E76B4607333C
:104EB0000D201870002004E01D78824C2560013020
:104EC0000133002820D17F4CA469A406FBD4F3E76A
:104ED0001C787C48046001310133002904D17948F1
:104EE00080698006FBD4F3E713780D3B59424B41B0
:104EF000DBB20132117800290BD0002BC5D16F4BEA
:104F000002201B5E8B42D1D06B4607331970002103
:104F1000E3E7FCF7B3FAFA20400008F04FFB02A9E0
:104F20006E480B00020031CA31C331CA31C331CAE5
:104F300031C3002333E06B4607331A700022002A86
:104F400027D1604880698006FBD41C785D480460E6
:104F500001320133F3E76B4607330D201870002050
:104F600004E01D78574C256001300133002820D122
:104F7000544CA469A406FBD4F3E71C7851480460A0
:104F800001320133002A04D14E4880698006FBD4E7
:104F9000F3E70B780D3B5A425341DBB201310A78FB
:104FA000002A0BD0002BC6D1444B02201B5E93423B
:104FB000D1D06B4607331A700022E3E73D324849EF
:104FC00002A80AF07DF8002302AA33E06B460733FB
:104FD0001970002104E01C783A4804600131013363
:104FE000002921D1374880698006FBD4F3E76B465E
:104FF00007330D2018700020002825D1314CA469FA
:10500000A406FBD41D782F4C256001300133F3E753
:105010001C782C48046001310133002904D129484F
:1050200080698006FBD4F3E713780D3B59424B416E
:10503000DBB20132117800290BD0002BC6D11F4BF7
:1050400002201B5E8B42D2D06B46073319700021C1
:10505000E3E7FCF713FAFA20400008F0AFFA1A4C25
:1050600015222049200010F065FB1222184920006B
:1050700010F060FB14221C49200010F05BFB522250
:105080001A4902A80AF01CF8002302AA4EE06B4657
:1050900007331970002104E01C780A4804600131CC
:1050A000013300293CD1074880698006FBD4F3E72F
:1050B0006B4607330D20187000201EE0A437002037
:1050C000749A0210008003400C360020E4AB0210FA
:1050D000B49A0210C89A0210DC9A02102C9B02109B
:1050E000509B0210909B0210A89B0210C09B0210C4
:1050F0001D78C24C256001300133002820D1BF4CFF
:10510000A469A406FBD4F3E71C78BC480460013111
:105110000133002904D1B94880698006FBD4F3E744
:1051200013780D3B59424B41DBB201321178002913
:105130000BD0002BABD1B24B02201B5E8B42B7D001
:105140006B46073319700021E3E7FCF797F9FA2063
:10515000400008F033FAAB4C1222AB49200010F0AB
:10516000E9FA1522A949200010F0E4FA5122A849D1
:1051700002A809F0A5FF002302AA34E06B4607331A
:105180001970002104E01C789C480460013101334F
:10519000002922D1994880698006FBD4F3E76B4649
:1051A00007330D201870002004E01D78934C256013
:1051B00001300133002820D1904CA469A406FBD40F
:1051C000F3E71C788D48046001310133002904D1D4
:1051D0008A4880698006FBD4F3E713780D3B594277
:1051E0004B41DBB20132117800290BD0002BC5D125
:1051F000834B02201B5E8B42D1D06B460733197064
:105200000021E3E73122834902A809F059FF002376
:1052100002AA33E06B4607331970002104E01C78C2
:105220007648046001310133002921D17348806937
:105230008006FBD4F3E76B4607330D20187000207F
:10524000002825D16D4CA469A406FBD41D786B4CB5
:10525000256001300133F3E71C78684804600131B0
:105260000133002904D1654880698006FBD4F3E747
:1052700013780D3B59424B41DBB2013211780029C2
:105280000BD0002BC6D15E4B02201B5E8B42D2D0CE
:105290006B46073319700021E3E73A225E4902A802
:1052A00009F00EFF002302AA34E06B4607331970A1
:1052B000002104E01C7851480460013101330029C9
:1052C00022D14E4880698006FBD4F3E76B46073352
:1052D0000D201870002004E01D78484C2560013036
:1052E0000133002820D1454CA469A406FBD4F3E780
:1052F0001C784248046001310133002904D13F4841
:1053000080698006FBD4F3E713780D3B59424B418B
:10531000DBB20132117800290BD0002BC5D1384BFC
:1053200002201B5E8B42D1D06B46073319700021DF
:10533000E3E7FCF7A3F8FA20400008F03FF94C221D
:10534000364902A809F0BCFE002302AA34E06B46ED
:1053500007331970002104E01C78284804600131EB
:105360000133002922D1254880698006FBD4F3E768
:105370006B4607330D201870002004E01D781F4C89
:10538000256001300133002820D11C4CA469A406FB
:10539000FBD4F3E71C78194804600131013300297C
:1053A00004D1164880698006FBD4F3E713780D3BDF
:1053B00059424B41DBB20132117800290BD0002B4E
:1053C000C5D10F4B02201B5E8B42D1D06B460733F9
:1053D00019700021E3E7FCF751F8FA20400008F0CB
:1053E000EDF853220E4902A809F06AFE002302AA32
:1053F00047E06B4607331970002118E00080034036
:10540000A43700200C360020149C021064A1021066
:10541000289C02107C9C0210B09C0210EC9C021094
:10542000389D02101C78C148046001310133002905
:1054300021D1BE4880698006FBD4F3E76B46073371
:105440000D2018700020002825D1B84CA469A406AE
:10545000FBD41D78B54C256001300133F3E71C788F
:10546000B248046001310133002904D1AF4880699A
:105470008006FBD4F3E713780D3B59424B41DBB276
:105480000132117800290BD0002BB2D1A84B022099
:105490001B5E8B42D2D06B46073319700021E3E7C5
:1054A0003122A44902A809F00BFE002302AA34E02D
:1054B0006B4607331970002104E01C789B48046098
:1054C00001310133002922D1984880698006FBD43C
:1054D000F3E76B4607330D201870002004E01D78B9
:1054E000924C256001300133002820D18F4CA469F3
:1054F000A406FBD4F3E71C788C4804600131013327
:10550000002904D1894880698006FBD4F3E7137829
:105510000D3B59424B41DBB20132117800290BD0CF
:10552000002BC5D1824B02201B5E8B42D1D06B4633
:10553000073319700021E3E73D227F4902A809F0F3
:10554000BFFD002302AA34E06B4607331970002127
:1055500004E01C787548046001310133002922D130
:10556000724880698006FBD4F3E76B4607330D2051
:105570001870002004E01D786C4C25600130013368
:10558000002820D1694CA469A406FBD4F3E71C7859
:105590006648046001310133002904D16348806901
:1055A0008006FBD4F3E713780D3B59424B41DBB245
:1055B0000132117800290BD0002BC5D15C4B0220A1
:1055C0001B5E8B42D1D06B46073319700021E3E795
:1055D000FBF754FFFA20400007F0F0FF152257496F
:1055E000574810F0A7F84F22564902A809F068FD65
:1055F000002302AA33E06B4607331970002104E050
:105600001C784A48046001310133002921D1474800
:1056100080698006FBD4F3E76B4607330D201870D2
:105620000020002825D1414CA469A406FBD41D7894
:105630003E4C256001300133F3E71C783B480460A1
:1056400001310133002904D1384880698006FBD438
:10565000F3E713780D3B59424B41DBB2013211782D
:1056600000290BD0002BC6D1314B02201B5E8B4290
:10567000D2D06B46073319700021E3E7FBF7FEFE3B
:10568000FA20400007F09AFF15222C492C4810F010
:1056900051F857222C4902A809F012FD002302AA52
:1056A00034E06B4607331970002104E01C781F4872
:1056B000046001310133002922D11C488069800631
:1056C000FBD4F3E76B4607330D201870002004E08D
:1056D0001D78164C256001300133002820D1134C71
:1056E000A469A406FBD4F3E71C78104804600131D8
:1056F0000133002904D10D4880698006FBD4F3E70B
:1057000013780D3B59424B41DBB20132117800292D
:105710001CD0002BC5D1064B02201B5E8B42D1D082
:105720006B46073319700021E3E7C0460080034051
:10573000A43700207C9C02108C9D021000A802104F
:105740000C360020CC9D02101C9E02105522BA4936
:1057500002A809F0B5FC002302AA33E06B46073328
:105760001970002104E01C78B44804600131013351
:10577000002921D1B14880698006FBD4F3E76B464C
:1057800007330D2018700020002825D1AB4CA469E8
:10579000A406FBD41D78A94C256001300133F3E742
:1057A0001C78A648046001310133002904D1A348C4
:1057B00080698006FBD4F3E713780D3B59424B41D7
:1057C000DBB20132117800290BD0002BC6D19C4BE3
:1057D00002201B5E8B42D2D06B460733197000212A
:1057E000E3E7FBF74BFEFA20400007F0E7FE5A2202
:1057F000944902A809F064FC002302AA33E06B4636
:1058000007331970002104E01C788C4804600131D2
:105810000133002921D1894880698006FBD4F3E750
:105820006B4607330D2018700020002825D1834CCB
:10583000A469A406FBD41D78804C25600130013397
:10584000F3E71C787D48046001310133002904D15D
:105850007A4880698006FBD4F3E713780D3B594200
:105860004B41DBB20132117800290BD0002BC6D19D
:10587000734B02201B5E8B42D2D06B4607331970EC
:105880000021E3E7FBF7FAFDFA20400007F096FE5F
:105890005C226D4902A809F013FC002302AA34E03F
:1058A0006B4607331970002104E01C7863480460DC
:1058B00001310133002922D1604880698006FBD480
:1058C000F3E76B4607330D201870002004E01D78C5
:1058D0005A4C256001300133002820D1574CA4696F
:1058E000A406FBD4F3E71C7854480460013101336B
:1058F000002904D1514880698006FBD4F3E713786E
:105900000D3B59424B41DBB20132117800290BD0DB
:10591000002BC5D14A4B02201B5E8B42D1D06B4677
:10592000073319700021E3E75D22484902A809F016
:10593000C7FB002302AA33E06B460733197000212E
:1059400004E01C783D48046001310133002921D175
:105950003A4880698006FBD4F3E76B4607330D2095
:1059600018700020002825D1344CA469A406FBD46B
:105970001D78324C256001300133F3E71C782F4845
:10598000046001310133002904D12C48806980066C
:10599000FBD4F3E713780D3B59424B41DBB20132A4
:1059A000117800290BD0002BC6D1254B02201B5E9D
:1059B0008B42D2D06B46073319700021E3E7FBF727
:1059C0005DFDFA20400007F0F9FD4B22204902A8B6
:1059D00009F076FB002302AA42E06B4607331970F8
:1059E000002104E01C7815480460013101330029CE
:1059F00030D1124880698006FBD4F3E76B46073349
:105A00000D201870002004E01D780C4C256001303A
:105A1000013300282ED1094CA469A406FBD4F3E776
:105A20001C780648046001310133002912D1034873
:105A300080698006FBD4F3E7749E02100080034067
:105A4000A4370020CC9E0210289F0210849F0210D1
:105A5000E49F021013780D3B59424B41DBB20132F7
:105A6000117800290BD0002BB7D13B4B02201B5ED5
:105A70008B42C3D06B46073319700021D5E7FBF783
:105A8000FDFCFA20400007F099FD0E22334934480E
:105A90000FF050FEFA2007F091FD324B50229A632E
:105AA0005A6B38231340304A136002A92F480B0069
:105AB000020031CA31C331CA31C311CA11C31088BF
:105AC000188092789A70002334E06B4607331A707E
:105AD000002204E01C782348046001320133002ACC
